SPE1C115Q01638455015288548                                    005482006901/05/15SPE1C115Q0163.pdf  0002432EAINSIGNIA,SHOULDER S  PCPQCG1Y100
SPE1C115Q01668465013866877                                    005587946701/12/15SPE1C115Q0166.pdf  0000001EASTRAP,WEBBING        PCPQDZ1N100
SPE1C115Q01718455010491513                                    005525379201/05/15SPE1C115Q0171.pdf  0008196PRINSIGNIA,GRADE,ENLISTPCPQCG1Y100
SPE1C115T04938345009350440                                    005644531601/02/15SPE1C115T0493.pdf  0000100EAFLAG,SIGNAL          PSPTPG1Y100
SPE1C115T04948345009350453                                    005644531301/02/15SPE1C115T0494.pdf  0000350EAFLAG,SIGNAL          PSPTPG1Y100
SPE1C115T04958465015424581                                    005644246001/02/15SPE1C115T0495.pdf  0000021EABELT,INDIVIDUAL EQU  PCPQDH1N100
SPE1C115T04968465015424562                                    005644245901/02/15SPE1C115T0496.pdf  0000030EABELT,INDIVIDUAL EQU  PCPQDH1N100
SPE1C115T04978465015709849                                    005644245401/02/15SPE1C115T0497.pdf  0000065EAPOCKET,AMMUNITION M  PCPQDD1N100
SPE1C115T04988430015278558                                    005647670101/02/15SPE1C115T0498.pdf  0000150PRBOOTS,COLD WEATHER   PCPQEG1Y100
SPE1C115T04998340015381823                                    005644907901/02/15SPE1C115T0499.pdf  0000001EATENT,MX SHELTER, TAN,PCPQDG1Y100
SPE1C115T05008340015716948                                    005644907501/02/15SPE1C115T0500.pdf  0000002EAFLOOR,TENT           PCPQDG1N100
SPE2DH15T05186530014579324                                    005594126012/26/14SPE2DH15T0518.pdf  0000001PGBOTTLE,SPRAY         PAA02Z1N100
SPE2DH15T05216530014579324                                    005594106312/26/14SPE2DH15T0521.pdf  0000001PGBOTTLE,SPRAY         PAA02Z1N100
SPE2DH15T10266640006180072                                    005632450612/26/14SPE2DH15T1026.pdf  0000002PGTUBE,CAPILLARY,MICR  PAA23Z1N100
SPE2DH15T10286640004429005                                    005632566212/26/14SPE2DH15T1028.pdf  0000001EATEST PAPER AND COLO  PAA23Z1N100
SPE2DH15T10305345015296204                                    005627108512/26/14SPE2DH15T1030.pdf  0000007EASTONE,SHARPENING     PAA23Z1N100
SPE2DH15T10356640002470660                                    005632716212/26/14SPE2DH15T1035.pdf  0000001ROTEST PAPER AND COLO  PAA23Z1N100
SPE2DH15T10466640015806842                                    005632767812/26/14SPE2DH15T1046.pdf  0000012EATEST TUBE            PAA23Z1N100
SPE2DH15T11136910015507766                                    005644356301/02/15SPE2DH15T1113.pdf  0000002EATRAINING AID,SMALL   PDPSHZ1N100
SPE2DH15T11146530016237925                                    005644351312/30/14SPE2DH15T1114.pdf  0000001BXINDICATOR,DISINFECT  PDPSHZ1N100
SPE2DH15T11156520014571220                                    005644529312/30/14SPE2DH15T1115.pdf  0000005PGBUR,DENTAL,DIAMOND,  PDPSHZ1N100
SPE2DH15T11166530012715687                                    005644612412/30/14SPE2DH15T1116.pdf  0000001PGBOTTLE,SAFETY CAP    PDPSHZ1N100
SPE2DH15T11176530015614576                                    005644684812/30/14SPE2DH15T1117.pdf  0000010EAGLOVE,EDEMA,OCCUPAT  PDPSHZ1N100
SPE2DH15T11186530013075431                                    005644827112/30/14SPE2DH15T1118.pdf  0000001PGBAG,SPECIMEN         PDPSHZ1N100
SPE2DP15T03846505013306252                                    005632447612/26/14SPE2DP15T0384.pdf  0000005PGDEXTROSE INJECTION,  PDPSAZ1N100
SPE2DP15T03916505011893973                                    005632548612/26/14SPE2DP15T0391.pdf  0000005CNBUPIVACAINE AND EPI  PDPSAZ1N100
SPE2DP15T03986505015232386                                    005634958212/26/14SPE2DP15T0398.pdf  0000001PGARTICAINE HYDROCHLO  PDPSGZ1N100
SPE2DP15T04006505013306267                                    005635483712/26/14SPE2DP15T0400.pdf  0000001PGRINGER'S INJECTION,  PDPSAZ1N100
SPE2DP15T04046505015128629                                    005637577612/26/14SPE2DP15T0404.pdf  0000001PGPROMETHAZINE HYDROC  PDPSAZ1N100
SPE2DP15T04056505010564031                                    005637651012/26/14SPE2DP15T0405.pdf  0000016BTDETERGENT,SURGICAL   DJM00Z1N100
SPE2DP15T04106505013306252                                    005637596812/26/14SPE2DP15T0410.pdf  0000006PGDEXTROSE INJECTION,  PDPSAZ1N100
SPE2DP15T04116505001388461                                    005638098212/26/14SPE2DP15T0411.pdf  0000002BTPHENAZOPYRIDINE HYD  PDPSAZ1N100
SPE2DP15T04416505013514132                                    005632546612/29/14SPE2DP15T0441.pdf  0000001PGPETROLATUM,WHITE,US  PDPSAZ1N100
SPE2DP15T04426505015873886                                    005630647012/29/14SPE2DP15T0442.pdf  0000008VIMETHYLPREDNISOLONE   PDPSAZ1N100
SPE2DP15T04436505015813994                                    005644578512/29/14SPE2DP15T0443.pdf  0000003PGPROCHLORPERAZINE ED  PDPSAZ1N100
SPE2DP15T04446505013563879                                    005644578912/29/14SPE2DP15T0444.pdf  0000002BTLISINOPRIL TABLETS,  PDPSAZ1N100
SPE2DP15T04456505016035645                                    005644663412/29/14SPE2DP15T0445.pdf  0000001EACEFTRIAXONE SODIUM   PDPSAZ1N100
SPE2DP15T04466505013541044                                    005644825612/29/14SPE2DP15T0446.pdf  0000002PGNITROGLYCERIN INJEC  PDPSAZ1N100
SPE2DP15T04476505015138441                                    005644825112/29/14SPE2DP15T0447.pdf  0000006PGRACEPINEPHRINE INHA  PDPSGZ1N100
SPE2DP15T04486505011947265                                    005644932012/29/14SPE2DP15T0448.pdf  0000002PGLIDOCAINE HYDROCHLO  PDPSAZ1N100
SPE2DP15T04496505012139513                                    005644894612/29/14SPE2DP15T0449.pdf  0000048BTALUMINA,MAGNESIA,AN  PDPSAZ1N100
SPE2DS15T07586515014976830                                    005624156012/26/14SPE2DS15T0758.pdf  0000001EASUCTION INSTRUMENT,  PDPSFZ1N100
SPE2DS15T07676515016185860                                    005627224412/26/14SPE2DS15T0767.pdf  0000001PGSYRINGE,HYPODERMIC   PAA30Z1N100
SPE2DS15T07696515015196343                                    005627376812/26/14SPE2DS15T0769.pdf  0000001PGGLOVES,SURGEONS'     PDPSFZ1N100
SPE2DS15T07746515013363488                                    005624823212/26/14SPE2DS15T0774.pdf  0000001EASUPPORT,KNEE         PDPSFZ1N100
SPE2DS15T07756550014164358                                    005624823712/26/14SPE2DS15T0775.pdf  0000001PGFORMALDEHYDE SOLUTI  PDPSFZ1N100
SPE2DS15T07786550015703263                                    005624346812/26/14SPE2DS15T0778.pdf  0000001EADISTILLED WATER,REA  PDPSFZ1N100
SPE2DS15T07796515013362905                                    005624829012/26/14SPE2DS15T0779.pdf  0000001EASUPPORT,KNEE         PDPSFZ1N100
SPE2DS15T07906515013479447                                    005627639512/26/14SPE2DS15T0790.pdf  0000020PGCOVER,ELECTRONIC TH  PDPSFZ1N100
SPE2DS15T07936515016329655                                    005627877112/26/14SPE2DS15T0793.pdf  0000001EACASE,PHARMACEUTICAL  PAA30Z1N100
SPE2DS15T07946515015909705                                    005628819712/26/14SPE2DS15T0794.pdf  0000002EACLIPPER,HAIR         PAA30Z1N100
SPE2DS15T07986515016041845                                    005629168012/26/14SPE2DS15T0798.pdf  0000001BXSUTURE,ABSORBABLE,S  PDPSFZ1N100
SPE2DS15T08026550014521775                                    005629304012/26/14SPE2DS15T0802.pdf  0000001VITEST STRIPS,SANITIZ  PDPSFZ1N100
SPE2DS15T08056515015196343                                    005629302312/26/14SPE2DS15T0805.pdf  0000001PGGLOVES,SURGEONS'     PDPSFZ1N100
SPE2DS15T09286515012346836                                    005643740601/02/15SPE2DS15T0928.pdf  0000150PGAIRWAY,ORAL          PDPSFL1N100
SPE2DS15T09296515015322085                                    005644248701/02/15SPE2DS15T0929.pdf  0000050EANEEDLE,DISPENSING,F  PDPSFZ1N100
SPE2DS15T09306515015383988                                    005644473201/02/15SPE2DS15T0930.pdf  0000002EATEST SET,WASI        PDPSFZ1N100
SPE2DS15T09316515015383996                                    005644237901/02/15SPE2DS15T0931.pdf  0000002EATEST SET,PSYCHODIAG  PDPSFZ1N100
SPE2DS15T09326515012338877                                    005644529401/02/15SPE2DS15T0932.pdf  0000004EABRACE,ANKLE          PDPSFZ1N100
SPE2DS15T09336515012340246                                    005644497801/02/15SPE2DS15T0933.pdf  0000004EABRACE,ANKLE          PDPSFZ1N100
SPE2DS15T09346550015703263                                    005644609001/02/15SPE2DS15T0934.pdf  0000001EADISTILLED WATER,REA  PDPSFZ1N100
SPE2DS15T09356515015419770                                    005644473301/02/15SPE2DS15T0935.pdf  0000002EATEST SET,PSYCHODIAG  PDPSFZ1N100
SPE2DS15T09366515016222001                                    005644679501/02/15SPE2DS15T0936.pdf  0000001BXPLUG,EAR             PDPSFZ1N100
SPE2DS15T09376515015731577                                    005644669501/02/15SPE2DS15T0937.pdf  0000001PGANESTHESIA SET,SPIN  PDPSFZ1N100
SPE2DS15T09386515013432145                                    005646038501/02/15SPE2DS15T0938.pdf  0000003EADELIVERY KIT,OBSTET  PDPSFZ1N100
SPE2DS15T09396550014670676                                    005647923601/02/15SPE2DS15T0939.pdf  0000003PGDIAGNOSTIC KIT,CARD  PDPSFZ1N100
SPE2DS15T09406550012872185                                    005644827301/02/15SPE2DS15T0940.pdf  0000002EATEST PACK,LEUKOCYTE  PDPSFZ1N100
SPE4A015T04151560011257929                                    005627059412/26/14SPE4A015T0415.pdf  0000001EAADAPTER,CONNECTOR,E  MSL00Q1N100
SPE4A015T04456150015068139                                    005578979012/26/14SPE4A015T0445.pdf  0000002EACABLE ASSEMBLY,SPEC  PARESG1N100
SPE4A015T04525365013581677                                    005599115112/26/14SPE4A015T0452.pdf  0000001EASPACER,SLEEVE        GPP85G1N100
SPE4A015T05096685010484144                                    005644130712/30/14SPE4A015T0509.pdf  0000002EAGAGE,PRESSURE,DIAL   PARESD1N100
SPE4A015T05101680011942687                                    005644254001/02/15SPE4A015T0510.pdf  0000001EASEAT BOTTOM ASSY     PARESB1N100
SPE4A015T05116680011704362                                    005644269912/30/14SPE4A015T0511.pdf  0000001EATRANSMITTER,LIQUID   PARESD1N100
SPE4A015T05126220010868775                                    005644212212/30/14SPE4A015T0512.pdf  0000001EAPANEL,INDICATING,LI  PARESC1N100
SPE4A015T05135995015251199                                    005644254812/30/14SPE4A015T0513.pdf  0000002EACABLE ASSEMBLY,RADI  PARESL1N100
SPE4A015T05145995015251196                                    005644254712/30/14SPE4A015T0514.pdf  0000002EACABLE ASSEMBLY,RADI  PARESD1N100
SPE4A015T05154710005047466                                    005644310701/02/15SPE4A015T0515.pdf  0000020FTTUBE,METALLIC        PARESC1N100
SPE4A015T05161660010098607                                    005642663512/30/14SPE4A015T0516.pdf  0000002EASENSOR,TEMPERATURE   PARESB1N100
SPE4A015T05171680992309352                                    005648321401/02/15SPE4A015T0517.pdf  0000061EAHOUSING,LOCKING PIN  PARESD1N100
SPE4A115T00031650997961370                                    005580764012/26/14SPE4A115T0003.pdf  0000003EACOVER,SOLENOID       PXRCAD1N100
SPE4A115T00041650997961370                                    005545007112/26/14SPE4A115T0004.pdf  0000002EACOVER,SOLENOID       PXRCAD1N100
SPE4A515Q06184130015798336                                    005458644512/11/14SPE4A515Q0618.pdf  0000030EAFILTER MEDIA,AIR CO  PARACQ1N100
SPE4A515Q07713110015421718                                    005603195801/05/15SPE4A515Q0771.pdf  0000056EABEARING,BALL,ANNULA  PARABC1N100
SPE4A515Q08035310015875262                                    005620123501/31/15SPE4A515Q0803.pdf  0000070EAWASHER,FLAT          PARABC1N100
SPE4A515Q08044710011397429                                    005592751101/05/15SPE4A515Q0804.pdf  0000011EATUBE ASSEMBLY,METAL  PARFFC1N100
SPE4A515Q08061560013216891                                    005595886412/26/14SPE4A515Q0806.pdf  0000018EAHOUSING ASSEMBLY,AI  PARFKQ1N100
SPE4A515Q08072915009723624                                    005642353101/05/15SPE4A515Q0807.pdf  0000001EACONNECTOR ASSY,TUBE  PARFFC1N100
SPE4A515Q08081680012411786                                    005592648601/05/15SPE4A515Q0808.pdf  0000004EAMANIFOLD,TIME DELAY  PARABC1N100
SPE4A515Q08105310007279754                                    005477707612/24/14SPE4A515Q0810.pdf  0005000EAWASHER,FLAT          PARACH1N100
SPE4A515Q08111650012011389                                    005579983601/05/15SPE4A515Q0811.pdf  0000150EASEAT AND GUIDE ASSE  PARACC1N100
SPE4A515T83771560011412254                                    005609917712/26/14SPE4A515T8377.pdf  0000001EAIDLER ASSEMBLY       GPP52R1N100
SPE4A515T91741560011618334                                    005619965212/26/14SPE4A515T9174.pdf  0000007EACRANK ASSEMBLY,DOOR  PARABQ1N100
SPE4A515TA4286620004637487                                    005628195112/26/14SPE4A515TA428.pdf  0000017EAMAGNET ASSY,OUTER    GPP78Q1N100
SPE4A515TA4326105014729730                                    005628200912/26/14SPE4A515TA432.pdf  0000003EAROTOR,MOTOR          GPP49D1N100
SPE4A515TA4564710011927838                                    005626681412/26/14SPE4A515TA456.pdf  0000002EATUBE ASSEMBLY,METAL  PARACL1N100
SPE4A515TA4791560011428949                                    005627064012/26/14SPE4A515TA479.pdf  0000001EACOWLING              GDD50M1N100
SPE4A515TA5015975014718717                                    005626890812/26/14SPE4A515TA501.pdf  0000002EAMOUNTING BASE,ELECT  DBS00Q1N100
SPE4A515TA5073120014767004                                    005626984212/26/14SPE4A515TA507.pdf  0000010EABUSHING,SLEEVE       PARACC1N100
SPE4A515TA5141560014910655                                    005626920112/26/14SPE4A515TA514.pdf  0000002EAFAIRING,AIRCRAFT     GPP79C1N100
SPE4A515TA5155340014652424                                    005620153512/26/14SPE4A515TA515.pdf  0000134EARETAINER,NUT AND BO  PARACP1N100
SPE4A515TA5185320013834272                                    005623589312/26/14SPE4A515TA518.pdf  0000030EARIVET,BLIND          GPP79L1N100
SPE4A515TA5326140014402022                                    005544916012/26/14SPE4A515TA532.pdf  0000151EABATTERY ASSEMBLY     PARABC1N100
SPE4A515TA5366105007710890                                    005628218112/26/14SPE4A515TA536.pdf  0000002EASTATOR,MOTOR         PARFED1N100
SPE4A515TA5391560012509771                                    005619831012/26/14SPE4A515TA539.pdf  0000017EARIB,AIRFOIL          PARACC1N100
SPE4A515TA5493120010157783                                    005620447112/26/14SPE4A515TA549.pdf  0000027EABEARING,PLAIN,ROD E  PARACP1R100
SPE4A515TA5576220012610001                                    005627048812/26/14SPE4A515TA557.pdf  0000001EALENS,LIGHT           PARABQ1N100
SPE4A515TA5695340013456716                                    005627097512/26/14SPE4A515TA569.pdf  0000001EACOVER,ACCESS         PARABC1N100
SPE4A515TA5965310010954632                                    005629880412/26/14SPE4A515TA596.pdf  0003787EAWASHER,FLAT          PARACL1N100
SPE4A515TA5975365007616186                                    005629823012/26/14SPE4A515TA597.pdf  0000263EARING,MATING          PARABC1N100
SPE4A515TA5983020010562707                                    005629874912/26/14SPE4A515TA598.pdf  0000003EAGEAR ASSEMBLY,WORM   GPP50R1N100
SPE4A515TA6035977010304032                                    005629870812/26/14SPE4A515TA603.pdf  0000007EABRUSH,ELECTRICAL CO  PARACQ1N100
SPE4A515TA6085325012410709                                    005629804912/26/14SPE4A515TA608.pdf  0000433EARING,RETAINING       PARABQ1N100
SPE4A515TA6124320012285301                                    005629786412/26/14SPE4A515TA612.pdf  0000124EAPISTON AND SHOE      PAA06D1N100
SPE4A515TA6151560013670862                                    005629812312/26/14SPE4A515TA615.pdf  0000183EAINSULATION,THERMAL,  PARACR1R100
SPE4A515TA6195330015373035                                    005629796612/26/14SPE4A515TA619.pdf  0000400EAPACKING,PREFORMED    GPP49D1N100
SPE4A515TA6225365015215143                                    005629783212/26/14SPE4A515TA622.pdf  0000022EABUSHING BLANK        PARACD1N100
SPE4A515TA6313120010177295                                    005629885112/26/14SPE4A515TA631.pdf  0000016EABEARING,SLEEVE       PAA06P1N100
SPE4A515TA6461680005706364                                    005544338512/26/14SPE4A515TA646.pdf  0000010EASHAFT ASSEMBLY       GPP79R1N100
SPE4A515TA6491560010339990                                    005623422512/26/14SPE4A515TA649.pdf  0000002EAPANEL,STRUCTURAL,AI  PARACQ1Y100
SPE4A515TA6551560002435545                                    005623603212/26/14SPE4A515TA655.pdf  0000001EADOOR,ACCESS,AIRCRAF  PARABQ1N100
SPE4A515TA6585305015809575                                    005620369112/26/14SPE4A515TA658.pdf  0000023EASCREW,CLOSE TOLERAN  PARACD1N100
SPE4A515TA6606220016101511                                    005619870712/26/14SPE4A515TA660.pdf  0000041EALIGHT,DOME           PARACD1N100
SPE4A515TA6733040014849683                                    005628200412/26/14SPE4A515TA673.pdf  0000002EASHAFT,SHOULDERED     PARACQ1N100
SPE4A515TA6814010012951321                                    005630164912/26/14SPE4A515TA681.pdf  0000002EAWIRE ROPE ASSEMBLY,  PARACC1N100
SPE4A515TA6865340015193652                                    005629787212/26/14SPE4A515TA686.pdf  0000008EAMOUNT,RESILIENT,GEN  PARACQ1N100
SPE4A515TA6901560008351730                                    005626695612/26/14SPE4A515TA690.pdf  0000006EABUMPER,DOOR JAM      PARABQ1N100
SPE4A515TA6961680014494184                                    005629857012/26/14SPE4A515TA696.pdf  0000101EAPARTS KIT,ELECTRO-M  GPP79Q1N100
SPE4A515TA7041730014755577                                    005626809812/26/14SPE4A515TA704.pdf  0000006EACOVER,AIRCRAFT ENGI  PARACQ1N100
SPE4A515TA7106680001812496                                    005623639512/26/14SPE4A515TA710.pdf  0000001EATHERMOSTAT,FLOW CON  PARFEQ1N100
SPE4A515TA7195365006966970                                    005620625412/26/14SPE4A515TA719.pdf  0000018EABUSHING,DRIVE GEAR   PARACP1N100
SPE4A515TA7552915011444099                                    005631950912/26/14SPE4A515TA755.pdf  0000002EALEVER,LINKAGE,RESET  PARABC1N100
SPE4A515TA7633040014691464                                    005631944212/26/14SPE4A515TA763.pdf  0000007EACAM,CONTROL          GPP50R1Y100
SPE4A515TA7975340014877517                                    005630177712/26/14SPE4A515TA797.pdf  0000013EABRACKET,MOUNTING     PARACC1N100
SPE4A515TA8304820011295469                                    005594333012/26/14SPE4A515TA830.pdf  0000005EASLEEVE AND SLIDE,DI  GPP79Q1N100
SPE4A515TA8492915000154190                                    005588041012/26/14SPE4A515TA849.pdf  0000074EALOCKSCREW,FUEL NOZZ  GPP79L1N100
SPE4A515TA8651650002885383                                    005633444612/26/14SPE4A515TA865.pdf  0000010EATAB,HOLDDOWN,CONSTA  PARABC1N100
SPE4A515TA8695365003043974                                    005633447512/26/14SPE4A515TA869.pdf  0000022EAPLUG,MACHINE THREAD  PARABL1N100
SPE4A515TB0462995004676276                                    005636626212/26/14SPE4A515TB046.pdf  0000006EAFILTER CUP           PARABD1N100
SPE4A515TB0655998013058948                                    005636617412/26/14SPE4A515TB065.pdf  0000002EACIRCUIT CARD ASSEMB  PARABL1N100
SPE4A515TB0765365013352838                                    005636577012/26/14SPE4A515TB076.pdf  0000039EASHIM                 PARABQ1N100
SPE4A515TB1071560016142490                                    005636516312/26/14SPE4A515TB107.pdf  0000002EASUPPORT,STRUCTURAL   PARABC1N100
SPE4A515TB1425315002982127                                    005636768712/26/14SPE4A515TB142.pdf  0000197EAPIN,STRAIGHT,HEADED  PARABQ1N100
SPE4A515TB1475342004584789                                    005636692612/26/14SPE4A515TB147.pdf  0000019EAPLUG,DRAIN           PARABC1N100
SPE4A515TB1716105011179842                                    005636703912/26/14SPE4A515TB171.pdf  0000010EAMOTOR,DIRECT CURREN  PARABD1N100
SPE4A515TB1871615012185596                                    005636845512/26/14SPE4A515TB187.pdf  0000018EACOVER,PROTECTIVE,DI  PARABC1N100
SPE4A515TB2066610011843014                                    005636646412/26/14SPE4A515TB206.pdf  0000022EABASE ASSEMBLY,RESIS  PARABQ1N100
SPE4A515TB2294920013948846                                    005636647812/26/14SPE4A515TB229.pdf  0000731EATEMPLATE,CONTROL RI  PARABD1N100
SPE4A515TB3375365005167281                                    005637019412/26/14SPE4A515TB337.pdf  0000182EASPACER,SLEEVE        PARABH1N100
SPE4A515TB3534320008073896                                    005636951612/26/14SPE4A515TB353.pdf  0000006EAROTOR,TURBINE,START  PARABC1N100
SPE4A515TB3681660012027135                                    005637004812/26/14SPE4A515TB368.pdf  0000007EACOVER,WATER SEPARAT  PARABD1N100
SPE4A515TB3805365014511646                                    005636930712/26/14SPE4A515TB380.pdf  0000005EASPACER,RING          PARABH1N100
SPE4A515TC6815340012547580                                    005647660101/02/15SPE4A515TC681.pdf  0000005EAESCUTCHEON PLATE     PARABC1N100
SPE4A515TC6845305014949250                                    005647559301/02/15SPE4A515TC684.pdf  0000045EASCREW,MACHINE        PARABP1N100
SPE4A515TC6856680011440844                                    005632772001/02/15SPE4A515TC685.pdf  0000007EATRANSMITTER,LIQUID   PARACB1N100
SPE4A515TC6866695014447073                                    005642365912/30/14SPE4A515TC686.pdf  0000008EATRANSDUCER,MOTIONAL  PARABB1N100
SPE4A515TC6895365011407778                                    005636840401/02/15SPE4A515TC689.pdf  0000014EASHIM                 PARABL1N100
SPE4A515TC6905915004209169                                    005645760701/02/15SPE4A515TC690.pdf  0000005EANETWORK,IMPEDANCE M  PARACC1N100
SPE4A515TC6915999015396207                                    005636503701/02/15SPE4A515TC691.pdf  0000001EACONNECTOR,PLATE ASS  PARACD1N100
SPE4A515TC6925340016232765                                    005636794101/02/15SPE4A515TC692.pdf  0000008EAHANDLE,MANUAL CONTR  PARACQ1N100
SPE4A515TC6935342012786032                                    005645794801/02/15SPE4A515TC693.pdf  0000290EACLIP,ANCHOR          PARACQ1N100
SPE4A515TC6944730011179996                                    005645865112/30/14SPE4A515TC694.pdf  0000024EAELBOW,PIPE           PARABP1N100
SPE4A515TC6951560007002587                                    005646007001/02/15SPE4A515TC695.pdf  0000002EADOOR,ACCESS,AIRCRAF  PARABQ1N100
SPE4A515TC6964720014338129                                    005636852601/02/15SPE4A515TC696.pdf  0000005EAHOSE ASSEMBLY,NONME  PARACL1N100
SPE4A515TC6976150013557306                                    005636938901/02/15SPE4A515TC697.pdf  0000009EACABLE ASSEMBLY,PRIN  PARAAC1N100
SPE4A515TC6985325015287235                                    005643893701/02/15SPE4A515TC698.pdf  0000023EAGROMMET,NONMETALLIC  PARACH1N100
SPE4A515TC6995821011325842                                    005645471001/02/15SPE4A515TC699.pdf  0000010EAADJUSTER             PARACQ1N100
SPE4A515TC7005305014771282                                    005640823301/02/15SPE4A515TC700.pdf  0000022EASCREW,CLOSE TOLERAN  PARACC1N100
SPE4A515TC7031560015263938                                    005636942801/02/15SPE4A515TC703.pdf  0000006EAFAIRING,AIRCRAFT     PARACC1N100
SPE4A515TC7045315015412221                                    005636940701/02/15SPE4A515TC704.pdf  0000008EAPIN,STRAIGHT,HEADLE  PARACL1N100
SPE4A515TC7052935012795985                                    005640653101/02/15SPE4A515TC705.pdf  0000003EARING,WEARING         PARASD1N100
SPE4A515TC7061680015465737                                    005637001401/02/15SPE4A515TC706.pdf  0000002EAARM,HINGE PIN,UPPER  PARACC1N100
SPE4A515TC7075999015396203                                    005636503801/02/15SPE4A515TC707.pdf  0000002EACONNECTOR,PLATE ASS  PARACD1N100
SPE4A515TC7084730016289566                                    005636695312/30/14SPE4A515TC708.pdf  0000007EAADAPTER ASSEMBLY,VA  PARABH1N100
SPE4A515TC7093120016308150                                    005636843201/02/15SPE4A515TC709.pdf  0000002EABUSHING,SLEEVE       PARACQ1N100
SPE4A515TC7101660011634417                                    005610137401/02/15SPE4A515TC710.pdf  0000003EADUCT ASSEMBLY,AIR C  PARAAP1N100
SPE4A515TC7115340015400969                                    005636960501/02/15SPE4A515TC711.pdf  0000004EACOVER,ACCESS         PARACD1N100
SPE4A515TC7125307011034428                                    005643917312/30/14SPE4A515TC712.pdf  0000460EASTUD,SHOULDERED AND  PARABQ1N100
SPE4A515TC7131730994102573                                    005642615101/02/15SPE4A515TC713.pdf  0000006EAEXTRACTOR ASSEMBLY,  GPP34C1N100
SPE4A515TC7145365011403723                                    005636851101/02/15SPE4A515TC714.pdf  0001924EASHIM                 PARABL1N100
SPE4A515TC7151730014559044                                    005598749201/02/15SPE4A515TC715.pdf  0000013EASHIELD,AIRCRAFT GRO  PARACP1N100
SPE4A515TC7161680015368630                                    005637040801/02/15SPE4A515TC716.pdf  0000002EABOARD,AIRCRAFT,MATE  PARACQ1N100
SPE4A515TC7175305015399121                                    005640729601/02/15SPE4A515TC717.pdf  0001942EASCREW,MACHINE        PARACY1N100
SPE4A515TC7182840015525405                                    005640705301/02/15SPE4A515TC718.pdf  0000169EABLADE,COMPRESSOR,AI  PARABC1N100
SPE4A515TC7191560015659757                                    005643577801/02/15SPE4A515TC719.pdf  0000002EAPANEL,STRUCTURAL,AI  PARACH1N100
SPE4A515TC7205365015711175                                    005637036201/02/15SPE4A515TC720.pdf  0000005EASPACER,PLATE         PARACQ1N100
SPE4A515TC7215365016322672                                    005636820712/30/14SPE4A515TC721.pdf  0000005EABUSHING,SLEEVE       PARABP1N100
SPE4A515TC7222840005514045                                    005642338901/02/15SPE4A515TC722.pdf  0000013EAHOUSING,BEARING      PARABC1N100
SPE4A515TC7231650005685617                                    005631918001/02/15SPE4A515TC723.pdf  0000009EASPOOL AND SLEEVE ASSEPARASC1N100
SPE4A515TC7245305011506654                                    005636726201/02/15SPE4A515TC724.pdf  0000024EASCREW,ADJUSTING      GPP87D1N100
SPE4A515TC7252840012183557                                    005621913301/02/15SPE4A515TC725.pdf  0000024EASUPPORT,COMPRESSOR   PARASC1N100
SPE4A515TC7262840015525434                                    005640705201/02/15SPE4A515TC726.pdf  0000079EABLADE,COMPRESSOR,AI  PARABC1N100
SPE4A515TC7274140016322681                                    005636820601/02/15SPE4A515TC727.pdf  0000006EAFAN,VANEAXIAL        PARACQ1N100
SPE4A515TC7284920011691745                                    005645877101/02/15SPE4A515TC728.pdf  0000004EAINDICATOR,THROTTLE   PARASG1H100
SPE4A515TC7296220002646104                                    005644135001/02/15SPE4A515TC729.pdf  0000002EAMOUNTING ASSY        PARACL1N100
SPE4A515TC7302915011506636                                    005636726301/02/15SPE4A515TC730.pdf  0000004EALEVER,TABLE          PARFFC1N100
SPE4A515TC7331660008888406                                    005636635401/02/15SPE4A515TC733.pdf  0000068EALINKAGE,ARM,AIR SCO  PARACG1N100
SPE4A515TC7343110003316819                                    005643829101/02/15SPE4A515TC734.pdf  0000029EABEARING,ROLLER,CYLI  PARACD1N100
SPE4A515TC7355365001447998                                    005636869701/02/15SPE4A515TC735.pdf  0000459EASHIM                 PARABC1N100
SPE4A515TC7365310011300600                                    005636592601/02/15SPE4A515TC736.pdf  0000140EANUT,PLAIN,HEXAGON    PARABQ1N100
SPE4A515TC7376610009065722                                    005626827201/02/15SPE4A515TC737.pdf  0000002EAHOUSING ASSY,INDICA  PARACQ1N100
SPE4A515TC7385365011285298                                    005636592301/02/15SPE4A515TC738.pdf  0000020EARING,EXTERNALLY THR  PARABD1N100
SPE4A515TC7415306013213658                                    005636612201/02/15SPE4A515TC741.pdf  0000019EAROD,CONTINUOUS THRE  PARACD1N100
SPE4A515TC7421730015217270                                    005645749012/30/14SPE4A515TC742.pdf  0000024EACABLE ASSEMBLY,AIRC  PARABC1N100
SPE4A515TC7433110999346387                                    005640665901/02/15SPE4A515TC743.pdf  0000004EABEARING,TRACK,INNER  GPP34C1N100
SPE4A515TC7444730013122727                                    005645732901/02/15SPE4A515TC744.pdf  0000045EAFLANGE,PIPE          PARABG1Y100
SPE4A515TC7451560008987400                                    005646007101/02/15SPE4A515TC745.pdf  0000002EADOOR,ACCESS,AIRCRAF  PARABQ1N100
SPE4A515TC7461650005719352                                    005633449101/02/15SPE4A515TC746.pdf  0000015EALUG,STRUT RUDDER BO  PARACC1N100
SPE4A515TC7475365011300960                                    005636549701/02/15SPE4A515TC747.pdf  0000050EASPACER,RING          PARACQ1N100
SPE4A515TC7483110011313380                                    005636549801/02/15SPE4A515TC748.pdf  0000017EAPLATE,RETAINING,BEA  PARABQ1N100
SPE4A515TC7491560009231639                                    005580582301/02/15SPE4A515TC749.pdf  0000009EASKIN,AIRCRAFT        PARACC1N100
SPE4A515TC7502840013794638                                    005645900101/02/15SPE4A515TC750.pdf  0000001EADISK,TURBINE,AIRCRA  PARABC1N100
SPE4A515TC7515365011278970                                    005636580501/02/15SPE4A515TC751.pdf  0000019EASPACER,RING          PARACP1N100
SPE4A515TC7525310011284110                                    005636580301/02/15SPE4A515TC752.pdf  0000050EANUT,PLAIN,HEXAGON    PARABL1N100
SPE4A515TC7535120013829696                                    005636718701/02/15SPE4A515TC753.pdf  0000007EAPULLER,MECHANICAL    PARAAD1N100
SPE4A515TC7545365011278971                                    005636580401/02/15SPE4A515TC754.pdf  0000025EASPACER,RING          PARACP1N100
SPE4A515TC7555940014554953                                    005636911801/02/15SPE4A515TC755.pdf  0000002EATERMINAL,LUG         PARACD1N100
SPE4A515TC7585365011423097                                    005644255301/02/15SPE4A515TC758.pdf  0000001EASPACER,PLATE         PARASD1N100
SPE4A515TC7595365003405984                                    005644235201/02/15SPE4A515TC759.pdf  0000001EASPACER,RING          PARACQ1N100
SPE4A515TC7603940995810165                                    005642615201/02/15SPE4A515TC760.pdf  0000006EASLING,BEAM TYPE      GPP34C1N100
SPE4A515TC7611560012800709                                    005641211301/02/15SPE4A515TC761.pdf  0000001EAFORMER,AIRCRAFT      PARACM1N100
SPE4A515TC7625365012200245                                    005644253201/02/15SPE4A515TC762.pdf  0000075EASHIM                 PARACL1N100
SPE4A515TC7631560015536323                                    005644249001/02/15SPE4A515TC763.pdf  0000002EASUPPORT,STRUCTURAL   PARAAQ1N100
SPE4A515TC7641560011673725                                    005636757401/02/15SPE4A515TC764.pdf  0000002EAMANIFOLD,FLUID,AIRC  PARACQ1N100
SPE4A515TC7671560014692608                                    005636760901/02/15SPE4A515TC767.pdf  0000007EACOVER,ACCESS,AIRCRA  PARAAD1N100
SPE4A515TC7682825011913705                                    005636688501/02/15SPE4A515TC768.pdf  0000007EAADAPTER,TURBINE      PARACQ1N100
SPE4A515TC7696680012212531                                    005645920001/02/15SPE4A515TC769.pdf  0000007EAINDICATOR,NUMERIC    PARABP1Y100
SPE4A515TC7701560008223935                                    005647661401/02/15SPE4A515TC770.pdf  0000003EALATCH,SLIDING WINDO  PARABQ1N100
SPE4A515TC7721680005460940                                    005565153801/02/15SPE4A515TC772.pdf  0000031EALOCK,INERTIA REEL    PARACP1N100
SPE4A515TC7732915011227837                                    005636523201/02/15SPE4A515TC773.pdf  0000005EADISK,BIMETALLIC      PARFFC1N100
SPE4A515TC7745315011284202                                    005636536801/02/15SPE4A515TC774.pdf  0000094EAPIN,GROOVED,HEADLES  PARABQ1N100
SPE4A515TC7754730011232240                                    005636536401/02/15SPE4A515TC775.pdf  0000047EAPLUG,RETAINING       PARFFC1N100
SPE4A515TC7765315011317706                                    005636549301/02/15SPE4A515TC776.pdf  0000010EAPIN,SHOULDER,HEADLE  PARABD1N100
SPE4A515TC7775305011315843                                    005636549401/02/15SPE4A515TC777.pdf  0000043EASCREW,MACHINE        PARFFD1N100
SPE4A515TC7781660001620804                                    005647641112/30/14SPE4A515TC778.pdf  0000012EAFILTER,FLUID         PARABC1N100
SPE4A515TC7791560012029146                                    005544890201/02/15SPE4A515TC779.pdf  0000032EASUPPORT,STRUCTURAL   PARACP1N100
SPE4A515TC7806150015705966                                    005525224601/02/15SPE4A515TC780.pdf  0000003EACABLE ASSEMBLY,SPEC  PARASD1N100
SPE4A515TC7831680015106624                                    005636752101/02/15SPE4A515TC783.pdf  0000002EADUCT ASSEMBLY,AIRCR  PARACD1N100
SPE4A515TC7845365003232726                                    005644235101/02/15SPE4A515TC784.pdf  0000008EASHIM                 PARASD1N100
SPE4A515TC7851560004322565                                    005644207612/30/14SPE4A515TC785.pdf  0000002EASTRINGER,BOOM        PARABR1N100
SPE4A515TC7865365011273576                                    005636490001/02/15SPE4A515TC786.pdf  0000120EASPACER               PARABD1N100
SPE4A515TC7875365011273578                                    005636501201/02/15SPE4A515TC787.pdf  0000026EASPACER               PARABP1N100
SPE4A515TC7905310012592432                                    005636496001/02/15SPE4A515TC790.pdf  0000023EANUT                  PARFFD1N100
SPE4A515TC7915995013308973                                    005636485001/02/15SPE4A515TC791.pdf  0000009EACABLE ASSEMBLY,POWE  GPP34C1N100
SPE4A515TC7922915011227849                                    005636523101/02/15SPE4A515TC792.pdf  0000003EALEVER ASSEMBLY       PARACC1N100
SPE4A515TC7935365011718212                                    005640755901/02/15SPE4A515TC793.pdf  0000010EASHIM                 PARABR1N100
SPE4A515TC7945365011273579                                    005636501301/02/15SPE4A515TC794.pdf  0000151EASPACER               PARABD1N100
SPE4A515TC7951680010896261                                    005644413401/02/15SPE4A515TC795.pdf  0000010EASEAL LIGHT           PARACG1R100
SPE4A515TC7965365011273577                                    005636501101/02/15SPE4A515TC796.pdf  0000026EASPACER               PARABP1N100
SPE4A515TC7973120009780670                                    005636487501/02/15SPE4A515TC797.pdf  0000052EABUSHING,SLEEVE       PARACQ1N100
SPE4A515TC7982915003454086                                    005633438001/02/15SPE4A515TC798.pdf  0000084EAPLUG,FUEL CONTROL    PARABL1N100
SPE4A515TC8013110011227711                                    005633347001/02/15SPE4A515TC801.pdf  0000042EABEARING,BALL,ANNULA  PARABC1N100
SPE4A515TC8022840010274166                                    005647964901/02/15SPE4A515TC802.pdf  0000051EAPARTS KIT,TORQUEMET  GPP34Q1N100
SPE4A515TC8034010012902212                                    005636700301/02/15SPE4A515TC803.pdf  0000018EAWIRE ROPE ASSEMBLY,  PARAAC1Y100
SPE4A515TC8045315011312461                                    005633342101/02/15SPE4A515TC804.pdf  0000170EAPIN,STRAIGHT,HEADLE  PARACP1N100
SPE4A515TC8055365011302709                                    005633343001/02/15SPE4A515TC805.pdf  0000031EABUSHING,SCREW,ADJUS  PARABD1N100
SPE4A515TC8081650006744703                                    005647641501/02/15SPE4A515TC808.pdf  0000002EADAMPENER,FLUTTER     PARABC1N100
SPE4A515TC8093040011403504                                    005645839801/02/15SPE4A515TC809.pdf  0000010EACAM,CONTROL          PARABC1N100
SPE4A515TC8101560008224006                                    005646005801/02/15SPE4A515TC810.pdf  0000005EAFAIRING,AIRCRAFT     PARABC1N100
SPE4A515TC8116680011829873                                    005628153801/02/15SPE4A515TC811.pdf  0000002EATRANSMITTER,LIQUID   PARACP1N100
SPE4A515TC8125999009499825                                    005636518401/02/15SPE4A515TC812.pdf  0000066EAHEAT SINK,ELECTRICA  PARACQ1N100
SPE4A515TC8153020012658493                                    005640900212/30/14SPE4A515TC815.pdf  0000004EAGEAR,SPUR            PARABP1N100
SPE4A515TC8161650012155566                                    005648165312/30/14SPE4A515TC816.pdf  0000001EAVALVE PLATE          PARABD1N100
SPE4A515TC8193120001420741                                    005648165401/02/15SPE4A515TC819.pdf  0000001EABUSHING,SLEEVE       PARFFP1N100
SPE4A515TC8201680006220564                                    005642674401/02/15SPE4A515TC820.pdf  0000001EAHANDLE,DOOR          PARACL1N100
SPE4A515TC8215120014728871                                    005597533601/02/15SPE4A515TC821.pdf  0000001EAADAPTER,TORQUE WREN  PARACQ1N100
SPE4A515TC8224730015556977                                    005580109801/02/15SPE4A515TC822.pdf  0000008EACOUPLING HALF,QUICK  PARACB1N100
SPE4A515TC8275365009436239                                    005648321001/02/15SPE4A515TC827.pdf  0000079EASPACER,RING          PAA06C1N100
SPE4A515TC8285315013700274                                    005648321201/02/15SPE4A515TC828.pdf  0000008EAPIN,STRAIGHT,HEADLE  PARACQ1N100
SPE4A515TC8295315013700276                                    005648322001/02/15SPE4A515TC829.pdf  0000008EAPIN,STRAIGHT,HEADLE  PARACD1N100
SPE4A515TC8303120013692561                                    005648321701/02/15SPE4A515TC830.pdf  0000002EABUSHING,SLEEVE       PARACD1N100
SPE4A515TC8334320003748107                                    005636789901/02/15SPE4A515TC833.pdf  0000008EAPUMP,ROTARY          PARACQ1N100
SPE4A515TC8341560012276684                                    005644309601/02/15SPE4A515TC834.pdf  0000039EAFORMER,AIRCRAFT      PARACD1N100
SPE4A515TC8371560012711166                                    005648320201/02/15SPE4A515TC837.pdf  0000002EAFAIRING,PYLON,AIRCRAFPARACQ1N100
SPE4A615Q09016150011747191                                    005521245201/01/15SPE4A615Q0901.pdf  0000011EAWIRING HARNESS,BRAN  KAP00G1Y100
SPE4A615Q10351440011569224                                    005580000112/31/14SPE4A615Q1035.pdf  0000009EAHOUSING ASSEMBLY,SL  PARFMC1Y100
SPE4A615Q10945342015865204                                    005505876112/26/14SPE4A615Q1094.pdf  0000027EAANODE,CORROSION PRE  PARFMT1N100
SPE4A615Q11095365016235623                                    005615489201/02/15SPE4A615Q1109.pdf  0000003EABUSHING,SLEEVE       PARFMR1N100
SPE4A615Q11103130012673241                                    005636998712/28/14SPE4A615Q1110.pdf  0000019EABEARING SLIDE        PARAVG1Y100
SPE4A615Q11126210010846022                                    005516518101/01/15SPE4A615Q1112.pdf  0000260EALIGHT,INDICATOR      KAP00G1N100
SPE4A615Q11141620014664470                                    005373624812/29/14SPE4A615Q1114.pdf  0000027EASTEERING UNIT,AIRCR  PARFMC1Y100
SPE4A615Q11156150015794911                                    005525281012/29/14SPE4A615Q1115.pdf  0000102EACABLE ASSEMBLY,SPEC  PARFKD1N100
SPE4A615Q11163120010537058                                    005642321012/28/14SPE4A615Q1116.pdf  0000113EABEARING, SLEEVE      PARAVT1N100
SPE4A615Q11171560014764582                                    005636505501/05/15SPE4A615Q1117.pdf  0000002EASUPPORT,STRUCTURAL   PARDAD1N100
SPE4A615T89335940006420964                                    005592584912/26/14SPE4A615T8933.pdf  0000294PGFERRULE,ELECTRICAL   GPP79G1N100
SPE4A615TC1483110013981405                                    005620202212/26/14SPE4A615TC148.pdf  0000119EACONE,TAPERED ROLLER  GPP87B1N100
SPE4A615TD2995995011233979                                    005621957912/26/14SPE4A615TD299.pdf  0000004EACABLE ASSEMBLY,POWE  PARFKC1Y100
SPE4A615TD3506240014740040                                    005627607112/26/14SPE4A615TD350.pdf  0000001EALAMP,INCANDESCENT    PARFKZ1N100
SPE4A615TD4816210001069543                                    005629873312/26/14SPE4A615TD481.pdf  0000004EASEQUENCER,FLASH      PARFKG1Y100
SPE4A615TD5186250007415451                                    005607745212/26/14SPE4A615TD518.pdf  0000126EALAMPHOLDER           PARFKG1N100
SPE4A615TD5305970013638394                                    005629067212/26/14SPE4A615TD530.pdf  0000002TUINSULATING COMPOUND  PARFKL1N100
SPE4A615TD5996210011745633                                    005631952912/26/14SPE4A615TD599.pdf  0000009EALIGHT,INDICATOR      PARFKQ1N100
SPE4A615TD6185995014473952                                    005631962912/26/14SPE4A615TD618.pdf  0000015EACABLE ASSEMBLY,RADI  PARFKQ1N100
SPE4A615TD6745970008797596                                    005629754812/26/14SPE4A615TD674.pdf  0000004ROTAPE,INSULATION,ELE  PARFKZ1N100
SPE4A615TD6796240013164479                                    005630173112/26/14SPE4A615TD679.pdf  0000017EALAMP,INCANDESCENT    PARFKD1N100
SPE4A615TD7175995013156392                                    005632001712/26/14SPE4A615TD717.pdf  0000007EACABLE ASSEMBLY,SPEC  PARFKG1N100
SPE4A615TD7556210011989371                                    005620242812/26/14SPE4A615TD755.pdf  0000017EALIGHT,INDICATOR      PARFKQ1N100
SPE4A615TD7776350010166459                                    005633343812/26/14SPE4A615TD777.pdf  0000015EAANNUNCIATOR          PARFKQ1Y100
SPE4A615TD7835365011266116                                    005633350312/26/14SPE4A615TD783.pdf  0000202EASHIM,CYLINDER        PARFMC1N100
SPE4A615TD7895342010239395                                    005633345412/26/14SPE4A615TD789.pdf  0000564EACOUPLING,CLAMP,GROO  PARFMC1Y100
SPE4A615TD7926685012967352                                    005633376412/26/14SPE4A615TD792.pdf  0000004EAGAGE,COMPOUND PRESS  PARFJG1N100
SPE4A615TD8086685015503793                                    005633416112/26/14SPE4A615TD808.pdf  0000006EATRANSMITTER,PRESSUR  PARFJQ1Y100
SPE4A615TD8103110005919914                                    005628199112/26/14SPE4A615TD810.pdf  0000733EABEARING,BALL,ANNULAR PARAVC1N100
SPE4A615TD8223120002578121                                    005633444512/26/14SPE4A615TD822.pdf  0000057EABEARING,SLEEVE       PARAVC1N100
SPE4A615TD8235940009974477                                    005619877112/26/14SPE4A615TD823.pdf  0000004EATERMINAL BOARD       PARFJG1N100
SPE4A615TD8254010002738332                                    005632273112/26/14SPE4A615TD825.pdf  0000001RLROPE,WIRE            PARFMG1N100
SPE4A615TD8266220012010573                                    005632258112/26/14SPE4A615TD826.pdf  0000004EASHIELD,LIGHT         PARFKQ1N100
SPE4A615TD8275365012882400                                    005632259612/26/14SPE4A615TD827.pdf  0000008EASHIM                 PARFMZ1N100
SPE4A615TD8323120004033163                                    005622211212/26/14SPE4A615TD832.pdf  0000003EABUSHING,SLEEVE       PARAVG1N100
SPE4A615TD8335365011557508                                    005632292212/26/14SPE4A615TD833.pdf  0000001EASHIM                 PARFMD1N100
SPE4A615TD8386150015587675                                    005632284612/26/14SPE4A615TD838.pdf  0000020EAWIRING HARNESS,BRAN  PARFKD1N100
SPE4A615TD8396320012324664                                    005632280612/26/14SPE4A615TD839.pdf  0000001EAINDICATOR,ANGLE      PARFMP1N100
SPE4A615TD8405365011557510                                    005632292412/26/14SPE4A615TD840.pdf  0000001EASHIM                 PARFMQ1N100
SPE4A615TD8415365014390836                                    005632282312/26/14SPE4A615TD841.pdf  0000016EASPACER,SPECIAL SHAP  PARFMD1N100
SPE4A615TD8515342008712081                                    005580650212/26/14SPE4A615TD851.pdf  0000054EACLAMP                PARFML1Y100
SPE4A615TD8605975012983351                                    005628720112/26/14SPE4A615TD860.pdf  0000003EACONDUIT ASSEMBLY,FLEXPARFJB1N100
SPE4A615TD8636635005266187                                    005574239312/26/14SPE4A615TD863.pdf  0000001EASIEVE,TEST           PARFJG1N100
SPE4A615TD8695975013744565                                    005629799112/26/14SPE4A615TD869.pdf  0000007EASTUFFING TUBE        PARFJG1Y100
SPE4A615TD8706210013735807                                    005516513612/26/14SPE4A615TD870.pdf  0000018EABRACKET,LIGHT RETEN  PARFKG1N100
SPE4A615TD8825995016314299                                    005624773412/26/14SPE4A615TD882.pdf  0000001EACABLE ASSEMBLY,SPEC  PARFKZ1N100
SPE4A615TD8843110016039306                                    005625140212/26/14SPE4A615TD884.pdf  0000001EACONE,TAPERED ROLLER  PARAVB1N100
SPE4A615TD8913120012977778                                    005632282712/26/14SPE4A615TD891.pdf  0000024EAROLLER,LINEAR-ROTAR  PARAVG1N100
SPE4A615TD8965365014290766                                    005630290812/26/14SPE4A615TD896.pdf  0000004EASHIM                 PARFMQ1N100
SPE4A615TD9005940010763171                                    005633685912/26/14SPE4A615TD900.pdf  0000275EATERMINAL,LUG         PARFJD1N100
SPE4A615TD9125365011637503                                    005580952612/26/14SPE4A615TD912.pdf  0000015EASPACER,RING          PARFMG1Y100
SPE4A615TD9165970011093903                                    005586425012/26/14SPE4A615TD916.pdf  0027588FTINSULATION SLEEVING  PARFMG1Y100
SPE4A615TD9306610008323137                                    005636561312/26/14SPE4A615TD930.pdf  0000036EAPISTON,SEALING       PARFJD1N100
SPE4A615TD9376340010159134                                    005636601812/26/14SPE4A615TD937.pdf  0000006EADETECTOR ASSEMBLY    PARFMC1N100
SPE4A615TD9486220012599815                                    005636495212/26/14SPE4A615TD948.pdf  0000005EALIGHT UNIT,EMERGENC  PARFKR1N100
SPE4A615TD9586680013316977                                    005636521712/26/14SPE4A615TD958.pdf  0000009EAVENTURI METER        PARFJH1N100
SPE4A615TD9706620013322793                                    005636521212/26/14SPE4A615TD970.pdf  0000009EAGAGE,PRESSURE,DIAL   PARFJQ1N100
SPE4A615TD9765895014794757                                    005636579712/26/14SPE4A615TD976.pdf  0000018EACOVER,ELECTRONIC CO  PARFJL1N100
SPE4A615TD9886680013326766                                    005636564712/26/14SPE4A615TD988.pdf  0000007EASTATOR,GENERATOR     PARFJH1N100
SPE4A615TD9936685015223513                                    005636502512/26/14SPE4A615TD993.pdf  0000007EAGAGE,DIFFERENTIAL,D  PARFJC1N100
SPE4A615TE0156685014817515                                    005636547012/26/14SPE4A615TE015.pdf  0000009EATHERMOCOUPLE,CONTAC  PARFJD1N100
SPE4A615TE0396685015965391                                    005636491312/26/14SPE4A615TE039.pdf  0000007EATHERMOMETER,INDICAT  PARFJQ1N100
SPE4A615TE0565895171183994                                    005636515412/26/14SPE4A615TE056.pdf  0000007EACONVERTER,SIGNAL DA  PARFJC1N100
SPE4A615TE0696685015391484                                    005636535212/26/14SPE4A615TE069.pdf  0000009EAGAGE,PRESSURE,DIAL   PARFJR1N100
SPE4A615TE0714920016066506                                    005636618612/26/14SPE4A615TE071.pdf  0000014EAPANEL,INTERFACE DEV  PARFMZ1N100
SPE4A615TE0772835015972595                                    005636491712/26/14SPE4A615TE077.pdf  0000005KTPARTS KIT,GAS TURBI  PARFMD1N100
SPE4A615TE0835840150034749                                    005636516012/26/14SPE4A615TE083.pdf  0000002EACONVERTER-DETECTOR   PARFJZ1N100
SPE4A615TE0844920219133561                                    005636488712/26/14SPE4A615TE084.pdf  0000002EAADAPTER ASSEMBLY,PI  PARFMC1N100
SPE4A615TE0875895226065049                                    005636533412/26/14SPE4A615TE087.pdf  0000004EAGENERATOR,REFERENCE  PARFJD1N100
SPE4A615TE0915865001069212                                    005636831012/26/14SPE4A615TE091.pdf  0000022EACOUPLING,BAND POD    PARFJC1N100
SPE4A615TE0985365001201885                                    005636810512/26/14SPE4A615TE098.pdf  0000248EASPACER,SLEEVE        PARFMQ1N100
SPE4A615TE1028140002327037                                    005636686812/26/14SPE4A615TE102.pdf  0000074EAHANDLE,CRADLE        PARFJG1N100
SPE4A615TE1045120003642857                                    005636827712/26/14SPE4A615TE104.pdf  0000009EATOOL,CRIMPING        PARFMD1N100
SPE4A615TE1125365004143973                                    005636651512/26/14SPE4A615TE112.pdf  0000329EASPACER,SLEEVE        PARFML1N100
SPE4A615TE1202835010040554                                    005636587412/26/14SPE4A615TE120.pdf  0000005EAHOUSING,GOVERNOR,GE  PARFMM1N100
SPE4A615TE1275342010765544                                    005636859212/26/14SPE4A615TE127.pdf  0000032EALATCH                PARFMG1Y100
SPE4A615TE1305342010115190                                    005636633412/26/14SPE4A615TE130.pdf  0000008EALATCH,CHASSIS        PARFML1N100
SPE4A615TE1315820010910834                                    005636726012/26/14SPE4A615TE131.pdf  0000009EATERMINATION UNIT     PARFJG1N100
SPE4A615TE1495342011300183                                    005636592712/26/14SPE4A615TE149.pdf  0000037EALATCH                PARFMD1N100
SPE4A615TE1566620011560714                                    005636766012/26/14SPE4A615TE156.pdf  0000008EATRANSMITTER,PRESSUR  PARFJD1N100
SPE4A615TE1656680010931444                                    005636661812/26/14SPE4A615TE165.pdf  0000008EATRANSMITTER,LIQUID   PARFJP1N100
SPE4A615TE1976685012193310                                    005636835912/26/14SPE4A615TE197.pdf  0000026EAGAGE,PRESSURE,DIAL   PARFJH1N100
SPE4A615TE1995365011580261                                    005636801312/26/14SPE4A615TE199.pdf  0000026EARING                 PARFMD1N100
SPE4A615TE2015342011685388                                    005636770012/26/14SPE4A615TE201.pdf  0000045EAISOLATOR             PARFML1N100
SPE4A615TE2106620012786952                                    005636675112/26/14SPE4A615TE210.pdf  0000009EATRANSMITTER,PRESSURE PARFJQ1N100
SPE4A615TE2135365012889102                                    005636724912/26/14SPE4A615TE213.pdf  0000476EASPACER,RING          PARFML1N100
SPE4A615TE2156340013262524                                    005636683712/26/14SPE4A615TE215.pdf  0000002EAANNUNCIATOR          PARFMD1N100
SPE4A615TE2306680013004825                                    005636582912/26/14SPE4A615TE230.pdf  0000008EASWITCH,LIQUID LEVEL  PARFJH1N100
SPE4A615TE2376680013158602                                    005636612512/26/14SPE4A615TE237.pdf  0000018EATACHOMETER,ELECTRIC  PARFJH1N100
SPE4A615TE2475855013517313                                    005609776312/26/14SPE4A615TE247.pdf  0000069EARING,RETAINING,OPTI  PARFJG1Y100
SPE4A615TE2556685013778150                                    005636771212/26/14SPE4A615TE255.pdf  0000012EATHERMOSTAT,FLOW CON  PARFJP1N100
SPE4A615TE2616695013840127                                    005636712312/26/14SPE4A615TE261.pdf  0000009EATRANSDUCER,MOTIONAL  PARFJD1N100
SPE4A615TE2665940013498375                                    005636846112/26/14SPE4A615TE266.pdf  0000052EATERMINAL,LUG         PARFJD1N100
SPE4A615TE2686210013833135                                    005636712912/26/14SPE4A615TE268.pdf  0000035EALIGHT,INDICATOR      PARFKQ1N100
SPE4A615TE2945365013956120                                    005636647212/26/14SPE4A615TE294.pdf  0000221EASPACER,RING          PARFMH1N100
SPE4A615TE2956695013965390                                    005636640512/26/14SPE4A615TE295.pdf  0000003EATRANSDUCER,MOTIONAL  PARFJH1N100
SPE4A615TE3076210014702956                                    005636760712/26/14SPE4A615TE307.pdf  0000056EALENS,LIGHT           PARFKQ1N100
SPE4A615TE3146625013756936                                    005636795812/26/14SPE4A615TE314.pdf  0000009EAVOLTMETER            PARFJD1N100
SPE4A615TE3156150015092298                                    005636888212/26/14SPE4A615TE315.pdf  0000009EACABLE ASSEMBLY,SPEC  PARFKZ1N100
SPE4A615TE3216680014388027                                    005636866812/26/14SPE4A615TE321.pdf  0000018EAMETER,FLOW RATE IND  PARFJC1N100
SPE4A615TE3226150013817168                                    005636750112/26/14SPE4A615TE322.pdf  0000008EACABLE ASSEMBLY,SPEC  PARFKC1N100
SPE4A615TE3256645014739179                                    005636860612/26/14SPE4A615TE325.pdf  0000012EATIMER,SEQUENTIAL     PARFJD1N100
SPE4A615TE3266685013837450                                    005636712712/26/14SPE4A615TE326.pdf  0000020EATRANSMITTER,TEMPERA  PARFJQ1N100
SPE4A615TE3435365014698629                                    005636760412/26/14SPE4A615TE343.pdf  0000042EABUSHING BLANK        PARFMG1N100
SPE4A615TE3456150015516599                                    005636685912/26/14SPE4A615TE345.pdf  0000025EALEAD,STORAGE BATTER  PARFKD1N100
SPE4A615TE3486680014257347                                    005636925112/26/14SPE4A615TE348.pdf  0000008EAINDICATOR,SIGHT,LIQ  PARFJH1N100
SPE4A615TE3565365015205736                                    005636532912/26/14SPE4A615TE356.pdf  0000215EAPLUG,MACHINE THREAD  PARFML1N100
SPE4A615TE3586150015123399                                    005636741212/26/14SPE4A615TE358.pdf  0000069EACABLE ASSEMBLY,SPEC  PARFKG1Y100
SPE4A615TE3665365014729771                                    005636881912/26/14SPE4A615TE366.pdf  0000088EASPACER,SLEEVE        PARFMG1Y100
SPE4A615TE3795895015757837                                    005636857012/26/14SPE4A615TE379.pdf  0000018EACOMPUTER SUBASSEMBL  PARFJZ1N100
SPE4A615TE3815342015162336                                    005636786412/26/14SPE4A615TE381.pdf  0000007EAMOUNT,RESILIENT,WEA  PARFMD1N100
SPE4A615TE3886685015109386                                    005636752212/26/14SPE4A615TE388.pdf  0000019EAGAGE,ABSOLUTE PRESS  PARFJQ1N100
SPE4A615TE3956240015420825                                    005636924912/26/14SPE4A615TE395.pdf  0000127EALAMP,INCANDESCENT    PARFKQ1N100
SPE4A615TE3975940015061319                                    005636917412/26/14SPE4A615TE397.pdf  0000340EATERMINAL,LUG         PARFJD1N100
SPE4A615TE4195365015739351                                    005636543412/26/14SPE4A615TE419.pdf  0000112EASPACER,PLATE         PARFMD1N100
SPE4A615TE4244010015483531                                    005636633012/26/14SPE4A615TE424.pdf  0000018EACHAIN ASSEMBLY,SING  PARFMD1N100
SPE4A615TE4295995015836762                                    005636640212/26/14SPE4A615TE429.pdf  0000018EACABLE ASSEMBLY,SPEC  PARFKQ1N100
SPE4A615TE4386685016099607                                    005636574912/26/14SPE4A615TE438.pdf  0000007EAGAGE,RECEIVER PRESS  PARFJQ1N100
SPE4A615TE4395895015927302                                    005636670912/26/14SPE4A615TE439.pdf  0000002EAMODULE,SYNCHRO-SERV  PARFJD1N100
SPE4A615TE4405831015657366                                    005636637212/26/14SPE4A615TE440.pdf  0000062EACONTROL,INTERCOMMUN  PARFJD1N100
SPE4A615TE4485365016276119                                    005636639712/26/14SPE4A615TE448.pdf  0000200EASHIM                 PARFMG1N100
SPE4A615TE4534920015585949                                    005636610912/26/14SPE4A615TE453.pdf  0000008EAHOSE ASSEMBLY,H.P.,  PARFMP1N100
SPE4A615TE4546685016284563                                    005636648412/26/14SPE4A615TE454.pdf  0000003EAINDICATOR,PRESSURE   PARFJD1N100
SPE4A615TE4595995016288365                                    005636686712/26/14SPE4A615TE459.pdf  0000001EACABLE ASSEMBLY,RADI  PARFKB1N100
SPE4A615TE4636685016066754                                    005636618512/26/14SPE4A615TE463.pdf  0000016EADAMPENER,FLUID PRES  PARFJG1N100
SPE4A615TE4666685015832893                                    005636647112/26/14SPE4A615TE466.pdf  0000020EAPROBE,HUMIDITY-TEMP  PARFJQ1N100
SPE4A615TE4705895015926431                                    005636677112/26/14SPE4A615TE470.pdf  0000002EACONVERTER,SIGNAL DA  PARFJC1N100
SPE4A615TE4726150015842762                                    005636634112/26/14SPE4A615TE472.pdf  0000036EACABLE ASSEMBLY,POWE  PARFKD1N100
SPE4A615TE4846150016051563                                    005636565612/26/14SPE4A615TE484.pdf  0000024EAWIRING HARNESS       PARFKD1N100
SPE4A615TE4866150016071197                                    005636607712/26/14SPE4A615TE486.pdf  0000007EAWIRING HARNESS       PARFKD1N100
SPE4A615TE5014925016281328                                    005636694312/26/14SPE4A615TE501.pdf  0000024EAGATE,UNLOAD          PARFMC1N100
SPE4A615TE5075940016314518                                    005636758812/26/14SPE4A615TE507.pdf  0000013EACOVER,TERMINAL BOAR  PARFJD1N100
SPE4A615TE5146240001522985                                    005636907812/26/14SPE4A615TE514.pdf  0002221EALAMP,FLUORESCENT     PARFKG1Y100
SPE4A615TE5176685004918166                                    005636973312/26/14SPE4A615TE517.pdf  0000007EATHERMOMETER,INDICAT  PARFJD1N100
SPE4A615TE5196685001362462                                    005636900512/26/14SPE4A615TE519.pdf  0000018EATHERMOMETER,INDICAT  PARFJD1N100
SPE4A615TE5246660005534641                                    005636992212/26/14SPE4A615TE524.pdf  0000154EABALLOON,METEOROLOGI  PARFJR1Y100
SPE4A615TE5455995010540326                                    005636988312/26/14SPE4A615TE545.pdf  0000002EACABLE ASSEMBLY,SPEC  PARFKG1N100
SPE4A615TE5615342011424382                                    005636882612/26/14SPE4A615TE561.pdf  0000009EALATCH,TRIPPER BAR    PARFMR1N100
SPE4A615TE5655365012664081                                    005636957412/26/14SPE4A615TE565.pdf  0000112EASHIM                 PARFMR1N100
SPE4A615TE5826685012323895                                    005637034712/26/14SPE4A615TE582.pdf  0000009EATHERMOMETER,SELF-IN  PARFJD1N100
SPE4A615TE5836680012117187                                    005636993812/26/14SPE4A615TE583.pdf  0000005EAINDICATOR,SIGHT,LIQ  PARFJD1N100
SPE4A615TE5886645014229672                                    005636933612/26/14SPE4A615TE588.pdf  0000007EATIMER,INTERVAL       PARFJH1N100
SPE4A615TE5926680012357462                                    005636950112/26/14SPE4A615TE592.pdf  0000007EAMETER,FLUID FLOW IN  PARFJD1N100
SPE4A615TE6006220013547381                                    005636947812/26/14SPE4A615TE600.pdf  0000005EALIGHT,NAVIGATIONAL,  PARFKL1N100
SPE4A615TE6025940013597221                                    005636880112/26/14SPE4A615TE602.pdf  0003029EATERMINAL,QUICK DISC  PARFJL1N100
SPE4A615TE6044010012441345                                    005637042712/26/14SPE4A615TE604.pdf  0000007EACHAIN SPECIAL        PARFMQ1N100
SPE4A615TE6055365014742190                                    005636860412/26/14SPE4A615TE605.pdf  0000007EAPLUG,MACHINE THREAD  PARFMD1N100
SPE4A615TE6085342011404676                                    005636840612/26/14SPE4A615TE608.pdf  0000029EAPLUG                 PARFMD1N100
SPE4A615TE6095365012654921                                    005636987112/26/14SPE4A615TE609.pdf  0000112EASHIM                 PARFMQ1N100
SPE4A615TE6376645014320052                                    005636996812/26/14SPE4A615TE637.pdf  0000020EACLOCK,WALL           PARFJD1N100
SPE4A615TE6395975012773512                                    005637027112/26/14SPE4A615TE639.pdf  0000004EAGEARBOX ASSEMBLY     PARFJC1N100
SPE4A615TE6544920015072787                                    005636908712/26/14SPE4A615TE654.pdf  0000019EAHOSE ASSY-8X19,AIRC  PARFMD1N100
SPE4A615TE6625365015462421                                    005636990312/26/14SPE4A615TE662.pdf  0000417EASHIM                 PARFMC1N100
SPE4A615TE6686150015331182                                    005637047812/26/14SPE4A615TE668.pdf  0000044EACABLE ASSEMBLY,THER  PARFKZ1N100
SPE4A615TE6726150015744081                                    005637053012/26/14SPE4A615TE672.pdf  0000209EAAIR COMPRESSOR,PURI  PARFKD1N100
SPE4A615TE6766210012375782                                    005636944312/26/14SPE4A615TE676.pdf  0000051EALENS,LIGHT           PARFKR1N100
SPE4A615TE6796320015820161                                    005636970312/26/14SPE4A615TE679.pdf  0000500EAINDICATOR,ANGLE      PARFMD1N100
SPE4A615TE6966150015764899                                    005636928612/26/14SPE4A615TE696.pdf  0000014PGBUS,CONDUCTOR        PARFKQ1N100
SPE4A615TE7026685015820117                                    005636970412/26/14SPE4A615TE702.pdf  0000009EATHERMOCOUPLE,HEATIN  PARFJQ1N100
SPE4A615TE7083110014889762                                    005637000712/26/14SPE4A615TE708.pdf  0000003EABEARING,BALL,ANNULA  PARAVG1N100
SPE4A615TE7094925014285790                                    005636955012/26/14SPE4A615TE709.pdf  0000002EALOADING SYSTEM,AMMUNIPARFMY1N100
SPE4A615TE7276240015419715                                    005636925012/26/14SPE4A615TE727.pdf  0000025EALAMP,METAL HALIDE    PARFKL1N100
SPE4A615TE7315365015462224                                    005636990412/26/14SPE4A615TE731.pdf  0000182EASHIM                 PARFMD1N100
SPE4A615TF9135342000732936                                    005647660612/30/14SPE4A615TF913.pdf  0000020EAMOUNT,RESILIENT,WEAPOPARFMD1N100
SPE4A615TF9145995011008432                                    005645942012/30/14SPE4A615TF914.pdf  0000038EACABLE ASSEMBLY,SPEC  PARFKB1N100
SPE4A615TF9156680001386700                                    005647641412/30/14SPE4A615TF915.pdf  0000005EATRANSMITTER,LIQUID   PARFJQ1N100
SPE4A615TF9166620007124425                                    005647641012/30/14SPE4A615TF916.pdf  0000001EABACK PLATE ASSEMBLY  PARFJP1N100
SPE4A615TF9176610012324421                                    005645831212/30/14SPE4A615TF917.pdf  0000002EAANEROID SUBASSEMBLY  PARFJD1N100
SPE4A615TF9185130007165576                                    005647641612/30/14SPE4A615TF918.pdf  0000001EANOSE ASSEMBLY        PARFMZ1N100
SPE4A615TF9195975013876289                                    005647640512/30/14SPE4A615TF919.pdf  0000123EATOP-PACKING          PARFJD1N100
SPE4A615TF9205365014090255                                    005642289112/30/14SPE4A615TF920.pdf  0000007EAPLUG,MACHINE THREAD  PARFMG1Y100
SPE4A615TF9213120011384654                                    005644119612/30/14SPE4A615TF921.pdf  0000001EABUSHING,SLEEVE       PARAVD1N100
SPE4A615TF9226340012814281                                    005642805112/30/14SPE4A615TF922.pdf  0000016EASENSOR,OPAQUE PARTI  PARFMB1N100
SPE4A615TF9236150015337202                                    005643803112/30/14SPE4A615TF923.pdf  0000016EACABLE ASSEMBLY,SPEC  PARFKC1N100
SPE4A615TF9245365014559656                                    005644223012/30/14SPE4A615TF924.pdf  0000002EASHIM                 PARFMD1N100
SPE4A615TF9255940015794882                                    005636995712/30/14SPE4A615TF925.pdf  0003572EATERMINAL,LUG         PARFJB1N100
SPE4A615TF9265940015651009                                    005645854812/30/14SPE4A615TF926.pdf  0000018EATERMINAL JUNCTION B  PARFJD1N100
SPE4A615TF9275826016030511                                    005636560612/30/14SPE4A615TF927.pdf  0000001EABEACON,RADIO         PARFJH1N100
SPE4A615TF9286340011253149                                    005642786012/30/14SPE4A615TF928.pdf  0000007EASENSING ELEMENT,FIRE PARFMC1Y100
SPE4A615TF9295995014446376                                    005647640812/30/14SPE4A615TF929.pdf  0000374EALEAD,ELECTRICAL      PARFKG1N100
SPE4A615TF9306150015334977                                    005637031612/30/14SPE4A615TF930.pdf  0000005EAWIRING HARNESS,BRAN  PARFKL1N100
SPE4A615TF9315365008654562                                    005640800212/30/14SPE4A615TF931.pdf  0000496EASPACER,SLEEVE        PARFMQ1Y100
SPE4A615TF9335855016096839                                    005643971912/30/14SPE4A615TF933.pdf  0000003EARECEIVER,INFRARED    PARFJD1N100
SPE4A615TF9345995015342497                                    005645848812/30/14SPE4A615TF934.pdf  0000012EACABLE ASSEMBLY,RADI  PARFKC1N100
SPE4A615TF9355365015478136                                    005629745312/30/14SPE4A615TF935.pdf  0000057EASHIM                 PARFMD1N100
SPE4A615TF9365342012811911                                    005619876412/30/14SPE4A615TF936.pdf  0000144EAKEEPER,PLATE,ELEVAT  PARFMG1N100
SPE4A615TF9375365012200346                                    005643837512/30/14SPE4A615TF937.pdf  0000379EASPACER,RING          PARFMG1N100
SPE4A615TF9386150016141189                                    005645759101/02/15SPE4A615TF938.pdf  0000015EACABLE ASSEMBLY,SPEC  PARFKG1N100
SPE4A615TF9395365016318924                                    005613861412/30/14SPE4A615TF939.pdf  0000125EABUSHING,SLEEVE       PARFMC1N100
SPE4A615TF9403120016175333                                    005644144612/30/14SPE4A615TF940.pdf  0000017EABEARING,WASHER,THRU  PARAVD1Y100
SPE4A615TF9413120010411901                                    005645471212/30/14SPE4A615TF941.pdf  0000002EABEARING,PLAIN,SELF-ALPARAVB1N100
SPE4A615TF9424010004659462                                    005645882312/30/14SPE4A615TF942.pdf  0000013EAWIRE ROPE ASSEMBLY,  PARFMC1N100
SPE4A615TF9435975011983016                                    005544919912/30/14SPE4A615TF943.pdf  0000800EAMOUNTING BASE,TIEDO  PARFJQ1N100
SPE4A615TF9446695011784137                                    005615246812/30/14SPE4A615TF944.pdf  0000007EATRANSDUCER,MOTIONAL  PARFJC1Y100
SPE4A615TF9456210012364220                                    005636944712/30/14SPE4A615TF945.pdf  0000041EALENS,LIGHT           PARFKD1N100
SPE4A615TF9465970013570070                                    005636938501/02/15SPE4A615TF946.pdf  0000084EAINSULATOR,WASHER     PARFKG1N100
SPE4A615TF9475995014135847                                    005643816201/02/15SPE4A615TF947.pdf  0000007EACABLE ASSEMBLY,SPEC  PARFKB1N100
SPE4A615TF9485940016076635                                    005642700212/30/14SPE4A615TF948.pdf  0000001EATERMINAL JUNCTION B  PARFJD1N100
SPE4A615TF9495970005840158                                    005626665812/30/14SPE4A615TF949.pdf  0002632EAINSULATOR,WASHER     PARFKG1N100
SPE4A615TF9505995010704908                                    005645915312/30/14SPE4A615TF950.pdf  0000109EACABLE ASSEMBLY,SPEC  PARFKC1N100
SPE4A615TF9515365011169735                                    005643955512/30/14SPE4A615TF951.pdf  0000117EASPACER,VANE          PARFMG1N100
SPE4A615TF9525895012895256                                    005645820712/30/14SPE4A615TF952.pdf  0000005EAPANEL,INDICATOR      PARFJC1Y100
SPE4A615TF9536220013711057                                    005643914112/30/14SPE4A615TF953.pdf  0000001EAPANEL,INDICATING,LI  PARFKC1N100
SPE4A615TF9545995016203383                                    005643951312/30/14SPE4A615TF954.pdf  0000001EACABLE ASSEMBLY,RADI  PARFKL1N100
SPE4A615TF9555365992197423                                    005636492412/30/14SPE4A615TF955.pdf  0000008EAPLUG,MACHINE THREAD  PARFMQ1N100
SPE4A615TF9566150014448237                                    005592615612/30/14SPE4A615TF956.pdf  0000004EACABLE ASSEMBLY,POWE  PARFKG1Y100
SPE4A615TF9575975010156930                                    005644248512/30/14SPE4A615TF957.pdf  0000003EASTUFFING TUBE        PARFJG1N100
SPE4A615TF9584920015718293                                    005613823112/30/14SPE4A615TF958.pdf  0000033EASWIVEL 90 DEG ELBOW  PARFMD1N100
SPE4A615TF9595855015933831                                    005643936712/30/14SPE4A615TF959.pdf  0000011EACAP,LENS             PARFJD1N100
SPE4A615TF9604030016303955                                    005636870012/30/14SPE4A615TF960.pdf  0000005EASTAKE,GUY            PARFMP1N100
SPE4A615TF9613110011713789                                    005644249312/30/14SPE4A615TF961.pdf  0000001EABEARING,NEEDLE,INLE  PARAVB1N100
SPE4A615TF9626150015560515                                    005636545412/30/14SPE4A615TF962.pdf  0000001EACABLE ASSEMBLY,SPEC  PARFKP1N100
SPE4A615TF9636150015560517                                    005640722412/30/14SPE4A615TF963.pdf  0000001EAWIRING HARNESS       PARFKP1N100
SPE4A615TF9645365014748513                                    005644261812/30/14SPE4A615TF964.pdf  0000004EASPACER,RING          PARFMD1N100
SPE4A615TF9655365014751184                                    005644261712/30/14SPE4A615TF965.pdf  0000002EABUSHING,NONMETALLIC  PARFMD1N100
SPE4A615TF9666680012202936                                    005644267812/30/14SPE4A615TF966.pdf  0000001EAGAGE,LIQUID QUANTIT  PARFJC1N100
SPE4A615TF9676635016279173                                    005644244812/30/14SPE4A615TF967.pdf  0000001EACAMERA,INFRARED,IND  PARFJQ1N100
SPE4A615TF9683120014750042                                    005644265212/30/14SPE4A615TF968.pdf  0000002EABUSHING,SLEEVE       PARAVD1N100
SPE4A615TF9695365014748515                                    005644261912/30/14SPE4A615TF969.pdf  0000004EASPACER,RING          PARFMD1N100
SPE4A615TF9705365014748517                                    005644262012/30/14SPE4A615TF970.pdf  0000002EASPACER,RING          PARFMD1N100
SPE4A615TF9716150015996060                                    005644255612/30/14SPE4A615TF971.pdf  0000001EAWIRING HARNESS       PARFKC1N100
SPE4A615TF9726685015506631                                    005609318712/30/14SPE4A615TF972.pdf  0000002EATHERMOMETER,INDICAT  PARFJD1N100
SPE4A615TF9736660015734079                                    005594713312/30/14SPE4A615TF973.pdf  0000005EACASE,CARRYING,WEATH  PARFJQ1N100
SPE4A615TF9746150016020977                                    005644261512/30/14SPE4A615TF974.pdf  0000008EACABLE ASSEMBLY,SPEC  PARFKD1N100
SPE4A615TF9755365014390836                                    005644255712/30/14SPE4A615TF975.pdf  0000018EASPACER,SPECIAL SHAP  PARFMD1N100
SPE4A615TF9766320011064414                                    005636725612/30/14SPE4A615TF976.pdf  0000009EAINDICATOR,SHIP'S DR  PARFMC1Y100
SPE4A615TF9775365012962766                                    005636724412/30/14SPE4A615TF977.pdf  0000009EASPACER,PLATE         PARFMQ1N100
SPE4A615TF9785995016203445                                    005622458601/02/15SPE4A615TF978.pdf  0000001EACABLE ASSEMBLY,RADI  PARFKD1N100
SPE4A615TF9796240013920455                                    005643880012/30/14SPE4A615TF979.pdf  0000012EALAMP ASSEMBLY        PARFKD1N100
SPE4A615TF9805995016285876                                    005643851412/30/14SPE4A615TF980.pdf  0000004EACABLE ASSEMBLY,RADI  PARFKR1N100
SPE4A615TF9816150016082635                                    005454136812/30/14SPE4A615TF981.pdf  0000002EACABLE ASSEMBLY,SPEC  PARFKG1N100
SPE4A615TF9826150015979431                                    005636573012/30/14SPE4A615TF982.pdf  0000001EAWIRING HARNESS,BRAN  PARFKD1N100
SPE4A615TF9835845145762319                                    005592667012/30/14SPE4A615TF983.pdf  0000002EATRANSDUCER SUBASSEM  PARFJD1N100
SPE4A615TF9846150016319450                                    005613904212/30/14SPE4A615TF984.pdf  0000004EAWIRING HARNESS,BRAN  PARFKG1N100
SPE4A615TF9851450002508822                                    005645749712/30/14SPE4A615TF985.pdf  0000027EAADAPTER,HOOK         PARFMG1Y100
SPE4A615TF9866150015316291                                    005561567112/30/14SPE4A615TF986.pdf  0000003EACABLE ASSEMBLY,POWE  PARFKG1N100
SPE4A615TF9875365015656136                                    005638324312/30/14SPE4A615TF987.pdf  0000034EASPACER,PLATE         PARFMG1N100
SPE4A615TF9886150015290191                                    005638371401/02/15SPE4A615TF988.pdf  0000035EACABLE ASSEMBLY,SPEC  PARFKZ1N100
SPE4A615TF9896210014770841                                    005644333001/02/15SPE4A615TF989.pdf  0000001EALENS,LIGHT           PARFKC1N100
SPE4A615TF9906635015306775                                    005586713412/30/14SPE4A615TF990.pdf  0000001EAPROBE,EDDY CURRENT   PARFJD1N100
SPE4A615TF9915365002501260                                    005636758112/30/14SPE4A615TF991.pdf  0000343EASPACER,RING          PARFMG1N100
SPE4A615TF9921560003590628                                    005636827912/30/14SPE4A615TF992.pdf  0000004EAFORMER,AIRCRAFT      PARFMG1Y100
SPE4A615TF9931560015034084                                    005636847112/30/14SPE4A615TF993.pdf  0000004EASUPPORT,STRUCTURAL   PARFMK1N100
SPE4A615TF9946150015464657                                    005636663112/30/14SPE4A615TF994.pdf  0000012EALEAD,STORAGE BATTER  PARFKL1N100
SPE4A615TF9956680016199806                                    005548461212/30/14SPE4A615TF995.pdf  0000001EAMETER,FLOW RATE IND  PARFJZ1N100
SPE4A615TF9965342016316257                                    005627072412/30/14SPE4A615TF996.pdf  0000001EAPLATE,MOUNTING       PARFMG1N100
SPE4A615TF9975995015799574                                    005636995812/30/14SPE4A615TF997.pdf  0000003EACABLE ASSEMBLY,SPEC  PARFKZ1N100
SPE4A615TF9985995016210299                                    005643947912/30/14SPE4A615TF998.pdf  0000001EACABLE ASSEMBLY,SPEC  PARFKL1N100
SPE4A615TF9995995016330117                                    005619944312/30/14SPE4A615TF999.pdf  0000008EACABLE ASSEMBLY,SPEC  PARFKD1N100
SPE4A615TG0001560008597212                                    005636561612/30/14SPE4A615TG000.pdf  0000004EADOOR,ACCESS,AIRCRAF  PARFMG1Y100
SPE4A615TG0015342013127494                                    005636593312/30/14SPE4A615TG001.pdf  0000008EAMOUNT,RESILIENT,WEA  PARFMG1N100
SPE4A615TG0025995014117424                                    005544376212/30/14SPE4A615TG002.pdf  0000006EACABLE ASSEMBLY,RADI  PARFKG1N100
SPE4A615TG0036150013958310                                    005578927012/30/14SPE4A615TG003.pdf  0000005EACABLE ASSEMBLY,SPEC  PARFKG1N100
SPE4A615TG0045940005574981                                    005626937412/30/14SPE4A615TG004.pdf  0000103EATERMINAL BOARD       PARFJG1Y100
SPE4A615TG0055977002464910                                    005645928912/30/14SPE4A615TG005.pdf  0000361EABRUSH,ELECTRICAL CO  PARFKQ1C100
SPE4A615TG0065365011554586                                    005622112112/30/14SPE4A615TG006.pdf  0000046EASHIM                 PARFMG1N100
SPE4A615TG0075365008078288                                    005565059912/30/14SPE4A615TG007.pdf  0000579EASPACER,SLEEVE        PARFMG1N100
SPE4A615TG0085365015539486                                    005642382712/30/14SPE4A615TG008.pdf  0000051EASPACER,RING          PARFMD1N100
SPE4A615TG0095365011277889                                    005636536712/30/14SPE4A615TG009.pdf  0000048EARING,EXTERNALLY THR  PARFMD1N100
SPE4A615TG0105940011367091                                    005636828612/30/14SPE4A615TG010.pdf  0000008EACONTACT STRIP,RADIO  PARFJD1N100
SPE4A615TG0115365015564383                                    005636557512/30/14SPE4A615TG011.pdf  0000009EASPACER,SLEEVE        PARFMD1N100
SPE4A615TG0125975013857650                                    005640827212/30/14SPE4A615TG012.pdf  0000004ROCONDUIT,NONMETALLIC  PARFJQ1N100
SPE4A615TG0133120015279862                                    005645872912/30/14SPE4A615TG013.pdf  0000020EABEARING, PLAIN, ROD EPARAVB1N100
SPE4A615TG0145365012422760                                    005636349212/30/14SPE4A615TG014.pdf  0000020EASPACER,SLEEVE        PARFMG1N100
SPE4A615TG0154235015480871                                    005630187612/30/14SPE4A615TG015.pdf  0000048EASORBENT,OIL          PARFJZ1N100
SPE4A615TG0166695015607983                                    005622203012/30/14SPE4A615TG016.pdf  0000001EAPANEL,INDICATOR      PARFJD1N100
SPE4A615TG0175365002812187                                    005620068512/30/14SPE4A615TG017.pdf  0000017EARING,CONNECTING,ROU  PARFMG1Y100
SPE4A615TG0185365009274323                                    005637064012/30/14SPE4A615TG018.pdf  0025000EASHIM                 PARFMG1N100
SPE4A615TG0195940010704243                                    005644650412/30/14SPE4A615TG019.pdf  0000024EASPLICE,CONDUCTOR     PARFJL1N100
SPE4A615TG0204010015789794                                    005644439012/30/14SPE4A615TG020.pdf  0000011EAWIRE ROPE ASSEMBLY,  PARFMG1N100
SPE4A615TG0215365009280830                                    005637063812/30/14SPE4A615TG021.pdf  0000066EASPACER,RING          PARFMG1Y100
SPE4A615TG0225365010897734                                    005565053412/30/14SPE4A615TG022.pdf  0000067EASPACER,SLEEVE        PARFMG1N100
SPE4A615TG0235365012891922                                    005644794312/30/14SPE4A615TG023.pdf  0000002EASPACER,RING          PARFML1N100
SPE4A615TG0245365015602670                                    005648318212/30/14SPE4A615TG024.pdf  0001429EASPACER,STRAIGHT      PARFMD1N100
SPE4A615TG0256150013135404                                    005599150812/30/14SPE4A615TG025.pdf  0000020EALEAD,ELECTRICAL      PARFKD1N100
SPE4A615TG0266150015570035                                    005474115712/30/14SPE4A615TG026.pdf  0000003EACABLE ASSEMBLY,POWE  PARFKQ1N100
SPE4A615TG0276210014976133                                    005509677012/30/14SPE4A615TG027.pdf  0000001EALIGHT,INDICATOR      PARFKG1N100
SPE4A615TG0283120010475731                                    005645987312/30/14SPE4A615TG028.pdf  0000006EABEARING,PLAIN,ROD E  PARAVG1N100
SPE4A615U01273110004122624                                    005592804712/26/14SPE4A615U0127.pdf  0000062EABEARING,ROLLER,CYLINDPARAVC1N100
SPE4A615U01433110007643335                                    005637028112/30/14SPE4A615U0143.pdf  0000036EABEARING,BALL,ANNULAR PARAVC1N100
SPE4A615U01446210014732410                                    005636811612/30/14SPE4A615U0144.pdf  0000004EALIGHT ASSEMBLY,INDI  PARFKC1N100
SPE4A615U01456685001989398                                    005636680412/30/14SPE4A615U0145.pdf  0000018EATHERMOSTAT,FLOW CON  PARFJR1N100
SPE4A615U01465845010811763                                    005636842412/30/14SPE4A615U0146.pdf  0000020EADUMMY READOUT        PARFJR1N100
SPE4A615U01476695011574382                                    005636777312/30/14SPE4A615U0147.pdf  0000002EACALIBRATION SET,PRI  PARFJD1N100
SPE4A615U01486150009938075                                    005525439112/30/14SPE4A615U0148.pdf  0000003EACABLE ASSEMBLY,SPEC  PARFKG1N100
SPE4A615U01496685014231454                                    005636932012/30/14SPE4A615U0149.pdf  0000009EACONTROL,TEMPERATURE  PARFJH1N100
SPE4A615U01504920014287447                                    005637009112/30/14SPE4A615U0150.pdf  0000009EAFIXTURE,AIRCRAFT MA  PARFMC1N100
SPE4A715Q07361560015456578                                    005545046412/29/14SPE4A715Q0736.pdf  0000074EARIB,AIRFOIL          PARFEG1N100
SPE4A715Q07381680010502724                                    005449726401/02/15SPE4A715Q0738.pdf  0000022EACUSHION ASSEMBLY,BA  PARFVC1N100
SPE4A715Q07401670015778211                                    005427414712/30/14SPE4A715Q0740.pdf  0000012EAPACK TRAY,PERSONNEL  PARFVT1N100
SPE4A715Q07411560003617253                                    005644133512/24/14SPE4A715Q0741.pdf  0000011EAHINGE,AILERON ACTUA  PARDAG1Y100
SPE4A715Q07421560001723950                                    005605853501/05/15SPE4A715Q0742.pdf  0000006EATORQUE SCISSOR ASSE  PARFHC1Y100
SPE4A715Q07451560005572690                                    005607732801/05/15SPE4A715Q0745.pdf  0000044EAFLOOR,AIRCRAFT       PARFHG1Y100
SPE4A715T36611680005404418                                    005619982512/26/14SPE4A715T3661.pdf  0000006EASHAFT ASSEMBLY,FLEX  GPP97D1N100
SPE4A715T37231680012160491                                    005620291412/26/14SPE4A715T3723.pdf  0000061EAPARTS KIT,REGULATOR  GPP31D1N100
SPE4A715T40281560005319835                                    005623499712/26/14SPE4A715T4028.pdf  0000133EABUSHING ASSY,SUPPOR  PARFHP1N100
SPE4A715T41681650012259702                                    005628183312/26/14SPE4A715T4168.pdf  0000021EAFILTER BODY,FLUID    GSV51B1N100
SPE4A715T41701650013069193                                    005628189112/26/14SPE4A715T4170.pdf  0000021EAFILTER ELEMENT,FLUI  PARDAP1N100
SPE4A715T42081560013130195                                    005620465512/26/14SPE4A715T4208.pdf  0000028EAFAIRING,HINGE PIN    PARDAQ1N100
SPE4A715T42171680011959868                                    005629083612/26/14SPE4A715T4217.pdf  0000003EAGRIP,RIGHT HAND LEV  GPA93H1N100
SPE4A715T42191560015612637                                    005626641912/26/14SPE4A715T4219.pdf  0000005EAAMAD ID PLATE        GSV51D1N100
SPE4A715T42211560007003986                                    005623604212/26/14SPE4A715T4221.pdf  0000003EAPIPE, EXHAUST        GSV51G1N100
SPE4A715T42231560014845356                                    005626823712/26/14SPE4A715T4223.pdf  0000003EACOVER,ACCESS,AIRCRA  PARDAG1Y100
SPE4A715T42241650013626901                                    005623603612/26/14SPE4A715T4224.pdf  0000015EAFILTER BODY,FLUID    GSV51B1N100
SPE4A715T42281560001815270                                    005597476012/26/14SPE4A715T4228.pdf  0000002EAPAN ASSEMBLY,INDUCT  GSV51G1N100
SPE4A715T42381680010914134                                    005629867412/26/14SPE4A715T4238.pdf  0000006EABUNDLE,LANDING GEAR  PARDAG1Y100
SPE4A715T42421560013523949                                    005629818212/26/14SPE4A715T4242.pdf  0000009EASPAR,AIRCRAFT        PARDAG1R100
SPE4A715T42461680016018983                                    005629836812/26/14SPE4A715T4246.pdf  0000005EAARMREST,AIRCRAFT     PARDAC1N100
SPE4A715T42491560016305966                                    005613855812/26/14SPE4A715T4249.pdf  0000032EASEAL,INFLATABLE,WIN  PARDAG1N100
SPE4A715T42931560016162921                                    005632005112/26/14SPE4A715T4293.pdf  0000006EAHEAT SHIELD,EXHAUST  GSV51Q1N100
SPE4A715T43051650009332404                                    005617578612/26/14SPE4A715T4305.pdf  0000003EAPARTS KIT,LINEAR AC  PARDAG1N100
SPE4A715T43061650007847963                                    005617578712/26/14SPE4A715T4306.pdf  0000003EAPARTS KIT,LINEAR AC  PARDAG1N100
SPE4A715T43121680007546057                                    005632037012/26/14SPE4A715T4312.pdf  0000002EAPARTS KIT,ELECTRO-M  PARDAG1Y100
SPE4A715T43251560000980757                                    005617585112/26/14SPE4A715T4325.pdf  0000002EAMECHANISM ASSY       PARDAQ1N100
SPE4A715T43301560015015716                                    005608275912/26/14SPE4A715T4330.pdf  0000009EALONGERON             PARDAG1N100
SPE4A715T43551560015881177                                    005633438112/26/14SPE4A715T4355.pdf  0000004EABALANCE WEIGHT,RUDD  PARFHG1N100
SPE4A715T44771560005759348                                    005636893312/26/14SPE4A715T4477.pdf  0000016EASUPPORT,STRUCTURAL   PARFHG1Y100
SPE4A715T44781680005935015                                    005636850112/26/14SPE4A715T4478.pdf  0000016EAPLATE,MOTOR MOUNTIN  PARFHQ1N100
SPE4A715T44851560008066558                                    005636871712/26/14SPE4A715T4485.pdf  0000002EADOOR,ACCESS          PARFHP1N100
SPE4A715T45631650007165899                                    005637002512/26/14SPE4A715T4563.pdf  0000290EADISK,THERMOSTAT      PARFHD1N100
SPE4A715T52951560015727862                                    005637043212/30/14SPE4A715T5295.pdf  0000004EASKIN,AIRCRAFT        PARFHG1N100
SPE4A715T52981670004637478                                    005642384712/30/14SPE4A715T5298.pdf  0000207EAFITTING CARGO        PARFHC1N100
SPE4A715T53001560000750826                                    005645809612/30/14SPE4A715T5300.pdf  0000002EAPANEL ASSEMBLY       PARFHM1Y100
SPE4A715T53021680012489779                                    005645837212/30/14SPE4A715T5302.pdf  0000010EAARMREST,OBSERVER     PARFHQ1N100
SPE4A715T53031680012378888                                    005645850901/02/15SPE4A715T5303.pdf  0000005EAPANEL,CONTROL,ELECT  PARDAG1Y100
SPE4A715T53041680016175508                                    005645779401/02/15SPE4A715T5304.pdf  0000003EAPARTS KIT,SEAL REPL  PXRCAC1N100
SPE4A715T53052945007173545                                    005645819012/30/14SPE4A715T5305.pdf  0000053EAADAPTER,OIL FILTER   PARFHG1N100
SPE4A715T53081680010036186                                    005645789101/02/15SPE4A715T5308.pdf  0000009EACONTROL ASSEMBLY,RU  PARDAG1N100
SPE4A715T53092915003226686                                    005545012012/30/14SPE4A715T5309.pdf  0000149EAPARTS KIT,VALVE,CUR  PARFHC1Y100
SPE4A715T53101560003314829                                    005642764512/30/14SPE4A715T5310.pdf  0000739EASPRING,COVE LIP,DOO  PARFHP1N100
SPE4A715T53111560008771853                                    005645833301/02/15SPE4A715T5311.pdf  0000003EACOUPLING ASSEMBLY,F  PARDAG1Y100
SPE4A715T53141560010150212                                    005645791712/30/14SPE4A715T5314.pdf  0000031EACLIP,TIE             PARFHG1N100
SPE4A715T53151650011163036                                    005645943501/02/15SPE4A715T5315.pdf  0000032EAPISTON,HYDRAULIC AC  PARDAQ1Y100
SPE4A715T53161560011775055                                    005580383912/30/14SPE4A715T5316.pdf  0000093EASUPPORT,STRUCTURAL   PARFHG1N100
SPE4A715T53171560011999815                                    005638340512/30/14SPE4A715T5317.pdf  0000008EASUPPORT,STRUCTURAL   PARFHG1Y100
SPE4A715T53201650015679784                                    005645879901/02/15SPE4A715T5320.pdf  0000006EACYLINDER BLOCK,HYDR  PARDAD1N100
SPE4A715T53211620010114556                                    005646007401/02/15SPE4A715T5321.pdf  0000003EAARM ASSEMBLY,TORQUE  GSV51G1N100
SPE4A715T53221560004097055                                    005636800312/30/14SPE4A715T5322.pdf  0000008EAFORMER,AIRCRAFT      PARFHG1Y100
SPE4A715T53231560008868607                                    005643077112/30/14SPE4A715T5323.pdf  0000005EAPANEL ASSEMBLY,FAIR  PARFHG1Y100
SPE4A715T53241560014719279                                    005626894201/02/15SPE4A715T5324.pdf  0000004EAFUEL QUANTITY PROBE  GSV51C1N100
SPE4A715T53271680014816319                                    005642392101/02/15SPE4A715T5327.pdf  0000002EAATS CLUSTER GEAR,AI  PARDAD1N100
SPE4A715T53281680015791389                                    005645802201/02/15SPE4A715T5328.pdf  0000048EASPLICE,FORMER CAP,A  PARDAC1N100
SPE4A715T53291560016280857                                    005644282412/30/14SPE4A715T5329.pdf  0000001EAFITTING,STRUCTURAL   PARFHP1N100
SPE4A715T53341560014420218                                    005640746901/02/15SPE4A715T5334.pdf  0000018EAWINDOW PANEL,AIRCRA  GSV51C1N100
SPE4A715T53351560016297849                                    005636558712/30/14SPE4A715T5335.pdf  0000001EAFAIRING,AIRCRAFT     PARFHG1N100
SPE4A715T53361560001024928                                    005643774412/30/14SPE4A715T5336.pdf  0000003EARAIL,LOGISTIC,CARGO  PARFHG1Y100
SPE4A715T53371560008297020                                    005636951801/02/15SPE4A715T5337.pdf  0000015EATURNBARREL,PUSH RO   PARDAC1N100
SPE4A715T53381660001463353                                    005598468101/02/15SPE4A715T5338.pdf  0000010EADUCT ASSEMBLY,AIR C  PARDAG1N100
SPE4A715T53391560010381862                                    005636999401/02/15SPE4A715T5339.pdf  0000004EASUPPORT,AILERON CON  PARDAC1Y100
SPE4A715T53401560007102391                                    005636962501/02/15SPE4A715T5340.pdf  0000004EASPRING ASSEMBLY,AIL  PARDAG1Y100
SPE4A715T53411620010161868                                    005636601101/02/15SPE4A715T5341.pdf  0000153EADRAG LINK,LANDING G  PARDAC1Y100
SPE4A715T53421560009079296                                    005638356301/02/15SPE4A715T5342.pdf  0000005EASKIN,AIRCRAFT        PARDAG1Y100
SPE4A715T53431560010111973                                    005545398901/02/15SPE4A715T5343.pdf  0000013EARETAINER,DUCT SEAL   PARDAG1N100
SPE4A715T53441660013690326                                    005645899112/30/14SPE4A715T5344.pdf  0000009EADUCT ASSEMBLY,AIR C  PARFHC1N100
SPE4A715T53471560014680548                                    005645896501/02/15SPE4A715T5347.pdf  0000004EARIB,AILERON          PARDAC1Y100
SPE4A715T53491560014550901                                    005647992212/30/14SPE4A715T5349.pdf  0000037EAWEB,STRUCTURAL COMP  PARFHG1Y100
SPE4A715T53511680015785857                                    005620386701/02/15SPE4A715T5351.pdf  0000062EABLANKET,HEAT,ACF     PARDAC1N100
SPE4A715T53521620005449989                                    005550887301/02/15SPE4A715T5352.pdf  0000653EAROLLER ASSY,UPLOCK   PARDAG1Y100
SPE4A715T53531560011774333                                    005563278412/30/14SPE4A715T5353.pdf  0000014EAFITTING,ANCHOR       PARFHG1Y100
SPE4A715T53541620011190666                                    005648000901/02/15SPE4A715T5354.pdf  0000682EASUPPORT,SPRING,DOWN  PARDAC1Y100
SPE4A715T53571560014936743                                    005648057201/02/15SPE4A715T5357.pdf  0000016EAFORMER,AIRCRAFT      PARDAG1R100
SPE4A715T53581560015280211                                    005618059401/02/15SPE4A715T5358.pdf  0000002EADISK ABRASIVE 2NH A  GSV51D1N100
SPE4A715T53591560013927342                                    005619799512/30/14SPE4A715T5359.pdf  0000004EADOOR,AIRCRAFT        PARFHG1Y100
SPE4A715T53621650004679011                                    005648165201/02/15SPE4A715T5362.pdf  0000003EAPLUG SPECIAL         PXRCAQ1N100
SPE4A715T53671560014497718                                    005643849801/02/15SPE4A715T5367.pdf  0000004EACHANNEL,AIRCRAFT     PARDAG1N100
SPE4A715T53681680015189520                                    005638329601/02/15SPE4A715T5368.pdf  0000013EAPAD,SCUFF            PARDAG1N100
SPE4A715T53711680014716459                                    005636870901/02/15SPE4A715T5371.pdf  0000008EAPANEL,CONTROL,ELECT  PARDAG1Y100
SPE4A715U00861560016296458                                    005636707812/30/14SPE4A715U0086.pdf  0000002EAFAIRING,AIRCRAFT     PARFHG1N100
SPE4A715U00871560009341422                                    005631970801/02/15SPE4A715U0087.pdf  0000025EAHANDLE CYLINDER      GSV51Q1N100
SPE4A715U00881560009509916                                    005636518212/30/14SPE4A715U0088.pdf  0000006EAMAST,DRAIN,NACELLE   PARFHQ1N100
SPE4A715U00891560016296453                                    005636708012/30/14SPE4A715U0089.pdf  0000002EAFAIRING,AIRCRAFT     PARFHG1N100
SPE4AC15T00361560011373496                                    005627417712/26/14SPE4AC15T0036.pdf  0000001EASTRAP,PLATING,CABIN  PARCAC1N100
SPE4AC15T00391620004357840                                    005629370012/26/14SPE4AC15T0039.pdf  0000002EAEND CAP,POWER STEERINPARCAC1N100
SPE4AL15T01005995016263451                                    005644142601/02/15SPE4AL15T0100.pdf  0000001EACABLE ASSEMBLY,SPEC  PARESG1N100
SPE5E015T06215360012145148                                    005625148912/26/14SPE5E015T0621.pdf  0000001EASPRING,HELICAL,COMP  PAA69L1N100
SPE5E015T06355330013824343                                    005627097112/26/14SPE5E015T0635.pdf  0000002EASEAL,NONMETALLIC ST  PAA69G1N100
SPE5E015T06425306015649983                                    005624773712/26/14SPE5E015T0642.pdf  0000001EABOLT,MACHINE         PAA69R1N100
SPE5E015T06455340015928911                                    005627094912/26/14SPE5E015T0645.pdf  0000010EAPLATE,MOUNTING       PAA69D1N100
SPE5E015T06515305015334876                                    005627093812/26/14SPE5E015T0651.pdf  0000001FYSCREW,CAP,HEXAGON H  PAA69D1N100
SPE5E015T06535315015434944                                    005627088712/26/14SPE5E015T0653.pdf  0000001EAPIN,STRAIGHT,HEADED  PAA69D1N100
SPE5E015T06565310016169138                                    005624782312/26/14SPE5E015T0656.pdf  0000002EAWASHER,FLAT          PAA69L1N100
SPE5E015T06585340009711557                                    005628789512/26/14SPE5E015T0658.pdf  0000009EACATCH,ELBOW          PAA69G1N100
SPE5E015T06645306011993774                                    005597967712/26/14SPE5E015T0664.pdf  0000008EABOLT,SHEAR           PAA69G1N100
SPE5E015T07695305013428562                                    005647643201/02/15SPE5E015T0769.pdf  0000010EASCREW,CAP,SOCKET HE  PAA69G1N100
SPE5E015T07715305015401757                                    005549695301/02/15SPE5E015T0771.pdf  0000002EASCREW,CAP,HEXAGON H  PAA69G1N100
SPE5E015T07725315016033357                                    005551407801/02/15SPE5E015T0772.pdf  0000004EAPIN,STRAIGHT,THREAD  PAA69L1N100
SPE5E015T07735330015034192                                    005644267701/02/15SPE5E015T0773.pdf  0000001EAGASKET               PAA69R1N100
SPE5E015T07745315012180755                                    005644219301/02/15SPE5E015T0774.pdf  0000001EAPIN,STRAIGHT,HEADLE  PAA69H1N100
SPE5E015T07755320000527106                                    005627086901/02/15SPE5E015T0775.pdf  0000016EARIVET,SOLID          PAA69C1N100
SPE5E015T07765330015809930                                    005644240701/02/15SPE5E015T0776.pdf  0000004EAGASKET               PAA69P1N100
SPE5E015T07775320007021937                                    005644251901/02/15SPE5E015T0777.pdf  0000008EARIVET,BLIND          PAA69C1N100
SPE5E015T07785340015702708                                    005622227801/02/15SPE5E015T0778.pdf  0000001EABRACKET,SHELF        PAA69D1N100
SPE5E015T07795306015787437                                    005644271401/02/15SPE5E015T0779.pdf  0000008EABOLT,EXTERNALLY REL  PAA69D1N100
SPE5E015T07805310012693849                                    005644504201/02/15SPE5E015T0780.pdf  0000001EABELL,NUT             PAA69D1N100
SPE5E015T07815330004457865                                    005644482601/02/15SPE5E015T0781.pdf  0000002EAPACKING ASSEMBLY     PAA69R1N100
SPE5E015T07825310014631858                                    005644495901/02/15SPE5E015T0782.pdf  0000001EAWASHER,FLAT          PAA69G1N100
SPE5E015T07835315016001422                                    005648320301/02/15SPE5E015T0783.pdf  0000182EAPIN,STRAIGHT,HEADLE  PAA69D1N100
SPE5E015T07845310014991853                                    005648320601/02/15SPE5E015T0784.pdf  0000160EAWASHER,FLAT          PAA69D1N100
SPE5E015T07855360131205390                                    005648320101/02/15SPE5E015T0785.pdf  0000011EASPRING,HELICAL,TORS  PAA69R1N100
SPE5E215Q00875330009383237                                    005245029512/31/14SPE5E215Q0087.pdf  0000001EASEAL,PLAIN ENCASED   PHPHDD1N100
SPE5E215Q00905330012568515                                    005251270012/31/14SPE5E215Q0090.pdf  0000007EAGASKET               PHPHDC1N100
SPE5E215Q00925330001715902                                    005149571001/05/15SPE5E215Q0092.pdf  0001500EARETAINER,PACKING     KCM00G1N100
SPE5E215Q00935305015664156                                    005531688901/06/15SPE5E215Q0093.pdf  0000001EASCREW,ASSEMBLED WAS  PHPHBR1N100
SPE5E215Q00945305015664156                                    005531689001/06/15SPE5E215Q0094.pdf  0000001EASCREW,ASSEMBLED WAS  PHPHBR1N100
SPE5E215T31135305145536794                                    005626780112/26/14SPE5E215T3113.pdf  0000308EASCREW,CAP,SOCKET HE  PHPHBD1N100
SPE5E215T31775305008329849                                    005628220412/26/14SPE5E215T3177.pdf  0006859EASETSCREW             PHPHBP1Y100
SPE5E215T31875305009128866                                    005625147612/26/14SPE5E215T3187.pdf  0000002EASCREW,CAP,SOCKET HE  PHPHBG1N100
SPE5E215T31885305012636155                                    005625145412/26/14SPE5E215T3188.pdf  0000001HDSCREW,CAP,HEXAGON H  PHPHBG1N100
SPE5E215T31915305011216169                                    005628699912/26/14SPE5E215T3191.pdf  0000100EASCREW,MACHINE        PHPHBC1N100
SPE5E215T31965305012869780                                    005625172312/26/14SPE5E215T3196.pdf  0000100EASCREW,MACHINE        PHPHBZ1N100
SPE5E215T32275305010561483                                    005571375412/26/14SPE5E215T3227.pdf  0000009EASCREW,MACHINE        PHPHBG1N100
SPE5E215T32315305016043998                                    005626704212/26/14SPE5E215T3231.pdf  0000144EASCREW,CAP,SOCKET HE  PHPHBD1N100
SPE5E215T32325305015560514                                    005563774712/26/14SPE5E215T3232.pdf  0000100EASCREW,CAP,SOCKET HE  PHPHBR1N100
SPE5E215T32365305009014060                                    005627403512/26/14SPE5E215T3236.pdf  0000010EASCREW,CAP,SOCKET HE  PHPHBD1N100
SPE5E215T32395305015963633                                    005578773312/26/14SPE5E215T3239.pdf  0002381EASCREW,CAP,HEXAGON H  PHPHBG1N100
SPE5E215T32415305014840428                                    005625164412/26/14SPE5E215T3241.pdf  0000032EASCREW,CAP,HEXAGON H  PHPHBG1N100
SPE5E215T32425305014090181                                    005627487012/26/14SPE5E215T3242.pdf  0000002EASCREW,MACHINE        PHPHBG1N100
SPE5E215T32445305000044931                                    005629875312/26/14SPE5E215T3244.pdf  0000122EASCREW,CAP,SOCKET HE  PHPHBC1N100
SPE5E215T32555305013544229                                    005629818712/26/14SPE5E215T3255.pdf  0000050EASCREW,CAP,SOCKET HE  PHPHBG1N100
SPE5E215T32565305012574114                                    005629780912/26/14SPE5E215T3256.pdf  0000682EASCREW,CAP,HEXAGON H  PHPHBG1N100
SPE5E215T32575305014419781                                    005629845012/26/14SPE5E215T3257.pdf  0000155EASCREW,MACHINE        PHPHBD1N100
SPE5E215T32585305014769833                                    005629827512/26/14SPE5E215T3258.pdf  0001157EASCREW,CAP,SOCKET HE  PHPHBG1Y100
SPE5E215T32695305015245628                                    005628145912/26/14SPE5E215T3269.pdf  0000320EASCREW,CAP,SOCKET HE  PHPHBG1N100
SPE5E215T32785305011378937                                    005628735612/26/14SPE5E215T3278.pdf  0000001EASETSCREW             PHPHBG1N100
SPE5E215T32825305010304902                                    005595852112/26/14SPE5E215T3282.pdf  0000165EASCREW,CLOSE TOLERAN  PHPHBC1N100
SPE5E215T32835360014404888                                    005586407812/26/14SPE5E215T3283.pdf  0000337EASPRING,LEAF          PHPHBG1N100
SPE5E215T32865305015491862                                    005616118812/26/14SPE5E215T3286.pdf  0000002EASCREW,CAP,SOCKET HE  PHPHBZ1N100
SPE5E215T32915360015216081                                    005575746612/26/14SPE5E215T3291.pdf  0000118EASPRING,HELICAL,COMP  PHPHBG1N100
SPE5E215T32925305012819204                                    005575471612/26/14SPE5E215T3292.pdf  0000130EASCREW,SHOULDER       PHPHBC1N100
SPE5E215T33025305011813681                                    005583106112/26/14SPE5E215T3302.pdf  0000016EASCREW,LEAD,BALL BEA  PHPHBB1N100
SPE5E215T33035305014286603                                    005595156112/26/14SPE5E215T3303.pdf  0000008EASCREW,CAP,SOCKET HE  PHPHBG1N100
SPE5E215T33055305014721883                                    005580844612/26/14SPE5E215T3305.pdf  0000004EASCREW,CAP,SOCKET HE  PHPHBG1Y100
SPE5E215T33165305013360698                                    005632007912/26/14SPE5E215T3316.pdf  0000030EASCREW,CAP,SOCKET HE  PHPHBG1N100
SPE5E215T33175305012672962                                    005631929612/26/14SPE5E215T3317.pdf  0001880EASCREW,CAP,HEXAGON H  PHPHBR1N100
SPE5E215T33215305013844214                                    005631978312/26/14SPE5E215T3321.pdf  0000027EASCREW,CAP,HEXAGON H  PHPHBD1N100
SPE5E215T33325305014440594                                    005630189312/26/14SPE5E215T3332.pdf  0000002EASCREW,CAP,HEXAGON H  PHPHBR1N100
