SPE1C115T05128340015171557                                    005648952801/05/15SPE1C115T0512.pdf  0000008EATENT,COT             PXPT0G1N000
SPE1C115T05138415015410069                                    005643437501/05/15SPE1C115T0513.pdf  0000005PRGLOVES,MEN'S AND WO  PCPQBZ1N000
SPE1C115T05148405015289049                                    005633641701/05/15SPE1C115T0514.pdf  0000095EAPARKA,WET WEATHER    PCPQBB1N000
SPE1C115T05158465012768198                                    005649354601/05/15SPE1C115T0515.pdf  0000010EASNAP LINK,RAPPELLER  PCPQDH1N000
SPE1C115T05168340015719857                                    005649564401/05/15SPE1C115T0516.pdf  0000020EASTRUT,TENT TRANSOM   PCPQDG1N000
SPE2DH15T11296530011991969                                    005648458701/02/15SPE2DH15T1129.pdf  0000001EALITTER-SPLINT,EXTRI  PAA23Z1N000
SPE2DH15T11306680011746276                                    005649849901/02/15SPE2DH15T1130.pdf  0000026EAREGULATOR,PRESSURE,  PDPSHG1N000
SPE2DH15T11316640015888402                                    005648933501/02/15SPE2DH15T1131.pdf  0000001EACYLINDER,GRADUATED,  PDPSHZ1N000
SPE2DH15T11326520014998430                                    005649059401/02/15SPE2DH15T1132.pdf  0000001PGAPPLICATOR,BRUSH,DE  PDPSHZ1N000
SPE2DH15T11336640015089027                                    005649060001/02/15SPE2DH15T1133.pdf  0000003EAANALYZER,HEMOGLOBIN  PDPSHZ1N000
SPE2DH15T11346530001047532                                    005649201901/02/15SPE2DH15T1134.pdf  0000001ROTUBING,STERILIZATIO  PDPSHZ1N000
SPE2DH15T11356625014790278                                    005649207901/02/15SPE2DH15T1135.pdf  0000001EAKIT SMOKE FIT TEST   PDPSHZ1N000
SPE2DH15T11366640002900146                                    005649184901/02/15SPE2DH15T1136.pdf  0000001PGLITMUS PAPER,ACS     PDPSHZ1N000
SPE2DH15T11376640011079169                                    005649208401/02/15SPE2DH15T1137.pdf  0000002EADETERGENT,GLASSWARE  PDPSHZ1N000
SPE2DH15T11386640002998490                                    005649325301/02/15SPE2DH15T1138.pdf  0000001EARACK,TEST TUBE,LABO  PDPSHZ1N000
SPE2DH15T11396520014769962                                    005649355001/02/15SPE2DH15T1139.pdf  0000002PGPELLETS,GUTTA PERCH  PDPSHZ1N000
SPE2DH15T11406640015021866                                    005649335901/02/15SPE2DH15T1140.pdf  0000002PGTEST PAPER,CHLORINE  PDPSHZ1N000
SPE2DH15T11416530015275497                                    005649494301/02/15SPE2DH15T1141.pdf  0000002EABULB,SURGICAL LIGHT  PDPSHZ1N000
SPE2DH15T11426230014743755                                    005649602401/02/15SPE2DH15T1142.pdf  0000019EALAMP,HEAD,EMERGENCY  PDPSHZ1N000
SPE2DH15T11436530013077433                                    005649690601/02/15SPE2DH15T1143.pdf  0000001PGPOUCH,LIQUID ABSORB  PDPSHZ1N000
SPE2DP15T04646505013308926                                    005648950012/31/14SPE2DP15T0464.pdf  0000001PGSODIUM CHLORIDE IRR  PDPSAZ1N000
SPE2DP15T04656505014171250                                    005649182812/31/14SPE2DP15T0465.pdf  0000001EAGLOBULIN,RHO (D) IM  PDPSAZ1N000
SPE2DP15T04666505011893973                                    005649311012/31/14SPE2DP15T0466.pdf  0000001CNBUPIVACAINE AND EPI  PDPSAZ1N000
SPE2DP15T04676505016157786                                    005649397012/31/14SPE2DP15T0467.pdf  0000003PGVARICELLA-ZOSTER VI  DJM00Z1N000
SPE2DP15T04686505011534451                                    005649336012/31/14SPE2DP15T0468.pdf  0000024BTPHENYLEPHRINE HYDRO  PDPSAZ1N000
SPE2DP15T04696505014131331                                    005649342912/31/14SPE2DP15T0469.pdf  0000028PGVARICELLA VIRUS VAC  PDPSAZ1N000
SPE2DS15T09616515015427937                                    005648913001/05/15SPE2DS15T0961.pdf  0000006EALIGHT,HEAD,FIBER OP  PDPSFZ1N000
SPE2DS15T09626515014977954                                    005649207801/05/15SPE2DS15T0962.pdf  0000002PRCRUTCH               PDPSFZ1N000
SPE2DS15T09636515013432145                                    005649407001/05/15SPE2DS15T0963.pdf  0000002EADELIVERY KIT,OBSTET  PDPSFZ1N000
SPE2DS15T09646515013288464                                    005649559601/05/15SPE2DS15T0964.pdf  0000002PGDRAIN,WICK,OPHTHALM  PDPSFZ1N000
SPE2DS15T09656550014670676                                    005649621701/05/15SPE2DS15T0965.pdf  0000016PGDIAGNOSTIC KIT,CARD  PDPSFZ1H100
SPE2DS15T09666545016163329                                    005649456501/05/15SPE2DS15T0966.pdf  0000001KTDENTAL KIT,EMERGENC  PDPSFZ1N100
SPE4A015T05331560014477863                                    005630551401/05/15SPE4A015T0533.pdf  0000001EAFRAME,WINDOW,AIRCRA  PARESQ1N100
SPE4A015T05345975015720718                                    005645481101/02/15SPE4A015T0534.pdf  0000002EACOVER,JUNCTION BOX   PARESD1N100
SPE4A015T05351560012169627                                    005645484501/05/15SPE4A015T0535.pdf  0000001EACOVER,LATCH MECH RH  PARESM1N100
SPE4A015T05365940012710706                                    005632985301/02/15SPE4A015T0536.pdf  0000001EASPLICE,CONDUCTOR     PARESD1N100
SPE4A015T05375995013661580                                    005649011001/05/15SPE4A015T0537.pdf  0000001EACABLE ASSEMBLY,RADI  PARESD1N100
SPE4A015T05385970011267806                                    005636478301/02/15SPE4A015T0538.pdf  0000039EAINSULATION SLEEVING  PARESL1N100
SPE4A515TD0151560006948506                                    005649848501/05/15SPE4A515TD015.pdf  0000044EAWINDOW PANEL,AIRCRA  PARACP1N100
SPE4A515TD0166140007382550                                    005649833201/05/15SPE4A515TD016.pdf  0000008EABATTERY,STORAGE      PARACQ1N100
SPE4A515TD0171640014826371                                    005649822001/05/15SPE4A515TD017.pdf  0000008EAWIRE ROPE ASSEMBLY,  PARACQ1N100
SPE4A515TD0209905015191119                                    005649839501/02/15SPE4A515TD020.pdf  0000067EAPLATE,IDENTIFICATIO  PARABD1N100
SPE4A515TD0215340014718592                                    005649830101/02/15SPE4A515TD021.pdf  0002088EACLAMP,LOOP           PARABC1Y100
SPE4A515TD0225310014719176                                    005649830201/02/15SPE4A515TD022.pdf  0000010EAWASHER,THRUST        PARABC1N100
SPE4A515TD0235340015356838                                    005649850201/05/15SPE4A515TD023.pdf  0000016EASTRAP,RETAINING      PARACD1N100
SPE4A515TD0244920014714455                                    005649822901/05/15SPE4A515TD024.pdf  0000023EAFIXTURE,AIRCRAFT MA  PARACQ1Y100
SPE4A515TD0255999016310402                                    005649829201/05/15SPE4A515TD025.pdf  0000063EACLIP,ELECTRICAL      PARABQ1N100
SPE4A515TD0262840991090282                                    005649823101/05/15SPE4A515TD026.pdf  0000008EABRACKET,SUPPORT      GPP34P1N100
SPE4A515TD0271630000110125                                    005649929901/02/15SPE4A515TD027.pdf  0000038EADETENT,CYLINDER      PARABC1N100
SPE4A515TD0281560010073320                                    005649920901/05/15SPE4A515TD028.pdf  0000016EABUMPER               PARABQ1N100
SPE4A515TD0295306001159621                                    005649929101/05/15SPE4A515TD029.pdf  0000052EABOLT,SHEAR           PARABC1N100
SPE4A515TD0303040001933401                                    005649925701/05/15SPE4A515TD030.pdf  0000009EASHAFT,SHOULDERED     PARABP1N100
SPE4A515TD0315310002970332                                    005649918601/02/15SPE4A515TD031.pdf  0000115EAWASHER,RECESSED      PARABQ1N100
SPE4A515TD0321650003142458                                    005649914601/05/15SPE4A515TD032.pdf  0000163EASEAT,CHECK VALVE,SE  PARASR1Y100
SPE4A515TD0335331010868588                                    005649874901/05/15SPE4A515TD033.pdf  0000004EAO-RING               PARAAL1N100
SPE4A515TD0341615011266051                                    005649869601/05/15SPE4A515TD034.pdf  0000032EAGUIDE,SPINDLE ASSEM  PARABC1N100
SPE4A515TD0355995011293791                                    005649872201/02/15SPE4A515TD035.pdf  0000001EACABLE ASSEMBLY,SPEC  PARABC1N100
SPE4A515TD0361615012027132                                    005649861901/05/15SPE4A515TD036.pdf  0000015EASTATOR ASSEMBLY,ACT  PARASC1N100
SPE4A515TD0372915011396935                                    005649880901/05/15SPE4A515TD037.pdf  0000007EALEVER ASSEMBLY,FEED  PARFFC1N100
SPE4A515TD0381680012925959                                    005649887301/02/15SPE4A515TD038.pdf  0000016EASENSOR,LOW LEVEL     PARABD1N100
SPE4A515TD0396220013061640                                    005649881501/05/15SPE4A515TD039.pdf  0000002EALIGHT,LANDING,AIRCR  PARABL1N100
SPE4A515TD0405330014339920                                    005649891401/05/15SPE4A515TD040.pdf  0000031EASEAL,WING-LE CLOSUR  PARACR1N100
SPE4A515TD0414820014362111                                    005649891801/02/15SPE4A515TD041.pdf  0000019EAVALVE,REGULATING,FL  PARABB1N100
SPE4A515TD0425995014405663                                    005649894801/02/15SPE4A515TD042.pdf  0000005EACABLE ASSEMBLY,SPEC  PARABZ1Y100
SPE4A515TD0435935014606327                                    005649896901/02/15SPE4A515TD043.pdf  0000010EACONNECTOR,PLUG,ELEC  PARABB1N100
SPE4A515TD0461680015763903                                    005649892401/05/15SPE4A515TD046.pdf  0000027EABUSHING,AIRCRAFT,MA  PARABD1N100
SPE4A515TD0475365016026746                                    005649879501/05/15SPE4A515TD047.pdf  0000020EABUSHING,SLEEVE       PARACD1N100
SPE4A515TD0481680016027074                                    005649879601/05/15SPE4A515TD048.pdf  0000049EAFRAME,SEAT,AIRCRAFT  PARACC1N100
SPE4A515TD0491630016236694                                    005649886301/05/15SPE4A515TD049.pdf  0000625EAPLUG,INSULATOR       PARABC1N100
SPE4A515TD0506150016106222                                    005649865301/05/15SPE4A515TD050.pdf  0000024EACABLE ASSEMBLY,POWE  PARACD1N100
SPE4A515TD0513040015769197                                    005649892601/05/15SPE4A515TD051.pdf  0000003EACAM,CONTROL          PARABQ1N100
SPE4A515TD0525995016025156                                    005649879301/05/15SPE4A515TD052.pdf  0000625EACABLE ASSEMBLY,SPEC  PARACC1N100
SPE4A515TD0535895014622764                                    005648532601/05/15SPE4A515TD053.pdf  0000046EACOUPLER,DIGITAL DAT  PARACC1Y100
SPE4A515TD0566615007153267                                    005650109401/05/15SPE4A515TD056.pdf  0000001EATORQUER ASSY         PARACP1N100
SPE4A515TD0571680015323049                                    005649826801/05/15SPE4A515TD057.pdf  0000007EASWITCH,FUEL DUMP,AI  PARACQ1N100
SPE4A515TD0604920002799797                                    005648930301/05/15SPE4A515TD060.pdf  0000001EACOVER ASSEMBLY,CAME  PARACD1N100
SPE4A515TD0612915009099117                                    005650110701/05/15SPE4A515TD061.pdf  0000300EACAP,VALVE            PARASD1N100
SPE4A515TD0622915004684531                                    005649558901/05/15SPE4A515TD062.pdf  0000048EACAP PLUNGER          GPP34C1N100
SPE4A515TD0635331011149262                                    005645050301/05/15SPE4A515TD063.pdf  0001105EAO-RING               PARABC1N100
SPE4A515TD0642840014456364                                    005645853501/05/15SPE4A515TD064.pdf  0000096EABLADE,TURBINE ROTOR  PARABC1N100
SPE4A515TD0652840013180216                                    005649854901/05/15SPE4A515TD065.pdf  0000005EASEAL,METALLIC,AIRCR  PARABC1N100
SPE4A515TD0661560015131999                                    005649857701/05/15SPE4A515TD066.pdf  0000029EATIP,AIRCRAFT         PARAAC1N100
SPE4A515TD0671680015742693                                    005637046601/05/15SPE4A515TD067.pdf  0000001EADISPLAY HEAD,AIRCRA  PARFEC1N100
SPE4A515TD0681680015742699                                    005637046301/05/15SPE4A515TD068.pdf  0000001EACCA,INPUT OUTPUT MO  PARFEC1N100
SPE4A515TD0691680015742696                                    005637046501/05/15SPE4A515TD069.pdf  0000001EACCA,DIMMER DRIVER,A  PARFEC1N100
SPE4A515TD0701680015742702                                    005637046101/05/15SPE4A515TD070.pdf  0000001EALOW VOLTAGE POWER,A  PARABC1N100
SPE4A515TD0711680015742697                                    005637046401/05/15SPE4A515TD071.pdf  0000001EACCA,CPU,AIRCRAFT,MA  PARFEC1N100
SPE4A515TD0721560012332175                                    005645471401/05/15SPE4A515TD072.pdf  0000001EAPLATE,STRUCTURAL,AI  PARACC1N100
SPE4A515TD0736615009349630                                    005646006601/02/15SPE4A515TD073.pdf  0000002EACAPSULE,ROLL         PARABB1N100
SPE4A515TD0741560014182751                                    005649909501/05/15SPE4A515TD074.pdf  0000001EAPLATE,STRUCTURAL,AI  PARACR1N100
SPE4A515TD0774710015206790                                    005573302801/05/15SPE4A515TD077.pdf  0000018EATUBE,METALLIC        PARASQ1N100
SPE4A515TD0786110013497017                                    005648939901/02/15SPE4A515TD078.pdf  0000001EASTARTER,MOTOR        PARABD1N100
SPE4A515TD0791680014401504                                    005648928201/05/15SPE4A515TD079.pdf  0000001EAPARTS KIT,SEAT       PARACQ1N100
SPE4A515TD0801560016220720                                    005648944101/02/15SPE4A515TD080.pdf  0000001EACOVER,ACCESS,AIRCRA  PARABD1N100
SPE4A515TD0825365011278967                                    005636580801/05/15SPE4A515TD082.pdf  0000188EASPACER,RING          PARACL1N100
SPE4A515TD0835365011278969                                    005636580601/05/15SPE4A515TD083.pdf  0000050EASPACER,RING          PARACL1N100
SPE4A515TD0845310004100257                                    005636657301/05/15SPE4A515TD084.pdf  0000106EAWASHER,FLAT          PARACQ1N100
SPE4A515TD0866680010722794                                    005640776501/05/15SPE4A515TD086.pdf  0000078EASWITCH,LIQUID LEVEL  PARACB1N100
SPE4A515TD0875306014775888                                    005649937601/05/15SPE4A515TD087.pdf  0000023EABOLT,MACHINE         PARACQ1R100
SPE4A515TD0881560010749742                                    005620070701/05/15SPE4A515TD088.pdf  0000006EABEAM,HEAT EXCHANGER  PARACD1N100
SPE4A515TD0893110015421718                                    005648543001/02/15SPE4A515TD089.pdf  0000037EABEARING,BALL,ANNULA  PARABC1Y100
SPE4A515TD0903120016308245                                    005636839101/05/15SPE4A515TD090.pdf  0000002EABUSHING,SLEEVE       PARACQ1N100
SPE4A515TD0915365011278968                                    005636580701/05/15SPE4A515TD091.pdf  0000288EASPACER,RING          PARACQ1N100
SPE4A515TD0921560016252915                                    005636783901/05/15SPE4A515TD092.pdf  0000021EASTRINGER,WING        PARAAG1N100
SPE4A515TD0931560011624209                                    005636790701/05/15SPE4A515TD093.pdf  0000001EAPANEL,STRUCTURAL,AI  PARAAP1Y100
SPE4A515TD0945940014757138                                    005636517201/05/15SPE4A515TD094.pdf  0000008EATERMINAL BOARD       PARACC1N100
SPE4A515TD0951710014781905                                    005649938001/05/15SPE4A515TD095.pdf  0000002EARETAINER,AIRCRAFT,M  PARACD1N100
SPE4A515TD0961560015204739                                    005642773101/05/15SPE4A515TD096.pdf  0000007EACOVER ASSEMBLY,AIRC  PARABC1N100
SPE4A515TD0973120016308237                                    005636839401/05/15SPE4A515TD097.pdf  0000002EABUSHING,SLEEVE       PARACQ1N100
SPE4A515TD0986685015486011                                    005548431301/05/15SPE4A515TD098.pdf  0000001EATRANSMITTER,TEMPERA  PARAAD1N100
SPE4A515TD0993120016308123                                    005636843501/05/15SPE4A515TD099.pdf  0000002EABUSHING,SLEEVE       PARACQ1N100
SPE4A515TD1003120016308228                                    005636839601/05/15SPE4A515TD100.pdf  0000002EABUSHING,SLEEVE       PARACQ1N100
SPE4A515TD1015970015058004                                    005644219101/02/15SPE4A515TD101.pdf  0000030EAINSULATION SLEEVING  PARABD1N100
SPE4A515TD1025305015622018                                    005615500401/05/15SPE4A515TD102.pdf  0000001EASETSCREW             PARAAD1N100
SPE4A515TD1031560011258545                                    005647661701/05/15SPE4A515TD103.pdf  0000001EAHINGE LINK           PARACQ1N100
SPE4A515TD1046220012599814                                    005642363701/05/15SPE4A515TD104.pdf  0000009EAFLOODLIGHT,ELECTRIC  PARABP1N100
SPE4A515TD1055306010619061                                    005645913301/05/15SPE4A515TD105.pdf  0002942EABOLT,MACHINE         PARASD1N100
SPE4A515TD1063120013219672                                    005600680601/05/15SPE4A515TD106.pdf  0000014EABEARING,SLEEVE       PARACB1Y100
SPE4A515TD1091560016240744                                    005636731401/05/15SPE4A515TD109.pdf  0000007EASUPPORT,STRUCTURAL   PARACP1N100
SPE4A515TD1105980012220036                                    005647659901/02/15SPE4A515TD110.pdf  0000004EADISPLAY,OPTOELECTRO  PARABD1N100
SPE4A515TD1115895015798829                                    005650163301/02/15SPE4A515TD111.pdf  0000005EABATTERY,LITHIUM,AIR  PARACQ1N100
SPE4A515TD1146610000735872                                    005627002601/05/15SPE4A515TD114.pdf  0000011EAGEAR AND SHAFT ASSY  PARACR1N100
SPE4A515TD1151560014464331                                    005648040501/05/15SPE4A515TD115.pdf  0000001EAPANEL,STRUCTURAL,AI  PARACQ1N100
SPE4A515TD1161560016066818                                    005649860801/05/15SPE4A515TD116.pdf  0000015EAWEB,STRUCTURAL COMP  PARACD1N100
SPE4A515TD1171560006702429                                    005649837401/05/15SPE4A515TD117.pdf  0000233EASEAL ASSY,INFLIGHT   PARACP1N100
SPE4A515TD1185940008013161                                    005626802201/05/15SPE4A515TD118.pdf  0000658EATERMINAL,LUG         PARACL1N100
SPE4A515TD1232915004886748                                    005644246801/05/15SPE4A515TD123.pdf  0000008EAPLATE,FUEL CONTROL   PARACP1N100
SPE4A515TD1261560015342496                                    005649123201/05/15SPE4A515TD126.pdf  0000027EARIB,AIRFOIL          PARAAC1Y100
SPE4A515TD1291680015613547                                    005619796001/05/15SPE4A515TD129.pdf  0000001EAPNL ASSY,STWG-CONN   PARACQ1N100
SPE4A515TD1303040011980346                                    005610830901/05/15SPE4A515TD130.pdf  0000001EALEVER,REMOTE CONTRO  PARACG1N100
SPE4A515TD1395310016207478                                    005650570301/05/15SPE4A515TD139.pdf  0000001EAWASHER,KEY           PARACD1N100
SPE4A515TD1406115007783466                                    005649403901/02/15SPE4A515TD140.pdf  0000007EACOVER,BEARING        PARABC1N100
SPE4A615TG2135365007102399                                    005649830501/02/15SPE4A615TG213.pdf  0000191EASPACER,PLATE         PARFMH1N100
SPE4A615TG2146240008430692                                    005649843401/05/15SPE4A615TG214.pdf  0000387EALAMP,INCANDESCENT    PARFKZ1H100
SPE4A615TG2155995009542992                                    005649829901/05/15SPE4A615TG215.pdf  0000003EACABLE ASSEMBLY,RADI  PARFKG1N100
SPE4A615TG2164933010473394                                    005649816801/02/15SPE4A615TG216.pdf  0001569EAREAMERS,CLEANING     PARFMG1R100
SPE4A615TG2175365008557511                                    005649817301/02/15SPE4A615TG217.pdf  0000044EASHIM                 PARFMG1N100
SPE4A615TG2183120008033859                                    005649845901/02/15SPE4A615TG218.pdf  0000009EABEARING, SLEEVE      PARAVG1N100
SPE4A615TG2193120014876752                                    005649820801/02/15SPE4A615TG219.pdf  0000011EABEARING,SLEEVE       PARAVG1N100
SPE4A615TG2206150010674720                                    005649816101/02/15SPE4A615TG220.pdf  0000321EALEAD,ELECTRICAL      PARFKG1Y100
SPE4A615TG2216620012090260                                    005649858501/02/15SPE4A615TG221.pdf  0000002EAINDICATOR,BOOM ANGL  PARFJQ1N100
SPE4A615TG2225975009093302                                    005649817201/02/15SPE4A615TG222.pdf  0000135EACOVER,JUNCTION BOX   PARFJG1Y100
SPE4A615TG2235855015622135                                    005649836701/02/15SPE4A615TG223.pdf  0000001EAHOUSING,IMAGE INTEN  PARFJD1N100
SPE4A615TG2245995015132782                                    005649857801/02/15SPE4A615TG224.pdf  0000009EACABLE ASSEMBLY,RADI  PARFKQ1Y100
SPE4A615TG2254920015016770                                    005649839901/02/15SPE4A615TG225.pdf  0000016EAPRESSURE GAUGE,AIRC  PARFMD1N100
SPE4A615TG2266685015485056                                    005649804301/02/15SPE4A615TG226.pdf  0000012EATRANSMITTER,PRESSUR  PARFJQ1Y100
SPE4A615TG2276680015557032                                    005649825001/02/15SPE4A615TG227.pdf  0000001EAMETER KIT,FLOW RATE  PARFJD1N100
SPE4A615TG2286685015230700                                    005649853401/02/15SPE4A615TG228.pdf  0000206EAINDICATOR,HUMIDITY,  PARFJQ1N100
SPE4A615TG2296150015660525                                    005649831601/02/15SPE4A615TG229.pdf  0000175EAWIRING HARNESS       PARFKC1N100
SPE4A615TG2304920015585949                                    005649834801/02/15SPE4A615TG230.pdf  0000012EAHOSE ASSEMBLY,H.P.,  PARFMP1N100
SPE4A615TG2316680123816927                                    005649825101/02/15SPE4A615TG231.pdf  0000023EATRANSMITTER,CASE     PARFJQ1N100
SPE4A615TG2325365002857609                                    005649918101/02/15SPE4A615TG232.pdf  0000201EASPACER,RING          PARFMG1N100
SPE4A615TG2335365010775579                                    005649926301/02/15SPE4A615TG233.pdf  0000007EARING                 PARFMG1Y100
SPE4A615TG2346680010744819                                    005649924901/02/15SPE4A615TG234.pdf  0000004EAMETER,FLUID FLOW IN  PARFJC1N100
SPE4A615TG2353110011299636                                    005649872301/02/15SPE4A615TG235.pdf  0000065EABEARING, ROLLER, NEEDPARAVD1N100
SPE4A615TG2366695012324701                                    005649876301/02/15SPE4A615TG236.pdf  0000002EAMETER MOVEMENT       PARFJP1N100
SPE4A615TG2376150012675025                                    005649887901/02/15SPE4A615TG237.pdf  0000006EACABLE ASSEMBLY,SPEC  PARFKC1N100
SPE4A615TG2383120013760632                                    005649903901/02/15SPE4A615TG238.pdf  0000072KTPARTS KIT,BEARING R  PARAVQ1N100
SPE4A615TG2396220013985816                                    005649913201/02/15SPE4A615TG239.pdf  0000003EALENS,LIGHT           PARFKB1N100
SPE4A615TG2403110013607497                                    005649906901/02/15SPE4A615TG240.pdf  0000019EACUP,TAPERED ROLLER   PARAVC1N100
SPE4A615TG2416220013985817                                    005649913301/02/15SPE4A615TG241.pdf  0000003EALENS,LIGHT           PARFKB1N100
SPE4A615TG2426220013971892                                    005649911901/05/15SPE4A615TG242.pdf  0000002EALENS,LIGHT           PARFKB1N100
SPE4A615TG2436240014130614                                    005649901701/02/15SPE4A615TG243.pdf  0000152EADIVIDER,LAMP         PARFKZ1N100
SPE4A615TG2445850014164252                                    005649895701/02/15SPE4A615TG244.pdf  0000045EALENS,LIGHT           PARFJL1N100
SPE4A615TG2456685014741738                                    005649936701/02/15SPE4A615TG245.pdf  0000053EATRANSMITTER GROUP,H  PARFJC1N100
SPE4A615TG2466150014473424                                    005649890301/02/15SPE4A615TG246.pdf  0000009EACABLE ASSEMBLY,SPEC  PARFKC1N100
SPE4A615TG2476685014766984                                    005649937201/02/15SPE4A615TG247.pdf  0000014EAGAGE,PRESSURE,DIAL   PARFJC1Y100
SPE4A615TG2485895014476061                                    005649890401/02/15SPE4A615TG248.pdf  0000012EALIMITER,ELECTRICAL   PARFJC1N100
SPE4A615TG2495120015929466                                    005649902701/02/15SPE4A615TG249.pdf  0000209EATOOL,SEALANT,REMOVA  PARFMD1N100
SPE4A615TG2505895016012500                                    005649870901/02/15SPE4A615TG250.pdf  0000007EASWITCH,ELECTRONIC    PARFJZ1Y100
SPE4A615TG2515995015840725                                    005649907402/24/15SPE4A615TG251.pdf  0000083EACABLE ASSEMBLY,RADI  PARFMD1N100
SPE4A615TG2526620015234905                                    005649853701/02/15SPE4A615TG252.pdf  0000010EAINDICATOR SUBASSEMB  PARFJQ1N100
SPE4A615TG2535995015778916                                    005649892801/02/15SPE4A615TG253.pdf  0000028EACABLE ASSEMBLY,SPEC  PARFKQ1N100
SPE4A615TG2543110002274423                                    005592731801/02/15SPE4A615TG254.pdf  0000523EABEARING,ROLLER,NEED  PARAVD1N100
SPE4A615TG2553110011171026                                    005640703101/02/15SPE4A615TG255.pdf  0000207EACONE AND ROLLERS, TAPPARAVC1R100
SPE4A615TG2566150013761560                                    005650107201/02/15SPE4A615TG256.pdf  0000004EAWIRING HARNESS,BRAN  PARFKL1N100
SPE4A615TG2573120000761927                                    005649549901/02/15SPE4A615TG257.pdf  0000010EABEARING,SLEEVE       PARAVG1N100
SPE4A615TG2583120010493194                                    005650110901/02/15SPE4A615TG258.pdf  0000005EABEARING,PLAIN,SELF-ALPARAVC1N100
SPE4A615TG2596645008750772                                    005650107601/02/15SPE4A615TG259.pdf  0000002EACLOCK,DIRECT READIN  PARFJG1N100
SPE4A615TG2606645008750772                                    005650108601/02/15SPE4A615TG260.pdf  0000001EACLOCK,DIRECT READIN  PARFJG1N100
SPE4A615TG2616150014165188                                    005650110101/02/15SPE4A615TG261.pdf  0000002EACABLE ASSEMBLY,SPEC  PARFKQ1N100
SPE4A615TG2625995015339931                                    005650111101/02/15SPE4A615TG262.pdf  0000001EACABLE ASSEMBLY,RADI  PARFKH1N100
SPE4A615TG2636635014164891                                    005650110201/02/15SPE4A615TG263.pdf  0000002EAPROBE,EDDY CURRENT   PARFJP1N100
SPE4A615TG2643120013857181                                    005648617101/02/15SPE4A615TG264.pdf  0000306EABEARING, SLEEVE      PARAVG1C100
SPE4A615TG2656150014964786                                    005650123701/02/15SPE4A615TG265.pdf  0000010EACABLE ASSEMBLY,SPEC  PARFKL1N100
SPE4A615TG2663110014519159                                    005642386401/02/15SPE4A615TG266.pdf  0000044EABEARING, BALL, ANNULAPARAVC1N100
SPE4A615TG2676645004457769                                    005585294901/02/15SPE4A615TG267.pdf  0000002EADIAL,CLOCK           PARFJD1N100
SPE4A615TG2686150016192687                                    005648932501/02/15SPE4A615TG268.pdf  0000002EACABLE ASSEMBLY,SPEC  PARFKD1N100
SPE4A615TG2695975015848509                                    005648932801/02/15SPE4A615TG269.pdf  0000003EACHASSIS,ELECTRICAL-  PARFJD1N100
SPE4A615TG2705970013397511                                    005648927801/02/15SPE4A615TG270.pdf  0000002KTINSULATING COMPOUND  PARFKG1N100
SPE4A615TG2714920008793045                                    005580641901/02/15SPE4A615TG271.pdf  0000007EAFIXTURE,HITCH LINK   PARFMQ1N100
SPE4A615TG2723110011832686                                    005649866401/02/15SPE4A615TG272.pdf  0000193EABEARING,ROLLER,THRUSTPARAVB1N100
SPE4A615TG2733110010449653                                    005645783201/02/15SPE4A615TG273.pdf  0000004EABEARING, BALL, ANNULAPARAVB1N100
SPE4A615TG2744920015411794                                    005598484301/02/15SPE4A615TG274.pdf  0000005EATOOL SET,HYDR SWVL,  PARFMD1N100
SPE4A615TG2754010015750298                                    005636928101/02/15SPE4A615TG275.pdf  0000018EAWIRE ROPE ASSEMBLY,  PARFMG1N100
SPE4A615TG2766210000601734                                    005648930401/02/15SPE4A615TG276.pdf  0000001EALENS,LIGHT           PARFKD1N100
SPE4A615TG2775895010711444                                    005648951301/02/15SPE4A615TG277.pdf  0000046EACASE,ELECTRONIC COM  PARFJC1N100
SPE4A615TG2784030012809711                                    005580599301/02/15SPE4A615TG278.pdf  0000006EASHACKLE              PARFMG1Y100
SPE4A615TG2794235016282149                                    005648950901/02/15SPE4A615TG279.pdf  0000006KTSPILL CLEAN-UP KIT,  PARFJD1N100
SPE4A615TG2805365013375676                                    005648931101/02/15SPE4A615TG280.pdf  0000002EABUSHING,MACHINE THR  PARFMD1N100
SPE4A615TG2815365013419654                                    005648928401/02/15SPE4A615TG281.pdf  0000001EASHIM SET             PARFMD1N100
SPE4A615TG2825970010829128                                    005648930201/02/15SPE4A615TG282.pdf  0000007CAINSULATING COMPOUND  PARFKG1N100
SPE4A615TG2834235014429620                                    005648951901/02/15SPE4A615TG283.pdf  0000003ROMAT ROLL,SPILL CONT  PARFJZ1N100
SPE4A615TG2843110001980470                                    005649925801/02/15SPE4A615TG284.pdf  0002305EAROLLER, BEARING      PARAVG1N100
SPE4A615TG2855865015230643                                    005648529901/02/15SPE4A615TG285.pdf  0000004EAHANDLE ASSEMBLY,AIR  PARFJC1N100
SPE4A615TG2863120013605289                                    005649906701/02/15SPE4A615TG286.pdf  0000083EABEARING HALF,SLEEVE  PARAVC1N100
SPE4A615TG2873120015214500                                    005649857101/02/15SPE4A615TG287.pdf  0000031EABEARING,SLEEVE       PARAVD1N100
SPE4A615TG2886605014820896                                    005648601901/02/15SPE4A615TG288.pdf  0000005EAINERTIAL NAVIGATION  PARFJP1N100
SPE4A615TG2893120015698872                                    005650106501/02/15SPE4A615TG289.pdf  0000024EABEARING,WASHER,THRUSTPARAVD1N100
SPE4A615TG2906220012757144                                    005648938801/05/15SPE4A615TG290.pdf  0000002EAPANEL,INDICATING,LI  PARFKG1N100
SPE4A615TG2915365016114706                                    005637263801/02/15SPE4A615TG291.pdf  0000010EABUSHING,NONMETALLIC  PARFMD1N100
SPE4A615TG2928140004535365                                    005573470601/02/15SPE4A615TG292.pdf  0000390EAPAD,CUSHIONING       PARFJG1N100
SPE4A615TG2936220012599815                                    005645873401/02/15SPE4A615TG293.pdf  0000005EALIGHT UNIT,EMERGENC  PARFKR1N100
SPE4A615TG2941560013459143                                    005636857701/02/15SPE4A615TG294.pdf  0000024EAFORMER,AIRCRAFT      PARFMG1N100
SPE4A615TG2953110014587551                                    005645787701/02/15SPE4A615TG295.pdf  0000047EABEARING,ROLLER,NEED  PARAVD1N100
SPE4A615TG2965995015171853                                    005648951201/05/15SPE4A615TG296.pdf  0000002EACABLE ASSEMBLY,SPEC  PARFKG1N100
SPE4A615TG2975995010664087                                    005650164301/02/15SPE4A615TG297.pdf  0000014EACORD ASSEMBLY,ELECT  PARFKQ1N100
SPE4A615TG2985365010866835                                    005620049101/02/15SPE4A615TG298.pdf  0000247EASPACER,PLATE         PARFMG1N100
SPE4A615TG2991560015283272                                    005636926401/02/15SPE4A615TG299.pdf  0000004EASUPPORT,STRUCTURAL   PARFMG1N100
SPE4A615TG3005970015917217                                    005592697901/02/15SPE4A615TG300.pdf  0000023LGINSULATION SLEEVING  PARFKG1Y100
SPE4A615TG3015365012337821                                    005637026901/02/15SPE4A615TG301.pdf  0000009EASPACER,SLEEVE        PARFMG1N100
SPE4A615TG3025975012895974                                    005647987801/02/15SPE4A615TG302.pdf  0000002EABOOT,DUST AND MOIST  PARFJL1N100
SPE4A615TG3035995011537212                                    005571381701/02/15SPE4A615TG303.pdf  0000001EACABLE ASSEMBLY,RADI  PARFKG1N100
SPE4A615TG3044030015401583                                    005636960201/02/15SPE4A615TG304.pdf  0000080EAHOOK,CARGO           PARFMG1N100
SPE4A615TG3056220011976976                                    005648536401/02/15SPE4A615TG305.pdf  0000002EAPANEL,INDICATING,LI  PARFKP1N100
SPE4A615TG3066150013245363                                    005597957301/02/15SPE4A615TG306.pdf  0000001EACABLE ASSEMBLY,SPEC  PARFKG1N100
SPE4A615TG3073110011403768                                    005631937601/02/15SPE4A615TG307.pdf  0000101EABEARING,BALL,ANNULA  PARAVB1N100
SPE4A615TG3083120014233698                                    005649910101/02/15SPE4A615TG308.pdf  0000147KTPARTS KIT,BEARING REPPARAVD1N100
SPE4A615TG3096150013245363                                    005597957201/02/15SPE4A615TG309.pdf  0000001EACABLE ASSEMBLY,SPEC  PARFKG1N100
SPE4A615TG3103120014900837                                    005648604101/02/15SPE4A615TG310.pdf  0000018EABEARING,WASHER,THRU  PARAVG1Y100
SPE4A615TG3116150014936130                                    005592801801/02/15SPE4A615TG311.pdf  0000021EACABLE ASSEMBLY,POWE  PARFKG1R100
SPE4A615TG3126610000203861                                    005643737001/02/15SPE4A615TG312.pdf  0000004EACLIP ASSY            PARFJQ1N100
SPE4A615TG3133120010652681                                    005646010801/02/15SPE4A615TG313.pdf  0000001EABEARING,PLAIN,ROD E  PARAVG1N100
SPE4A615TG3145365014241349                                    005623609701/02/15SPE4A615TG314.pdf  0000002EASPACER,PLATE         PARFMG1N100
SPE4A615TG3156685015800311                                    005649054901/02/15SPE4A615TG315.pdf  0000008EADAMPENER,FLUID PRES  PARFJL1N100
SPE4A615TG3165840008562954                                    005544652601/02/15SPE4A615TG316.pdf  0000198EACARD HOLDER          PARFJD1N100
SPE4A615TG3176350002569065                                    005636745901/02/15SPE4A615TG317.pdf  0000004EABELL,SHIP'S          PARFKG1Y100
SPE4A615TG3186150009921874                                    005645752401/02/15SPE4A615TG318.pdf  0000025EALEAD ASSEMBLY,ELECT  PARFKG1R100
SPE4A615TG3195365013431785                                    005592580501/02/15SPE4A615TG319.pdf  0000569EASHIM                 PARFMG1Y100
SPE4A615TG3205975015976577                                    005626993901/02/15SPE4A615TG320.pdf  0000007EAPANEL,ELECTRICAL-EL  PARFJL1N100
SPE4A615TG3215365996092363                                    005640911401/02/15SPE4A615TG321.pdf  0000020EASPACER,RING          PARFMD1N100
SPE4A615TG3225975015939060                                    005645469801/02/15SPE4A615TG322.pdf  0000002EACHASSIS,ELECTRICAL-  PARFJQ1N100
SPE4A615TG3231560010811600                                    005544346401/05/15SPE4A615TG323.pdf  0000010EABALLISTIC FOAM       PARFJC1N100
SPE4A615TG3245895008439951                                    005649289201/02/15SPE4A615TG324.pdf  0000015EACONTROL,RECEIVER     PARFJC1Y100
SPE4A615TG3256150015515574                                    005650349801/02/15SPE4A615TG325.pdf  0000024EALEAD,STORAGE BATTER  PARFKQ1N100
SPE4A615TG3266150015515260                                    005650349901/02/15SPE4A615TG326.pdf  0000015EALEAD,STORAGE BATTER  PARFKQ1N100
SPE4A615TG3274010013577230                                    005649518201/02/15SPE4A615TG327.pdf  0000010FTWIRE ROPE ASSEMBLY,  PARFML1N100
SPE4A615TG3285940005373452                                    005649605401/02/15SPE4A615TG328.pdf  0000001EACOVER,TERMINAL BOAR  PARFJG1N100
SPE4A615TG3295365011321984                                    005650693401/02/15SPE4A615TG329.pdf  0000015EASPACER               PARFMQ1N100
SPE4A615U01534030010429071                                    005592853801/02/15SPE4A615U0153.pdf  0000015EATHIMBLE,ROPE         PARFMG1N100
SPE4A715T54581560006907286                                    005649848401/05/15SPE4A715T5458.pdf  0000004EAWINDOW PANEL,AIRCRA  GSV51P1N100
SPE4A715T54602840011712615                                    005649849301/02/15SPE4A715T5460.pdf  0007051EASEAL,AIR,AIRCRAFT G  PARFHG1H100
SPE4A715T54611560219214062                                    005649827101/05/15SPE4A715T5461.pdf  0000018EADEFLECTOR,LANDING G  GSV51C1N100
SPE4A715T54621650000816463                                    005649928201/05/15SPE4A715T5462.pdf  0000108EAFILTER ELEMENT,FLUI  PARDAP1N100
SPE4A715T54631560009389587                                    005649938501/05/15SPE4A715T5463.pdf  0000015EAWINDOW PANEL,AIRCRA  GSV51C1Y100
SPE4A715T54641650009249026                                    005649938101/02/15SPE4A715T5464.pdf  0000023EACOVER,FLYWEIGHT,GOV  PARFHG1N100
SPE4A715T54651560011131933                                    005649922901/02/15SPE4A715T5465.pdf  0000004EAPANEL,STRUCTURAL,AI  PARFHC1N100
SPE4A715T54671560015709813                                    005649900201/02/15SPE4A715T5467.pdf  0000002EASUPPORT,STRUCTURAL   PARFHG1N100
SPE4A715T54691680006743539                                    005650109001/05/15SPE4A715T5469.pdf  0000005EAPARTS KIT,GRIP ASSY  PARDAP1N100
SPE4A715T54701660010480228                                    005650109301/02/15SPE4A715T5470.pdf  0000002EAHOUSING,RATE CONTRO  PARFHD1N100
SPE4A715T54711560003345860                                    005649912401/02/15SPE4A715T5471.pdf  0000016EADOOR,ACCESS,AIRCRAF  PARFHG1Y100
SPE4A715T54721560006739877                                    005648625201/02/15SPE4A715T5472.pdf  0000005EAFITTING,STRUCTURAL   PARFHG1N100
SPE4A715T54741560007774452                                    005642356201/05/15SPE4A715T5474.pdf  0000016EACASE,SPRING,LANDING  PARDAG1N100
SPE4A715T54751680010862958                                    005649924401/05/15SPE4A715T5475.pdf  0000004EAPANEL,TEST GROUND    PARDAG1Y100
SPE4A715T54761560009626687                                    005636528201/05/15SPE4A715T5476.pdf  0000003EAFORMER,AIRCRAFT      PARDAG1Y100
SPE4A715T54771680015274563                                    005636934201/05/15SPE4A715T5477.pdf  0000004EAFORWARD-FACING MOUN  GSV51D1N100
SPE4A715T54791560005687171                                    005648930901/02/15SPE4A715T5479.pdf  0000001EAINSULATION,THERMAL,  PARFHR1N100
SPE4A715T54801560016113588                                    005637045401/05/15SPE4A715T5480.pdf  0000002EABRACKET,STRUCTURAL   GSV51G1N100
SPE4A715T54811560013229718                                    005650110001/05/15SPE4A715T5481.pdf  0000002EATRUNNION ASSEMBLY,A  PARDAG1Y100
SPE4A715T54821560007681052                                    005637025101/05/15SPE4A715T5482.pdf  0000004EASUPPORT,DRIVE,JETTI  PARDAC1N100
SPE4A715T54841560009640840                                    005636507201/05/15SPE4A715T5484.pdf  0000003EASTRINGER,AIRCRAFT    PARDAG1Y100
SPE4A715T54854820007917459                                    005645811701/02/15SPE4A715T5485.pdf  0000087EACOCK,POPPET DRAIN    PARFHC1N100
SPE4A715T54861560010381839                                    005576154301/05/15SPE4A715T5486.pdf  0000002EADUCT                 PARDAC1N100
SPE4A715T54871560007003834                                    005648942301/05/15SPE4A715T5487.pdf  0000002EASHROUD,JAW,DISC COU  GSV51H1N100
SPE4A715T54881680016023191                                    005645482101/02/15SPE4A715T5488.pdf  0000001EASEAL ASSEMBLY,PISTO  PARFHD1N100
SPE4A715T54895340008601345                                    005636561501/05/15SPE4A715T5489.pdf  0000003EACOVER,ACCESS         PARDAG1Y100
SPE4A715T54902915012871878                                    005648587701/02/15SPE4A715T5490.pdf  0000006EAVALVE,FUEL SYSTEM    PARFHP1N100
SPE4A715T54921560014263300                                    005620521401/02/15SPE4A715T5492.pdf  0000020EACONDUIT ASSEMBLY,FL  PARFHR1N100
SPE4A715T54931680015669907                                    005645884001/05/15SPE4A715T5493.pdf  0000020EACABLE ASSEMBLY,CONT  PARDAB1N100
SPE4A715T54941730013155516                                    005648939401/02/15SPE4A715T5494.pdf  0000001EASHIELD,AIRCRAFT GRO  PARFHC1N100
SPE4A715T54951560007742040                                    005633363801/05/15SPE4A715T5495.pdf  0000009EASKIN,AIRCRAFT        PARDAG1N100
SPE4A715T54961560011571580                                    005649852401/02/15SPE4A715T5496.pdf  0000003EASUPPORT,STRUCTURAL   PARFHC1N100
SPE4A715T54971560012149748                                    005636864101/05/15SPE4A715T5497.pdf  0000010EAFITTING,DRAG BRACE   PARDAG1Y100
SPE4A715T54991560004943190                                    005636951501/05/15SPE4A715T5499.pdf  0000003EASUPPORT,HANDLE,AFT   PARDAG1Y100
SPE4A715T55001560000697929                                    005636510701/05/15SPE4A715T5500.pdf  0000004EACOVER,ACCESS,AIRCRA  PARDAG1Y100
SPE4A715T55011560005703020                                    005648626301/02/15SPE4A715T5501.pdf  0000003EACONNECTOR ASSEMBLY   PARFHG1R100
SPE4A715T55021640011033507                                    005649875801/02/15SPE4A715T5502.pdf  0000018EACABLE ASSY,CONTROLS  PARFHG1N100
SPE4A715T55031560016296879                                    005636573801/02/15SPE4A715T5503.pdf  0000002EASUPPORT,STRUCTURAL   PARFHG1N100
SPE4A715T55051620010114556                                    005650123501/05/15SPE4A715T5505.pdf  0000007EAARM ASSEMBLY,TORQUE  GSV51G1N100
SPE4A715T55061560004822880                                    005636705801/05/15SPE4A715T5506.pdf  0000009EAINSULATION,EQUIPMEN  PXRCAC1N100
SPE4A715T55091560012413728                                    005649124601/05/15SPE4A715T5509.pdf  0000007EARIB,AIRFOIL          PARDAG1Y100
SPE4A715T55101680015622390                                    005636569001/02/15SPE4A715T5510.pdf  0000625EASTAINLESS NUT,AIRCR  PARFHD1N100
SPE4A715T55111650007870637                                    005648526701/05/15SPE4A715T5511.pdf  0000003EAPARTS KIT,DAMPER     PXRCAR1N100
SPE4A715T55121560016315415                                    005613894801/05/15SPE4A715T5512.pdf  0000004EAPANEL,STRUCTURAL,AI  PARDAP1N100
SPE4A715T55141560016324483                                    005613800101/02/15SPE4A715T5514.pdf  0000011EAFITTING,STRUCTURAL   PARFHG1Y100
SPE4A715T55151560016310902                                    005613851701/05/15SPE4A715T5515.pdf  0000009EASUPPORT,STRUCTURAL   PARDAG1N100
SPE4A715T55161560016324814                                    005613894101/05/15SPE4A715T5516.pdf  0000032EASUPPORT,STRUCTURAL   KAP00G1N100
SPE4A715T55172840012203172                                    005649878101/02/15SPE4A715T5517.pdf  0000003EAHOUSING,GEARBOX,TUR  PARFHP1Y100
SPE4A715T55181680016027040                                    005636556201/05/15SPE4A715T5518.pdf  0000003EATOOL POST            PARDAD1N100
SPE4A715T55191560015149232                                    005649119301/05/15SPE4A715T5519.pdf  0000005EARIB,AIRFOIL          PARDAG1N100
SPE4A715T55211650004679033                                    005650457301/05/15SPE4A715T5521.pdf  0000001EABODY ACTUATOR HYD    PXRCAR1N100
SPE4A715T55221620010638233                                    005544164001/05/15SPE4A715T5522.pdf  0000041EACAM,LOWER,STRUT      PARDAC1N100
SPE4AN15T00511560004390094                                    005645999601/05/15SPE4AN15T0051.pdf  0000001EACOVER,RESCUE HOIST   PARESC1N100
SPE5E015T08175306012082889                                    005634933101/05/15SPE5E015T0817.pdf  0000015EABOLT,SHEAR           PAA69G1N100
SPE5E015T08195306013449647                                    005632259701/05/15SPE5E015T0819.pdf  0000009EABOLT,SHEAR           PAA69G1N100
SPE5E015T08205331015800986                                    005627087001/05/15SPE5E015T0820.pdf  0000001EAO-RING               PAA69D1N100
SPE5E215T38895305011628541                                    005649855501/05/15SPE5E215T3889.pdf  0005419EASCREW,CLOSE TOLERAN  PHPHBG1N100
SPE5E215T38905305015062141                                    005649842501/05/15SPE5E215T3890.pdf  0000365EASCREW HEX M08-125X0  PHPHBC1N100
SPE5E215T38915305015594482                                    005649836101/05/15SPE5E215T3891.pdf  0000100EASCREW,MACHINE        PHPHBC1N100
SPE5E215T38925305123564631                                    005649823901/05/15SPE5E215T3892.pdf  0000736EASCREW,CAP,SOCKET HE  PHPHBL1N100
SPE5E215T38935305015630234                                    005649818801/05/15SPE5E215T3893.pdf  0000220EASCREW,TAPPING        PHPHBR1N100
SPE5E215T38945305015644657                                    005649828601/05/15SPE5E215T3894.pdf  0003847EASCREW,CAP,SOCKET HE  PHPHBR1N100
SPE5E215T38955305011495368                                    005649885401/05/15SPE5E215T3895.pdf  0000078EASCREW,MACHINE        PHPHBL1N100
SPE5E215T38965360013749776                                    005649903501/05/15SPE5E215T3896.pdf  0000076EASPRING,HELICAL,COMP  PHPHBD1N100
SPE5E215T38975305015691298                                    005649897701/05/15SPE5E215T3897.pdf  0000834EASCREW,CAP,SOCKET HE  PHPHBL1N100
SPE5E215T38985305014518916                                    005649891001/05/15SPE5E215T3898.pdf  0000021EASCREW,MACHINE        PHPHBL1N100
SPE5E215T39015305007247216                                    005648928301/05/15SPE5E215T3901.pdf  0000003EASETSCREW             PHPHBG1N100
SPE5E215T39025305013719328                                    005648941201/05/15SPE5E215T3902.pdf  0000002EASCREW,MACHINE        PHPHBL1N100
SPE5E215T39035305016281647                                    005648950701/05/15SPE5E215T3903.pdf  0000001KTMACHINE SCREW AND N  PHPHBD1N100
SPE5E215T39045305016247038                                    005575511401/05/15SPE5E215T3904.pdf  0000161EASCREW,CAP,HEXAGON H  PHPHBD1N100
SPE5E215T39055305015041525                                    005648682201/05/15SPE5E215T3905.pdf  0000004EASCREW,CAP,HEXAGON H  PHPHBL1N100
SPE5E215T39065305015505863                                    005645473801/05/15SPE5E215T3906.pdf  0000001EASCREW,MACHINE        PHPHBD1N100
SPE5E215T39075305015900065                                    005645475801/05/15SPE5E215T3907.pdf  0000010EASCREW,CAP,HEXAGON H  PHPHBD1N100
SPE5E215T39085305014557863                                    005633409001/05/15SPE5E215T3908.pdf  0000181EASCREW,DRIVE          PHPHBG1N100
SPE5E215T39105305012645858                                    005642702201/05/15SPE5E215T3910.pdf  0000001EASCREW,MACHINE        PHPHBG1N100
SPE5E215T39135305009215408                                    005625172001/05/15SPE5E215T3913.pdf  0000002EASCREW,CAP,SOCKET HE  PHPHBG1N100
SPE5E415T36335306005699018                                    005649837901/05/15SPE5E415T3633.pdf  0000034EABOLT,RIBBED SHOULDE  PHPHBG1N100
SPE5E415T36345325008744481                                    005649840201/05/15SPE5E415T3634.pdf  0000138EASTUD,TURNLOCK FASTE  PHPHBL1N100
SPE5E415T36355306014985756                                    005649820201/05/15SPE5E415T3635.pdf  0000725EABOLT,MACHINE         PHPHBL1N100
SPE5E415T36365306010519622                                    005649816401/05/15SPE5E415T3636.pdf  0001802EABOLT,INTERNAL WRENCH PHPHBC1Y100
SPE5E415T36375307014802859                                    005649821501/05/15SPE5E415T3637.pdf  0000109EASTUD,SELF-LOCKING    PHPHBL1N100
SPE5E415T36385325000653713                                    005649927701/05/15SPE5E415T3638.pdf  0000096EAINSERT,SCREW THREAD  PHPHBG1N100
SPE5E415T36395306001156082                                    005649929001/05/15SPE5E415T3639.pdf  0000068EAROD,THREADED END     PHPHBG1N100
SPE5E415T36405306002662347                                    005649934201/05/15SPE5E415T3640.pdf  0000050EABOLT,MACHINE         PHPHBG1N100
SPE5E415T36415306006799658                                    005649848101/05/15SPE5E415T3641.pdf  0009229EAROD,THREADED END     PHPHBG1C100
SPE5E415T36445306011261199                                    005649886001/05/15SPE5E415T3644.pdf  0000238EABOLT,SHEAR           PHPHBG1N100
SPE5E415T36455340011549956                                    005649852101/05/15SPE5E415T3645.pdf  0000111EASHOE,LINKAGE         PHPHBD1N100
SPE5E415T36465340005979460                                    005648948701/05/15SPE5E415T3646.pdf  0000030EAPLUG,PROTECTIVE,DUS  PHPHBR1N100
SPE5E415T36475325009516445                                    005648952601/05/15SPE5E415T3647.pdf  0000050EASTUD,TURNLOCK FASTE  PHPHBH1N100
SPE5E415T36485306014334753                                    005650106101/05/15SPE5E415T3648.pdf  0000100EABOLT,MACHINE         PHPHBL1N100
SPE5E415T36495306014709571                                    005650019801/05/15SPE5E415T3649.pdf  0000120EABOLT,MACHINE         PHPHBL1N100
SPE5E415T36505306014750638                                    005640804201/05/15SPE5E415T3650.pdf  0000067EABOLT,SHEAR           PHPHBC1N100
SPE5E415T36515306014709585                                    005650020001/05/15SPE5E415T3651.pdf  0000100EABOLT,MACHINE         PHPHBL1N100
SPE5E415T36525325011102038                                    005580227301/05/15SPE5E415T3652.pdf  0002778EARING,RETAINING       PHPHBC1N100
SPE5E415T36535306014709572                                    005650164101/05/15SPE5E415T3653.pdf  0000210EABOLT,MACHINE         PHPHBL1N100
SPE5E415T36545340015661059                                    005644269401/05/15SPE5E415T3654.pdf  0000002EAMOUNT,RESILIENT,GEN  PHPHBL1N100
SPE5E415T36555306002270943                                    005588222301/05/15SPE5E415T3655.pdf  0000008EABOLT,MACHINE         PHPHBG1N100
SPE5E415T36575306013523120                                    005647645501/05/15SPE5E415T3657.pdf  0000002EABOLT,SHEAR           PHPHBG1N100
SPE5E415T36585325015235085                                    005593254301/05/15SPE5E415T3658.pdf  0000020EAFASTENER,SLIDE,INTE  PHPHBB1N100
SPE5E415T36615306014622409                                    005588218501/05/15SPE5E415T3661.pdf  0000009EABOLT,MACHINE         PHPHBG1N100
SPE5E715T31035310007680323                                    005649845301/05/15SPE5E715T3103.pdf  0001563EANUT,SELF-LOCKING,PL  PHPHAG1N100
SPE5E715T31045310013439736                                    005649851401/05/15SPE5E715T3104.pdf  0000496EANUT,PLAIN,HEXAGON    PHPHAL1N100
SPE5E715T31055310015060517                                    005649842201/05/15SPE5E715T3105.pdf  0000500PGWASHER,FLAT          PHPHAR1N100
SPE5E715T31065315007341175                                    005649833101/05/15SPE5E715T3106.pdf  0000159EAPIN,STRAIGHT,HEADED  PHPHAR1Y100
SPE5E715T31075310015274115                                    005649850701/05/15SPE5E715T3107.pdf  0001283EAWASHER,FLAT          PHPHAL1N100
SPE5E715T31085310015306023                                    005649826601/05/15SPE5E715T3108.pdf  0050000EAWASHER,FLAT          PHPHAD1N100
SPE5E715T31095310009752025                                    005649832501/05/15SPE5E715T3109.pdf  0000650EANUT SPACER,PLATE     PHPHAG1N100
SPE5E715T31105340010500473                                    005649816201/05/15SPE5E715T3110.pdf  0000022EABOOT,DUST AND MOIST  PHPHAR1N100
SPE5E715T31115310123563623                                    005649823801/05/15SPE5E715T3111.pdf  0001852EAWASHER,LOCK          PHPHAL1N100
SPE5E715T31135310000167134                                    005649930001/05/15SPE5E715T3113.pdf  0000447EANUT,SELF-LOCKING,HEADPHPHAG1N100
SPE5E715T31145310002640723                                    005649934101/05/15SPE5E715T3114.pdf  0000260EAWASHER,FLAT          PHPHAC1N100
SPE5E715T31155340010359474                                    005649917301/05/15SPE5E715T3115.pdf  0000060EABRACKET,ANGLE        PHPHAC1N100
SPE5E715T31165310009826831                                    005649920101/05/15SPE5E715T3116.pdf  0000307EAWASHER,FLAT          PHPHAG1N100
SPE5E715T31175340011261380                                    005649869501/05/15SPE5E715T3117.pdf  0000002EASLIDE,DRAWER,EXTENS  PHPHAG1N100
SPE5E715T31185315011587862                                    005649852701/05/15SPE5E715T3118.pdf  0007075EAPIN,STRAIGHT,HEADED  PHPHAG1Y100
SPE5E715T31195310013007024                                    005649878801/05/15SPE5E715T3119.pdf  0001137EAWASHER,FLAT          PHPHAR1N100
SPE5E715T31205310012680340                                    005649888001/05/15SPE5E715T3120.pdf  0000894EAWASHER,FLAT          PHPHAR1N100
SPE5E715T31215310013542515                                    005649867201/05/15SPE5E715T3121.pdf  0002987EAWASHER,FLAT          PHPHAP1R100
SPE5E715T31225315014470480                                    005649890201/05/15SPE5E715T3122.pdf  0000047EAPIN,STRAIGHT,HEADED  PHPHAL1N100
SPE5E715T31235340015150674                                    005649860101/05/15SPE5E715T3123.pdf  0000121EACOVER,PROTECTIVE,DU  PHPHAD1Y100
SPE5E715T31245315014394165                                    005649894401/05/15SPE5E715T3124.pdf  0000671EAPIN,LOCK             PHPHAG1N100
SPE5E715T31255310015746131                                    005649860501/05/15SPE5E715T3125.pdf  0000313EAWASHER,LOCK          PHPHAL1N100
SPE5E715T31265315015245281                                    005649851001/05/15SPE5E715T3126.pdf  0000002EASLING PIN            PHPHAD1N100
SPE5E715T31275340015511777                                    005650107101/05/15SPE5E715T3127.pdf  0000020EACOVER,ACCESS         PHPHAG1N100
SPE5E715T31285340001258776                                    005650108501/05/15SPE5E715T3128.pdf  0000001EACLIP,SPRING TENSION  PHPHAG1N100
SPE5E715T31295315011956660                                    005648948801/05/15SPE5E715T3129.pdf  0000001EAPIN,STRAIGHT,HEADLE  PHPHAG1N100
SPE5E715T31305340015528674                                    005648937901/05/15SPE5E715T3130.pdf  0000020EAANODE,CORROSION PRE  PHPHAD1N100
SPE5E715T31315315131162063                                    005649825201/05/15SPE5E715T3131.pdf  0000500HDPIN,COTTER           PHPHAR1N100
SPE5E715T31325310015197538                                    005620066001/05/15SPE5E715T3132.pdf  0000171EAWASHER,FLAT          PHPHAG1N100
SPE5E715T31345315013911588                                    005647646401/05/15SPE5E715T3134.pdf  0000004EAPIN,QUICK RELEASE    PHPHAG1N100
SPE5E815T38105310015494693                                    005649804901/05/15SPE5E815T3810.pdf  0000041EAWASHER,FLAT          PHPHAQ1N100
SPE5E815T38115310005349873                                    005649921601/05/15SPE5E815T3811.pdf  0000040EAWASHER,KEY           PHPHAG1N100
SPE5E815T38125310004347157                                    005649925101/05/15SPE5E815T3812.pdf  0000232EAWASHER,FLAT          PHPHAG1N100
SPE5E815T38135310012018667                                    005649861801/05/15SPE5E815T3813.pdf  0000382EANUT,PLAIN,HEXAGON    PHPHAR1N100
SPE5E815T38145331012059790                                    005649858901/05/15SPE5E815T3814.pdf  0000012EAO-RING               PHPHAQ1N100
SPE5E815T38155355013648643                                    005649860001/05/15SPE5E815T3815.pdf  0000159EAKNOB                 PHPHAL1N100
SPE5E815T38165310015239885                                    005649853901/05/15SPE5E815T3816.pdf  0004396EANUT,SELF-LOCKING,HE  PHPHAC1N100
SPE5E815T38175340015687368                                    005649897401/05/15SPE5E815T3817.pdf  0000177EACLIP,RETAINING       PHPHAC1Y100
SPE5E815T38185355001558031                                    005650109701/05/15SPE5E815T3818.pdf  0000001EAKNOB                 PHPHAG1N100
SPE5E815T38195310004529780                                    005650111401/05/15SPE5E815T3819.pdf  0000040EAWASHER,FLAT          PHPHAD1N100
SPE5E815T38205331004687060                                    005648943901/05/15SPE5E815T3820.pdf  0000004EAO-RING               PHPHAG1N100
SPE5E815T38215310014984388                                    005637269201/05/15SPE5E815T3821.pdf  0000036EANUT,PLAIN,CLINCH     PHPHAR1N100
SPE5E815T38225331012736149                                    005648944601/05/15SPE5E815T3822.pdf  0000001EAO-RING               PHPHAL1N100
SPE5E815T38235330013127669                                    005648941401/05/15SPE5E815T3823.pdf  0000008EAGASKET               PHPHAG1N100
SPE5E815T38245331016085820                                    005648936901/05/15SPE5E815T3824.pdf  0000004EAO-RING               PHPHAL1N100
SPE5E815T38265310010789696                                    005597507401/05/15SPE5E815T3826.pdf  0000005EANUT,SELF-LOCKING,PL  PHPHAG1N100
SPE5E815T38275310016121964                                    005646023901/05/15SPE5E815T3827.pdf  0000003EAWASHER,LOCK          PHPHAD1N100
SPE5E815T38285331013179504                                    005648238901/05/15SPE5E815T3828.pdf  0000002EAO-RING               PHPHAL1N100
SPE5E815T38295331013528153                                    005648228801/05/15SPE5E815T3829.pdf  0000001EAO-RING               PHPHAL1N100
SPE5E815T38305310016094658                                    005642693201/05/15SPE5E815T3830.pdf  0000010PGNUT,PLAIN,EXTENDED   PHPHAD1N100
SPE5E815T38315331014139518                                    005647999401/05/15SPE5E815T3831.pdf  0000001EAO-RING               PHPHAL1N100
SPE5E815T38325355015724447                                    005649093501/05/15SPE5E815T3832.pdf  0000002EAKNOB                 PHPHAD1N100
SPE5E815T38335331013632880                                    005649127501/05/15SPE5E815T3833.pdf  0000002EAO-RING               PHPHAL1N100
SPE5E815T38345331013632879                                    005649152201/05/15SPE5E815T3834.pdf  0000005EAO-RING               PHPHAL1N100
SPE5E815T38355310995476584                                    005650457101/05/15SPE5E815T3835.pdf  0000001EAWASHER,FLAT          PHPHAL1N100
SPE5E815T38365310007747097                                    005647664901/05/15SPE5E815T3836.pdf  0000008EANUT,SELF-LOCKING,PL  PHPHAG1N100
SPE5E815T38375331014642485                                    005571441501/05/15SPE5E815T3837.pdf  0000105EAO-RING               PHPHAC1N100
SPE5E915T24845320010435862                                    005649915401/05/15SPE5E915T2484.pdf  0000051HDRIVET,BLIND          PHPHAG1Y100
SPE5E915T24865320011511064                                    005649880201/05/15SPE5E915T2486.pdf  0000146EARIVET,BLIND          PHPHAG1N100
SPE5E915T24875320013127264                                    005649856901/05/15SPE5E915T2487.pdf  0000104EAPIN-RIVET            PHPHAR1N100
SPE5E915T24885320014174363                                    005649909401/05/15SPE5E915T2488.pdf  0000652EARIVET,BLIND          PHPHAL1H100
SPE5E915T24895340014340365                                    005649891501/05/15SPE5E915T2489.pdf  0000040EACASTER,SWIVEL        PHPHAR1N100
SPE5E915T24905320014147212                                    005649895501/05/15SPE5E915T2490.pdf  0000005HDPIN-RIVET            PHPHAR1N100
SPE5E915T24915340016023662                                    005649871001/05/15SPE5E915T2491.pdf  0000317EARETAINER,NUT AND BO  PHPHAG1N100
SPE5E915T24925320016318512                                    005649883601/05/15SPE5E915T2492.pdf  0000125EARIVET,BLIND          PHPHAD1N100
SPE5E915T24935320008459883                                    005648929401/05/15SPE5E915T2493.pdf  0000200EARIVET,BLIND          PHPHAR1N100
SPE5E915T24945320011442287                                    005649671801/05/15SPE5E915T2494.pdf  0000504EAPIN-RIVET            PHPHAC1H100
SPE5E915T24955320009484211                                    005648929501/05/15SPE5E915T2495.pdf  0000200EARIVET,BLIND          PHPHAL1N100
SPE5E915T24975320008664664                                    005645835101/05/15SPE5E915T2497.pdf  0000256EARIVET,BLIND          PHPHAG1N100
SPE5EJ15T34615330014800723                                    005649821401/05/15SPE5EJ15T3461.pdf  0000042EASEAL,NONMETALLIC ST  PHPHCG1N100
SPE5EJ15T34625330013324129                                    005649854201/05/15SPE5EJ15T3462.pdf  0000082EAGASKET               PHPHCR1N100
SPE5EJ15T34635330010159700                                    005649829301/05/15SPE5EJ15T3463.pdf  0000163EAPACKING ASSEMBLY     PHPHCC1Y100
SPE5EJ15T34645330014979009                                    005649818001/05/15SPE5EJ15T3464.pdf  0000811EAPACKING,PREFORMED    PHPHCD1N100
SPE5EJ15T34655330015233027                                    005649853601/05/15SPE5EJ15T3465.pdf  0000183EASEAL,NONMETALLIC ST  PHPHCL1H100
SPE5EJ15T34665330014792231                                    005649821301/05/15SPE5EJ15T3466.pdf  0001961EAGASKET               PHPHCC1N100
SPE5EJ15T34675330016281539                                    005649827601/05/15SPE5EJ15T3467.pdf  0000003ROSEAL,NONMETALLIC SP  PHPHCG1Y100
SPE5EJ15T34685330015221308                                    005649857401/05/15SPE5EJ15T3468.pdf  0000023EAGASKET               PHPHCR1N100
SPE5EJ15T34695330001823338                                    005649936001/05/15SPE5EJ15T3469.pdf  0000005EAGASKET               PHPHCR1N100
SPE5EJ15T34705330003920740                                    005649912801/05/15SPE5EJ15T3470.pdf  0000134EASEAL,RUBBER SPECIAL  PHPHCG1N100
SPE5EJ15T34715330004065619                                    005649923401/05/15SPE5EJ15T3471.pdf  0000062EAGASKET               PHPHCL1N100
SPE5EJ15T34735305012651188                                    005649887601/05/15SPE5EJ15T3473.pdf  0001010EASCREW,CAP,SOCKET HEADPHPHCG1N100
SPE5EJ15T34745340011664492                                    005649877801/05/15SPE5EJ15T3474.pdf  0000051EAHOLDER,SPRING        PHPHCL1Y100
SPE5EJ15T34755330013868210                                    005649906101/05/15SPE5EJ15T3475.pdf  0000009EAGASKET,SPIRAL WOUND  PHPHCG1N100
SPE5EJ15T34765330013750243                                    005649903601/05/15SPE5EJ15T3476.pdf  0000056EASEAL,PLAIN ENCASED   PHPHCL1N100
SPE5EJ15T34775330014126720                                    005649901601/05/15SPE5EJ15T3477.pdf  0000030EAGASKET               PHPHCL1N100
SPE5EJ15T34785330013809508                                    005649904301/05/15SPE5EJ15T3478.pdf  0000032EAGASKET,SPIRAL WOUND  PHPHCG1N100
SPE5EJ15T34795305014329783                                    005649910901/05/15SPE5EJ15T3479.pdf  0000047EASCREW ASSEMBLY,PANE  PHPHCL1N100
SPE5EJ15T34805330012135423                                    005648940401/05/15SPE5EJ15T3480.pdf  0000001AYPACKING ASSEMBLY     PHPHCL1N100
SPE5EJ15T34815330012147928                                    005648940301/05/15SPE5EJ15T3481.pdf  0000001AYPACKING ASSEMBLY     PHPHCL1N100
SPE5EJ15T34825330015145614                                    005648946401/05/15SPE5EJ15T3482.pdf  0000001EAPACKING ASSEMBLY     PHPHCR1N100
SPE5EJ15T34835330016155738                                    005631986501/05/15SPE5EJ15T3483.pdf  0000050EAGASKET               PHPHCC1N100
SPE5EJ15T34845330013605928                                    005649958701/05/15SPE5EJ15T3484.pdf  0000030EAGASKET               PHPHCL1N100
SPE5EJ15T34855360014699720                                    005649018001/05/15SPE5EJ15T3485.pdf  0000240EASPRING,HELICAL,COMP  PHPHCL1N100
SPE5EJ15T34875310013648986                                    005619988001/05/15SPE5EJ15T3487.pdf  0000019HDNUT,PLAIN,HEXAGON    PHPHCG1Y100
SPE5EJ15T34885330013882401                                    005649007801/05/15SPE5EJ15T3488.pdf  0000002EAGASKET               PHPHCT1N100
SPE5EJ15T34895330013515549                                    005648238601/05/15SPE5EJ15T3489.pdf  0000001EAGASKET               PHPHCP1N100
SPE5EJ15T34905360011339718                                    005306759101/05/15SPE5EJ15T3490.pdf  0000008EASPRING,HELICAL,COMP  PHPHCR1N100
SPE5EJ15T34915330016199022                                    005650527701/05/15SPE5EJ15T3491.pdf  0000001EARETAINER,PACKING     PHPHCG1N100
SPE5EK15T33765340013428840                                    005649851301/05/15SPE5EK15T3376.pdf  0000610EABUMPER               PHPHCL1N100
SPE5EK15T33775340991480007                                    005649823301/05/15SPE5EK15T3377.pdf  0000006EABRACKET,MOUNTING     PHPHCD1N100
SPE5EK15T33785340013313811                                    005649854401/05/15SPE5EK15T3378.pdf  0000106EACLAMP,LOOP           PHPHCC1N100
SPE5EK15T33795340015220242                                    005649857301/05/15SPE5EK15T3379.pdf  0000007EAPLATE,CHANNEL        PHPHCR1N100
SPE5EK15T33805340001788104                                    005649935701/05/15SPE5EK15T3380.pdf  0000057EACASTER,SWIVEL        PHPHCC1N100
SPE5EK15T33815340011458310                                    005649882901/05/15SPE5EK15T3381.pdf  0000032EACOVER,ACCESS         PHPHCG1N100
SPE5EK15T33825340011881845                                    005649866901/05/15SPE5EK15T3382.pdf  0002629EACLAMP,LOOP           PHPHCG1N100
SPE5EK15T33835340015700014                                    005649897901/05/15SPE5EK15T3383.pdf  0000223EACLIP,SPRING TENSION  PHPHCD1N100
SPE5EK15T33845340016213825                                    005649883801/05/15SPE5EK15T3384.pdf  0000250EACAP,PROTECTIVE,DUST  PHPHCG1N100
SPE5EK15T33855340016165439                                    005649886701/05/15SPE5EK15T3385.pdf  0000127EACLAMP,LOOP           PHPHCD1N100
SPE5EK15T33865340015888409                                    005649908401/05/15SPE5EK15T3386.pdf  0000931EASAFETY CABLE KIT     PHPHCG1N100
SPE5EK15T33875340013137954                                    005648937701/05/15SPE5EK15T3387.pdf  0000001EACOVER,ACCESS         PHPHCD1N100
SPE5EK15T33885340013029446                                    005648938201/05/15SPE5EK15T3388.pdf  0000004EACLAMP,SYNCHRO        PHPHCC1N100
SPE5EK15T33895360011058739                                    005648929801/05/15SPE5EK15T3389.pdf  0000001EASPRING,HELICAL,COMP  PHPHCG1N100
SPE5EK15T33905340013583623                                    005609782301/05/15SPE5EK15T3390.pdf  0000004EASLIDE,DRAWER,EXTENS  PHPHCR1N100
SPE5EK15T33915360011800538                                    005626750401/05/15SPE5EK15T3391.pdf  0000544EASPRING,HELICAL,COMP  PHPHCG1N100
SPE5EK15T33925340014705113                                    005649822701/05/15SPE5EK15T3392.pdf  0000197EARETAINER,HELICAL CO  PHPHCD1N100
SPE5EK15T33935340016204911                                    005649889501/05/15SPE5EK15T3393.pdf  0000007EABRACKET,MOUNTING     PHPHCD1N100
SPE5EK15T33945340016168524                                    005642686601/05/15SPE5EK15T3394.pdf  0000003EABRACKET,MOUNTING     PHPHCR1N100
SPE5EK15T33955340015878549                                    005575410901/05/15SPE5EK15T3395.pdf  0000032EACOVER,ACCESS         PHPHCG1N100
SPE5EK15T33965340013709838                                    005615230701/05/15SPE5EK15T3396.pdf  0000031EACLAMP,LOOP           PHPHCC1H100
SPE5EK15T33975340015880441                                    005648934601/05/15SPE5EK15T3397.pdf  0000001EAGUIDE,HANDLE         PHPHCD1N100
SPE5EK15T33985340015873418                                    005648934401/05/15SPE5EK15T3398.pdf  0000001EAGUIDE,MECHANISM      PHPHCL1N100
SPE5EK15T33995340015044221                                    005271493701/05/15SPE5EK15T3399.pdf  0000750EACLAMP,LOOP           PHPHCP1N100
SPE5EK15T34005340015702708                                    005644269801/05/15SPE5EK15T3400.pdf  0000001EABRACKET,SHELF        PHPHCD1N100
SPE5EK15T34015340016235148                                    005642673801/05/15SPE5EK15T3401.pdf  0000001EAHINGE,BUTT           PHPHCC1N100
SPE5EK15T34025340010592449                                    005649345201/05/15SPE5EK15T3402.pdf  0000002EACLAMP,LOOP           PHPHCL1N100
SPE5EM15T34615330012058977                                    005649858801/05/15SPE5EM15T3461.pdf  0000449EASEAL,PLAIN ENCASED   PHPHCL1N100
SPE5EM15T34625330015644963                                    005649828801/05/15SPE5EM15T3462.pdf  0000287EASEAL,PLAIN           PHPHCL1N100
SPE5EM15T34635340015400387                                    005649850601/05/15SPE5EM15T3463.pdf  0000016EAHINGE,BUTT           PHPHCG1N100
SPE5EM15T34645330015263063                                    005649853301/05/15SPE5EM15T3464.pdf  0000014EAGASKET               PHPHCR1N100
SPE5EM15T34655330014990555                                    005649820301/05/15SPE5EM15T3465.pdf  0000313EAGASKET               PHPHCC1N100
SPE5EM15T34665360012085667                                    005649858401/05/15SPE5EM15T3466.pdf  0000007EASPRING,HELICAL,COMPREPHPHCP1N100
SPE5EM15T34675330015479083                                    005649804201/05/15SPE5EM15T3467.pdf  0000011EASEAL RING,METAL      PHPHCD1N100
SPE5EM15T34685330009821053                                    005649918001/05/15SPE5EM15T3468.pdf  0000257EAGASKET               PHPHCL1N100
SPE5EM15T34695360009763953                                    005649917901/05/15SPE5EM15T3469.pdf  0000116EASPRING,TENSION LATC  PHPHCL1N100
SPE5EM15T34705330009307861                                    005649938201/05/15SPE5EM15T3470.pdf  0000201EAGASKET AND SEAL SET  PHPHCC1N100
SPE5EM15T34715330011441670                                    005649882401/05/15SPE5EM15T3471.pdf  0000040EAGASKET               PHPHCL1N100
SPE5EM15T34725340013836089                                    005649904801/05/15SPE5EM15T3472.pdf  0000043EACLAMP,LOOP           PHPHCC1N100
SPE5EM15T34735340015735988                                    005649900701/05/15SPE5EM15T3473.pdf  0000005EABRACKET,MULTIPLE AN  PHPHCR1N100
SPE5EM15T34745360014772369                                    005649937301/05/15SPE5EM15T3474.pdf  0000042EASPRING,HELICAL,COMP  PHPHCD1N100
SPE5EM15T34755330016280462                                    005648936201/05/15SPE5EM15T3475.pdf  0000013EAGASKET               PHPHCD1N100
SPE5EM15T34765330013226056                                    005648951601/05/15SPE5EM15T3476.pdf  0000001EAGASKET               PHPHCH1N100
SPE5EM15T34775330014950070                                    005648941301/05/15SPE5EM15T3477.pdf  0000002EASEAL,PLAIN           PHPHCD1N100
SPE5EM15T34785330015192155                                    005648950301/05/15SPE5EM15T3478.pdf  0000001EAGASKET               PHPHCH1N100
SPE5EM15T34795330016239391                                    005648945001/05/15SPE5EM15T3479.pdf  0000002KTPARTS KIT,SEAL REPL  PHPHCQ1N100
SPE5EM15T34805330123884588                                    005637275101/05/15SPE5EM15T3480.pdf  0000001EASEAL ASSEMBLY,MISSI  PHPHCD1N100
SPE5EM15T34815340014698688                                    005642721401/05/15SPE5EM15T3481.pdf  0000063EACATCH,CLAMPING       PHPHCC1N100
SPE5EM15T34825330150018495                                    005615551901/05/15SPE5EM15T3482.pdf  0000018EAGASKET               PHPHCD1N100
SPE5EM15T34835340013832489                                    005647672601/05/15SPE5EM15T3483.pdf  0000001EACATCH,CLAMPING       PHPHCG1N100
SPE5EM15T34845330013512768                                    005648228901/05/15SPE5EM15T3484.pdf  0000002EAGASKET               PHPHCL1N100
SPE5EM15T34855330015835368                                    005649014301/05/15SPE5EM15T3485.pdf  0000004EAGASKET               PHPHCL1N100
SPE5EM15T34865330013634175                                    005643920101/05/15SPE5EM15T3486.pdf  0000246EAPACKING,PREFORMED    PHPHCG1N100
SPE5EM15T34875340011245985                                    005627628001/05/15SPE5EM15T3487.pdf  0000002EASEAT,HELICAL COMPRE  PHPHCP1N100
SPE5EM15T34885330004523154                                    005650150001/05/15SPE5EM15T3488.pdf  0000001EASEALING RING         PHPHCR1N100
SPE5EM15T34895340014360681                                    005649276201/05/15SPE5EM15T3489.pdf  0000001EABRACKET,MOUNTING     PHPHCP1N100
SPE5EM15T34905340015798686                                    005627057901/05/15SPE5EM15T3490.pdf  0000001EACLIP,RETAINING       PHPHCD1N100
SPE5EM15T34915330009986192                                    005649461701/05/15SPE5EM15T3491.pdf  0000001EAGASKET               PHPHCH1N100
SPE5EM15T34925340016212883                                    005650570401/05/15SPE5EM15T3492.pdf  0000004EACLIP,RETAINING       PHPHCD1N100
SPE5EM15T34935330016200896                                    005650570101/05/15SPE5EM15T3493.pdf  0000001EAPACKING ASSEMBLY     PHPHCD1N100
SPE5EM15T34945330001978493                                    005649488301/05/15SPE5EM15T3494.pdf  0000004FTPACKING MATERIAL     PHPHCG1N100
SPE7L015T16134910016263422                                    005648952201/05/15SPE7L015T1613.pdf  0000002EAJACK,SIDE WIND       PLCLBD1N100
SPE7L015T16143020013212267                                    005649016301/05/15SPE7L015T1614.pdf  0000001EAGEAR,SPUR            PLCLBG1N100
SPE7L015T16153040014250393                                    005624781301/05/15SPE7L015T1615.pdf  0000002EAPLATE,RETAINING,SHA  PLCLSG1N100
SPE7L015T16162510015584839                                    005645476801/05/15SPE7L015T1616.pdf  0000001EAPLATE,ARMOR,OVERLAP  PLCLSD1N100
SPE7L115T20743120015649076                                    005609313001/02/15SPE7L115T2074.pdf  0000001EABEARING,UPPER        PLCLDG1N100
SPE7L115T20752530015512781                                    005643797501/05/15SPE7L115T2075.pdf  0000044EAHUB,WHEEL,VEHICULAR  DDS00D1N100
SPE7L115T207697907D6950143                                    005650178001/05/15SPE7L115T2076.pdf  0000001EAEMERGENCY BUY & NON-NPLCLDH2N100
SPE7L115T207797907R6237431                                    005650217301/05/15SPE7L115T2077.pdf  0000001EAEMERGENCY BUY & NON-NPLCLDH2N100
SPE7L115T2078300761361139                                     005650217101/05/15SPE7L115T2078.pdf  0000001EAEMERGENCY BUY & NON-NPLCLDH2N100
SPE7L115T207997907K6636935                                    005650213101/05/15SPE7L115T2079.pdf  0000001EAEMERGENCY BUY & NON-NPLCLDH2N100
SPE7L115T208097907K6341408                                    005650139901/05/15SPE7L115T2080.pdf  0000002EAEMERGENCY BUY & NON-NPLCLDH2N100
SPE7L115T208197907X6750153                                    005650140001/05/15SPE7L115T2081.pdf  0000001EAEMERGENCY BUY & NON-NPLCLDH2N100
SPE7L115T208297907S0338783                                    005650177701/05/15SPE7L115T2082.pdf  0000001EAEMERGENCY BUY & NON-NPLCLDH2N100
SPE7L115T208397907J6252029                                    005650177801/05/15SPE7L115T2083.pdf  0000002EAEMERGENCY BUY & NON-NPLCLDH2N100
SPE7L115T208497907J6636934                                    005650177901/05/15SPE7L115T2084.pdf  0000001EAEMERGENCY BUY & NON-NPLCLDH2N100
SPE7L115T208555719ECF925C                                     005650559301/05/15SPE7L115T2085.pdf  0000010EAEMERGENCY BUY & NON-NPLCLDH2N100
SPE7L115T2086675752871A306                                    005650654801/05/15SPE7L115T2086.pdf  0000001EAEMERGENCY BUY & NON-NPLCLDH2N100
SPE7L115T2087675752871A306                                    005650655201/05/15SPE7L115T2087.pdf  0000001EAEMERGENCY BUY & NON-NPLCLDH2N100
SPE7L115T20883G6194012443                                     005650655301/05/15SPE7L115T2088.pdf  0000001EAEMERGENCY BUY & NON-NPLCLDH2N100
SPE7L115T20892Y14641103                                       005650656001/05/15SPE7L115T2089.pdf  0000006EAEMERGENCY BUY & NON-NPLCLDH2N100
SPE7L115T209004627850995                                      005650656301/05/15SPE7L115T2090.pdf  0000006EAEMERGENCY BUY & NON-NPLCLDH2N100
SPE7L115T2091154343039434                                     005650664201/05/15SPE7L115T2091.pdf  0000002EAEMERGENCY BUY & NON-NPLCLDH2N100
SPE7L115T20922Y1462172296                                     005650667201/05/15SPE7L115T2092.pdf  0000001EAEMERGENCY BUY & NON-NPLCLDH2N100
SPE7L115T209312658RS3954                                      005650667301/05/15SPE7L115T2093.pdf  0000003EAEMERGENCY BUY & NON-NPLCLDH2N100
SPE7L115T2094449403907617                                     005650667501/05/15SPE7L115T2094.pdf  0000001EAEMERGENCY BUY & NON-NPLCLDH2N100
SPE7L115T2095449403902666                                     005650667601/05/15SPE7L115T2095.pdf  0000006EAEMERGENCY BUY & NON-NPLCLDH2N100
SPE7L215T33762530013425899                                    005649849001/05/15SPE7L215T3376.pdf  0000002EACONTROL ASSEMBLY,ST  PLCLDC1N100
SPE7L215T33773020009669145                                    005649832301/05/15SPE7L215T3377.pdf  0000015EAGEAR,HELICAL         PLCLBR1N100
SPE7L215T33782910009207580                                    005649716801/05/15SPE7L215T3378.pdf  0000866EAPARTS KIT,FUEL INJE  PLCLDL1N100
SPE7L215T33793040014786446                                    005649821101/05/15SPE7L215T3379.pdf  0000023EABRACKET,EYE,NONROTA  PLCLDC1N100
SPE7L215T33802540015223331                                    005649857501/05/15SPE7L215T3380.pdf  0000706EALATCH,DOOR,VEHICULA  PLCLBP1Y100
SPE7L215T33813040219076524                                    005649825801/05/15SPE7L215T3381.pdf  0000056EACYLINDER ASSEMBLY,A  PLCLBD1N100
SPE7L215T33823030997928433                                    005649835701/05/15SPE7L215T3382.pdf  0000089EABELT,V               PLCLBD1N100
SPE7L215T33832910001198494                                    005649929301/05/15SPE7L215T3383.pdf  0000379EASPRAY TIP,NOZZLE,NO  PLCLZZ1Y100
SPE7L215T33842930004043059                                    005649923301/05/15SPE7L215T3384.pdf  0000008EAPUMP,COOLING SYSTEM  PLCLBR1N100
SPE7L215T33852815011637189                                    005649877401/05/15SPE7L215T3385.pdf  0000920EAVALVE,POPPET,ENGINE  PLCLZC1H100
SPE7L215T33862815012686129                                    005649868501/05/15SPE7L215T3386.pdf  0000010EACYLINDER HEAD,DIESE  PLCLDD1N100
SPE7L215T33872990011227913                                    005649874501/05/15SPE7L215T3387.pdf  0000006EASUPERCHARGER,ENGINE  PLCLDN1R100
SPE7L215T33884820013829785                                    005649904601/05/15SPE7L215T3388.pdf  0000019EAGAGGING DEVICE,VALV  PLCLZG1Y100
SPE7L215T33892815014750825                                    005649937001/05/15SPE7L215T3389.pdf  0000030EAOIL PUMP ASSEMBLY,E  PLCLDH1N100
SPE7L215T33905365015849003                                    005649907601/05/15SPE7L215T3390.pdf  0000229EASHIM                 PLCLBC1N100
SPE7L215T33912910015703536                                    005649900101/05/15SPE7L215T3391.pdf  0000016EAHOUSING,FUEL PUMP    PLCLBC1N100
SPE7L215T33922540011639931                                    005648931601/05/15SPE7L215T3392.pdf  0000002SHINSULATION,VEHICULA  PLCLBD1N100
SPE7L215T33932990011558025                                    005648953701/05/15SPE7L215T3393.pdf  0000001EAMUFFLER,EXHAUST      PLCLDL1N100
SPE7L215T33943030015887609                                    005648953801/05/15SPE7L215T3394.pdf  0000001EABELT,V               PLCLBD1N100
SPE7L215T33952920016024954                                    005648930801/05/15SPE7L215T3395.pdf  0000001EAGENERATOR,ENGINE AC  PLCLDD1N100
SPE7L215T33962815014866521                                    005648948501/05/15SPE7L215T3396.pdf  0000002EAFLYWHEEL,ENGINE      PLCLDC1N100
SPE7L215T33974810013602415                                    005649906501/05/15SPE7L215T3397.pdf  0000142EARETAINER,DISK,VALVE  PLCLBL1N100
SPE7L215T33982910015692881                                    005650106201/05/15SPE7L215T3398.pdf  0000010EAPUMP,FUEL,METERING   PLCLZC1N100
SPE7L215T33995340016193062                                    005621859601/05/15SPE7L215T3399.pdf  0000086EABRACKET,MOUNTING     PLCLDQ1Y100
SPE7L215T34005963015859269                                    005648632601/05/15SPE7L215T3400.pdf  0000002EAELECTRONIC MODULE,S  PLCLDD1N100
SPE7L215T34012815015069985                                    005650019901/05/15SPE7L215T3401.pdf  0000060EAGUIDE,ENGINE POPPET  PLCLDC1N100
SPE7L215T34022920012319714                                    005649800301/05/15SPE7L215T3402.pdf  0000005EAREGULATOR,ENGINE GE  PLCLDZ1N100
SPE7L215T34032805014743188                                    005650019601/05/15SPE7L215T3403.pdf  0000060EACYLINDER SLEEVE      PLCLDD1N100
SPE7L215T34045365016167540                                    005642738501/05/15SPE7L215T3404.pdf  0000002EABUSHING BLANK        PLCLBD1N100
SPE7L215T34052540015257167                                    005584802201/05/15SPE7L215T3405.pdf  0000012EALATCH,DOOR,VEHICULA  PLCLBG1R100
SPE7L215T34062540016170612                                    005650306201/05/15SPE7L215T3406.pdf  0000015EASEAT,VEHICULAR       PLCLBD1N100
SPE7L315T74602520009216108                                    005649717001/05/15SPE7L315T7460.pdf  0000008EASUPPORT,PUMP,CONVER  PLCLBG1N100
SPE7L315T74613040014970692                                    005649817801/05/15SPE7L315T7461.pdf  0000011EAWEIGHT,COUNTERBALAN  C0130G1R100
SPE7L315T74622520015157020                                    005649860201/05/15SPE7L315T7462.pdf  0000073EABREATHER             PLCLBD1N100
SPE7L315T74633040008305005                                    005649843201/05/15SPE7L315T7463.pdf  0000025EAWEIGHT,COUNTERBALAN  PLCLBG1N100
SPE7L315T74643040006136568                                    005649838901/05/15SPE7L315T7464.pdf  0000050EADAMPER,INERTIA       PLCLBC1C100
SPE7L315T74652530015621971                                    005649836601/05/15SPE7L315T7465.pdf  0000020EAADJUSTER,SLACK,BRAK  PLCLBD1N100
SPE7L315T74664910011796122                                    005649846901/05/15SPE7L315T7466.pdf  0000007EATOOL,TIGHTENING      PLCLBD1N100
SPE7L315T74677690015541666                                    005649824701/05/15SPE7L315T7467.pdf  0000575EADECAL                PLCLBD1Y100
SPE7L315T74685306015644362                                    005649828501/05/15SPE7L315T7468.pdf  0000807EABOLT,MACHINE         PLCLBD1N100
SPE7L315T74692520010289953                                    005649819401/05/15SPE7L315T7469.pdf  0000009EAPLATE ASSY,TRANSFER  C0129R1N100
SPE7L315T74704710015659929                                    005649831501/05/15SPE7L315T7470.pdf  0000008EATUBE,METALLIC        PLCLBD1N100
SPE7L315T74712510016295326                                    005649827901/05/15SPE7L315T7471.pdf  0000002KTINSTALLATION KIT,VE  PLCLBD1N100
SPE7L315T74722940014868732                                    005649822401/05/15SPE7L315T7472.pdf  0000186EAAIR CLEANER,INTAKE   PLCLBR1N100
SPE7L315T74733040015338882                                    005649844901/05/15SPE7L315T7473.pdf  0000029EABALL JOINT           PLCLBD1N100
SPE7L315T74742590015658629                                    005649831401/05/15SPE7L315T7474.pdf  0000002EAWINCH,DRUM,VEHICLE   PLCLBD1Y100
SPE7L315T74753040000977753                                    005649928701/05/15SPE7L315T7475.pdf  0000021EAHOUSING,MECHANICAL   C0130Q1N100
SPE7L315T74762520002326023                                    005649930901/05/15SPE7L315T7476.pdf  0000010EAGUIDE,GAGE ROD       PLCLBG1N100
SPE7L315T74773040011489527                                    005649885301/05/15SPE7L315T7477.pdf  0000005EASHAFT,INPUT          PLCLBG1N100
SPE7L315T74782520013092964                                    005649882001/05/15SPE7L315T7478.pdf  0000017EADISK,CLUTCH,VEHICUL  PLCLBH1N100
SPE7L315T74794910013742140                                    005649903201/05/15SPE7L315T7479.pdf  0000008EASTAND,MAINTENANCE,A  PLCLBZ1C100
SPE7L315T74802530014259516                                    005649910401/05/15SPE7L315T7480.pdf  0000004EAVALVE,STEERING SELE  PLCLBL1N100
SPE7L315T74812590013899875                                    005649911101/05/15SPE7L315T7481.pdf  0000112EAREPAIR KIT, SUPPORT RPLCLBG1R100
SPE7L315T74824810015790710                                    005649893201/05/15SPE7L315T7482.pdf  0000026EAACTUATOR,HYDRAULIC-  PLCLBD1N100
SPE7L315T74834730015858337                                    005649907901/05/15SPE7L315T7483.pdf  0000183EAPLUG,PIPE            PLCLBD1N100
SPE7L315T74842815015247622                                    005649853101/05/15SPE7L315T7484.pdf  0000003EACYLINDER HEAD,DIESE  PLCLBC1N100
SPE7L315T74854730015687483                                    005649897501/05/15SPE7L315T7485.pdf  0000050EACLAMP,HOSE           PLCLBC1Y100
SPE7L315T74862530014777534                                    005649937801/05/15SPE7L315T7486.pdf  0000052EATIE ROD,STEERING     PLCLBL1N100
SPE7L315T74875945015968245                                    005649905401/05/15SPE7L315T7487.pdf  0000040EASOLENOID,ELECTRICAL  PLCLBC1N100
SPE7L315T74882590016083600                                    005649890001/05/15SPE7L315T7488.pdf  0000022EABRACKET,VEHICULAR C  PLCLBD1N100
SPE7L315T74895998015993285                                    005649907101/05/15SPE7L315T7489.pdf  0000004EAELECTRONIC COMPONEN  PLCLBC1N100
SPE7L315T74902530015742748                                    005649901001/05/15SPE7L315T7490.pdf  0000019KTBRAKE LINING KIT     PLCLBD1N100
SPE7L315T74916150015838638                                    005649907301/05/15SPE7L315T7491.pdf  0000470EACABLE ASSEMBLY,SPEC  PLCLBC1N100
SPE7L315T74923040015723148                                    005649900401/05/15SPE7L315T7492.pdf  0000002EACYLINDER,ACTUATING,  C0151D1Y100
SPE7L315T74932510016183283                                    005649888301/05/15SPE7L315T7493.pdf  0000005EAGRILLE,METAL         PLCLBG1N100
SPE7L315T74944910016202637                                    005649888801/05/15SPE7L315T7494.pdf  0000010KTSUPPLY KIT 2         PLCLBD1N100
SPE7L315T74952510015919266                                    005649902401/05/15SPE7L315T7495.pdf  0000019EAPADDING,LEFT FRONT   PLCLBD1N100
SPE7L315T74962530016104370                                    005649865201/05/15SPE7L315T7496.pdf  0000011EACHAMBER,AIR BRAKE    PLCLBD1N100
SPE7L315T74972590016084113                                    005649892201/05/15SPE7L315T7497.pdf  0000021EARETAINER,SPARE TIRE  PLCLBD1N100
SPE7L315T74982540016131396                                    005649865701/05/15SPE7L315T7498.pdf  0000011EASEAT,VEHICULAR       PLCLBC1Y100
SPE7L315T74992520016191979                                    005649888601/05/15SPE7L315T7499.pdf  0000006EAYOKE,UNIVERSAL JOIN  PLCLBC1N100
SPE7L315T75003040015844511                                    005649907501/05/15SPE7L315T7500.pdf  0000040EALEVER,REMOTE CONTRO  PLCLBC1N100
SPE7L315T75012590016084933                                    005649860601/05/15SPE7L315T7501.pdf  0000025EARETAINER,SPARE TIRE  PLCLBD1N100
SPE7L315T75022530006061567                                    005650110601/05/15SPE7L315T7502.pdf  0000002EADISC,BRAKE           PLCLBH1N100
SPE7L315T75033040009381620                                    005650108701/05/15SPE7L315T7503.pdf  0000001EASTOP,SHAFT           PLCLBG1N100
SPE7L315T75042510015970768                                    005648931201/05/15SPE7L315T7504.pdf  0000001EASIDE RACK,VEHICLE B  PLCLBD1N100
SPE7L315T75052590015647436                                    005649829001/05/15SPE7L315T7505.pdf  0000009EABRACKET,VEHICULAR C  PLCLBD1N100
SPE7L315T75065310015563908                                    005649834701/05/15SPE7L315T7506.pdf  0001200EAWASHER,FLAT          PLCLBC1N100
SPE7L315T75072940015765330                                    005648952901/05/15SPE7L315T7507.pdf  0000001EACOVER,FLUID FILTER   PLCLBD1N100
SPE7L315T75082590016079630                                    005649889901/05/15SPE7L315T7508.pdf  0000016EARETAINER,SPARE TIRE  PLCLBD1N100
SPE7L315T75092590015702482                                    005648951801/05/15SPE7L315T7509.pdf  0000001EABRACKET,VEHICULAR C  PLCLBD1N100
SPE7L315T75102530015064579                                    005642339201/05/15SPE7L315T7510.pdf  0000007EAALIGNING TOOL        PLCLBG1C100
SPE7L315T75115330014697557                                    005649958601/05/15SPE7L315T7511.pdf  0000030EAGASKET               PLCLBD1N100
SPE7L315T75123040014369820                                    005645842301/05/15SPE7L315T7512.pdf  0000035EACYLINDER ASSEMBLY,A  PLCLSD1N100
SPE7L315T75132590015896512                                    005650181301/05/15SPE7L315T7513.pdf  0000400EABRACKET,VEHICULAR C  PLCLBC1N100
SPE7L315T75142530015987112                                    005640739701/05/15SPE7L315T7514.pdf  0000010EAWHEEL,PNEUMATIC TIR  PLCLBD1N100
SPE7L315T75154810015961349                                    005643925301/05/15SPE7L315T7515.pdf  0000020EAVALVE,FLOW CONTROL   PLCLBD1N100
SPE7L315T75162530015986102                                    005632022201/05/15SPE7L315T7516.pdf  0000010EASEAT,BALL SOCKET     PLCLBD1N100
SPE7L315T75172530015986501                                    005632019901/05/15SPE7L315T7517.pdf  0000010EAARM,CONTROL,VEHICUL  PLCLBD1N100
SPE7L315T75182510016250494                                    005650181201/05/15SPE7L315T7518.pdf  0000040EAROD,SPLASH GUARD     PLCLBD1N100
SPE7L315T75193040014705803                                    005649958501/05/15SPE7L315T7519.pdf  0000015EASHAFT AS LIFTER      PLCLBL1N100
SPE7L315T75203040015497672                                    005646024301/05/15SPE7L315T7520.pdf  0000001EABALL JOINT           PLCLBZ1N100
SPE7L315T75213040006327904                                    005636936001/05/15SPE7L315T7521.pdf  0000004EASHAFT,STRAIGHT       PLCLBL1N100
SPE7L315T75225340015428082                                    005650203801/05/15SPE7L315T7522.pdf  0000075EACLEVIS,ROD END       PLCLBL1N100
SPE7L315T75232530010965026                                    005640667201/05/15SPE7L315T7523.pdf  0000015EAHUB ASSEMBLY         PLCLBL1R100
SPE7L315T75243040015487346                                    005648573701/05/15SPE7L315T7524.pdf  0000006EABELL CRANK           PLCLBD1N100
SPE7L315T75253010016101539                                    005648567601/05/15SPE7L315T7525.pdf  0000002EACOUPLING,SHAFT,RIGI  PLCLBD1N100
SPE7L315T75265999014299791                                    005648293101/05/15SPE7L315T7526.pdf  0000007EACAP,ELECTRICAL       PLCLBL1N100
SPE7L315T75272530015425270                                    005650278501/05/15SPE7L315T7527.pdf  0000054EAHUB,WHEEL,VEHICULAR  PLCLBC1N100
SPE7L315T75282530015887026                                    005640756601/05/15SPE7L315T7528.pdf  0000023EAARM ASSEMBLY,PIVOT,  PLCLBG1Y100
SPE7L315T75295998016072514                                    005646027701/05/15SPE7L315T7529.pdf  0000001EAELECTRONIC COMPONEN  PLCLBC1N100
SPE7L315T75302510015452042                                    005649181301/05/15SPE7L315T7530.pdf  0000001EAHOOD,ENGINE COMPART  PLCLBD1N100
SPE7L315T75312940014648076                                    005649181201/05/15SPE7L315T7531.pdf  0000001EAFILTER BODY,FLUID    PLCLBL1N100
SPE7L315T75322940015798964                                    005649313401/05/15SPE7L315T7532.pdf  0000001EAFILTER ELEMENT,INTA  PLCLBD1N100
SPE7L315T75332940015800028                                    005649067501/05/15SPE7L315T7533.pdf  0000001EAFILTER ELEMENT,INTA  PLCLBD1N100
SPE7L415T26302530011583221                                    005649852601/05/15SPE7L415T2630.pdf  0000036EATIE ROD,STEERING     PLCLDC1N100
SPE7L415T26313040014934036                                    005649817501/05/15SPE7L415T2631.pdf  0000048EAPISTON,LINEAR ACTUA  PMCMYL1N100
SPE7L415T26322815008207455                                    005649840801/05/15SPE7L415T2632.pdf  0000359EAPIN,PISTON           PMCMYD1N100
SPE7L415T26333020014817813                                    005649821701/05/15SPE7L415T2633.pdf  0000008SEGEAR SET,BEVEL,MATC  PLCLDH1Y100
SPE7L415T26342520014966518                                    005649817701/05/15SPE7L415T2634.pdf  0000232EAPLATE,INTERMEDIATE,  PMCMYH1N100
SPE7L415T26351005015644858                                    005649828701/05/15SPE7L415T2635.pdf  0000051EACOVER,GUN MOUNT      PLCLDD1Y100
SPE7L415T26362920997896531                                    005649835601/05/15SPE7L415T2636.pdf  0000010EARELAY-SOLENOID,ENGI  PLCLDD1N100
SPE7L415T26372910000048422                                    005649929801/05/15SPE7L415T2637.pdf  0000498EASPRAY TIP,NOZZLE,FU  PLCLDC1C100
SPE7L415T26381025001837688                                    005649936201/05/15SPE7L415T2638.pdf  0000011EARETAINER,BEARING TR  PLCLDG1N100
SPE7L415T26392930002761838                                    005649934801/05/15SPE7L415T2639.pdf  0000032EACOOLER,LUBRICATING   PLCLDC1R100
SPE7L415T26402815012465269                                    005649871601/05/15SPE7L415T2640.pdf  0000137EAPISTON,INTERNAL COM  PLCLBC1N100
SPE7L415T26412815012622643                                    005649873501/05/15SPE7L415T2641.pdf  0000008EAOIL PAN              PMCMYD1N100
SPE7L415T26422815012465268                                    005649871501/05/15SPE7L415T2642.pdf  0000294EAPISTON,INTERNAL COM  PLCLBC1N100
SPE7L415T26431055012862733                                    005649884701/05/15SPE7L415T2643.pdf  0000014EAYOKE-SPLINED         PLCLDG1Y100
SPE7L415T26442815013732720                                    005649901901/05/15SPE7L415T2644.pdf  0000154SERING SET,PISTON      PLCLDL1H100
SPE7L415T26452510016181087                                    005643954701/05/15SPE7L415T2645.pdf  0000294EAPLATE,MOUNTING       PLCLDD1N100
SPE7L415T26462540016188810                                    005633443901/05/15SPE7L415T2646.pdf  0000400EAARMOR,SUPPLEMENTAL,  PLCLDD1N100
SPE7L415T26471005661441598                                    005648931901/05/15SPE7L415T2647.pdf  0000001EABOX MAGAZINE,AMMUNI  PLCLDC1N100
SPE7L415T26481005015816643                                    005648933001/05/15SPE7L415T2648.pdf  0000003EABASE,REAR SIGHT      PLCLDD1N100
SPE7L415T26493020005226307                                    005649920001/05/15SPE7L415T2649.pdf  0000015EAGEAR CLUSTER         PLCLDD1N100
SPE7L415T26503020008997152                                    005647703601/05/15SPE7L415T2650.pdf  0000020EAPULLEY,GROOVE        PMCMYG1N100
SPE7L415T26512540015802005                                    005649671601/05/15SPE7L415T2651.pdf  0000076EABLADE,WINDSHIELD WI  PMCMYD1N100
SPE7L415T26521005011671159                                    005626779601/05/15SPE7L415T2652.pdf  0000032EABLOWER EXHAUST       PLCLDG1Y100
SPE7L415T26535995013829525                                    005644674301/05/15SPE7L415T2653.pdf  0000005EACABLE ASSEMBLY,SPEC  PMCMYQ1N100
SPE7L415T26541005013600769                                    005649906201/05/15SPE7L415T2654.pdf  0000008EACHUTE ASSEMBLY, AMMUNPLCLDB1N100
SPE7L515T14942815008669402                                    005649840601/05/15SPE7L515T1494.pdf  0000240EACYLINDER SLEEVE      PLCLDC1Y100
SPE7L515T14952815000979755                                    005649928801/05/15SPE7L515T1495.pdf  0000889EAPARTS KIT,ENGINE PO  PLCLDR1N100
SPE7L515T14964730004042906                                    005649923201/05/15SPE7L515T1496.pdf  0000020PGCOUPLING,TUBE        PLCLBL1N100
SPE7L515T14972910009030910                                    005649938901/05/15SPE7L515T1497.pdf  0000250AYPLUNGER AND BUSHING  PLCLDC1C100
SPE7L515T14982910009867303                                    005649920401/05/15SPE7L515T1498.pdf  0000138AYBUSHING AND PLUNGER  PLCLDC1N100
SPE7L515T14992530011183792                                    005649874301/05/15SPE7L515T1499.pdf  0000009EABRAKE SHOE           PLCLDL1N100
SPE7L515T15002910010815570                                    005649924601/05/15SPE7L515T1500.pdf  0000201EASPRAY TIP,NOZZLE,NO  PLCLDC1C100
SPE7L515T15012510013756294                                    005649903801/05/15SPE7L515T1501.pdf  0000077EAHINGE,DOOR,VEHICULA  PLCLDC1H100
SPE7L515T15022910015986944                                    005649905901/05/15SPE7L515T1502.pdf  0000018EATANK,FUEL,PORTABLE   PLCLDD1N100
SPE7L515T15032815016049253                                    005649883201/05/15SPE7L515T1503.pdf  0000004EAENGINE BLOCK,DIESEL  PLCLDD1N100
SPE7L515T15042815004270551                                    005649924001/05/15SPE7L515T1504.pdf  0000089EAPISTON,INTERNAL COM  PLCLDB1Y100
SPE7L515T15052530014776586                                    005578621101/05/15SPE7L515T1505.pdf  0001144EADUMMY COUPLING,AUTO  PLCLBG1Y100
SPE7L515T15062540012096875                                    005573796301/05/15SPE7L515T1506.pdf  0000381EALATCH,DOOR,VEHICULAR PMCMYG1R100
SPE7L515T15072510015588096                                    005648551801/05/15SPE7L515T1507.pdf  0000006EASTRUT ASSEMBLY,VEHI  PLCLDL1Y100
SPE7L715T16416130015550762                                    005649824901/05/15SPE7L715T1641.pdf  0000336EABATTERY POWER SUPPL  PLCLSC1N100
SPE7L715T16422640015645246                                    005649828901/05/15SPE7L715T1642.pdf  0000224EAVALVE EXTENSION,TIR  PLCLBD1N100
SPE7L715T16436160015657445                                    005649831301/05/15SPE7L715T1643.pdf  0000114EABATTERY BOX          PLCLCD1N100
SPE7L715T16442530997987780                                    005649835801/05/15SPE7L715T1644.pdf  0000019EAWHEEL ASSEMBLY,SPEC  PLCLCR1N100
SPE7L715T16456650004194146                                    005649923801/05/15SPE7L715T1645.pdf  0000039EAHEADREST,BINOCULAR   PLCLCD1N100
SPE7L715T16462530011872551                                    005649866801/05/15SPE7L715T1646.pdf  0000025EARIM,WHEEL,PNEUMATIC  PLCLCD1N100
SPE7L715T16476130015827839                                    005649894001/05/15SPE7L715T1647.pdf  0000017EAPOWER SUPPLY         PLCLSD1N100
SPE7L715T16486140011956189                                    005648928501/05/15SPE7L715T1648.pdf  0000002EABATTERY,STORAGE      PLCLZD1N100
SPE7L715T16496140013583027                                    005650129901/05/15SPE7L715T1649.pdf  0000002EABATTERY,STORAGE      PLCLCD1N100
SPE7L715T16506140012458350                                    005648946701/05/15SPE7L715T1650.pdf  0000004EABATTERY,STORAGE      PLCLXD1N100
SPE7L715T16512610016112976                                    005648931001/05/15SPE7L715T1651.pdf  0000001EATIRE,PNEUMATIC,VEHI  PLCLCD1N100
SPE7L715T16526130015059245                                    005648948301/05/15SPE7L715T1652.pdf  0000001EAPOWER SUPPLY         PLCLSP1N100
SPE7L715T16536140011592241                                    005641711301/05/15SPE7L715T1653.pdf  0000006EABATTERY,STORAGE      PLCLXC1N100
SPE7L715T16546160015635114                                    005645997101/05/15SPE7L715T1654.pdf  0000003EACOVER,BATTERY        PLCLCD1N100
SPE7L715T16556140012614977                                    005649373001/05/15SPE7L715T1655.pdf  0000001EABATTERY,STORAGE      PLCLCZ1N100
SPE7L715T16566140014594084                                    005649574901/05/15SPE7L715T1656.pdf  0000002EABATTERY,STORAGE      PLCLZD1N100
SPE7L715T16576140013202644                                    005649488201/05/15SPE7L715T1657.pdf  0000001EABATTERY,STORAGE      PLCLXD1N100
SPE7M015T32675985012337871                                    005649876401/05/15SPE7M015T3267.pdf  0000002EARADOME               PMCMSC1N100
SPE7M015T32684820016300230                                    005642702101/05/15SPE7M015T3268.pdf  0000001EAVALVE,SAFETY RELIEF  PMCMSQ1N100
SPE7M015T32694710014364034                                    005648954001/05/15SPE7M015T3269.pdf  0000001EATUBE ASSEMBLY,METAL  PMCMSG1N100
SPE7M015T32706145014764850                                    005648058001/05/15SPE7M015T3270.pdf  0000330FTCABLE,RADIO FREQUEN  PMCMSZ1N100
SPE7M015T32715930011992083                                    005650164201/05/15SPE7M015T3271.pdf  0000005EASWITCH,ROTARY        PMCMSC1N100
SPE7M015T32724720016135633                                    005599172801/05/15SPE7M015T3272.pdf  0000001EAHOSE ASSEMBLY,NONME  PMCMSC1N100
SPE7M015T32734820015713521                                    005648921301/05/15SPE7M015T3273.pdf  0000001EAVALVE,VENT           PMCMSD1N100
SPE7M015T32744730009453138                                    005457387001/05/15SPE7M015T3274.pdf  0000010EAELBOW,PIPE TO TUBE   PMCMSG1N100
SPE7M015T32756145011904157                                    005649010801/05/15SPE7M015T3275.pdf  0001000FTCABLE,POWER,ELECTRICAPMCMSG1N100
SPE7M015T32765306002992760                                    005645479901/05/15SPE7M015T3276.pdf  0000020EABOLT,MACHINE         PMCMSG1N100
SPE7M015T32776105013605579                                    005647671101/05/15SPE7M015T3277.pdf  0000002EAEND BELL,ELECTRICAL  PMCMSC1N100
SPE7M015T32784730003458791                                    005644904701/05/15SPE7M015T3278.pdf  0000010EANOZZLE,SPRAY,FLUID-  PMCMSL1N100
SPE7M015T32795930015871615                                    005632260301/05/15SPE7M015T3279.pdf  0000003EASWITCH,ELECTRONIC    PMCMSD1Y100
